:020000040800F2
:1000000000000120E5240008A5220008AD22000818
:10001000B5220008BD220008C5220008000000002B
:10002000000000000000000000000000CD220008D9
:10003000DB22000800000000E9220008F922000885
:100040003525000835250008352500083525000828
:100050003525000835250008352500083525000818
:100060003525000835250008352500083525000808
:1000700035250008352500083525000835250008F8
:10008000352500083525000835250008000000004A
:1000900000000000000000000000000035250008FE
:1000A00035250008352500083525000835250008C8
:1000B00035250008352500083525000835250008B8
:1000C00035250008352500083525000835250008A8
:1000D00035250008352500083525000800000000FA
:1000E00035250008352500083525000800000000EA
:1000F000000000000000000000000000352500089E
:1001000000000000352500083525000835250008C9
:1001100000000000000000000000000000000000DF
:100120003525000835250008352500083525000847
:10013000352500080000000000000000000000005D
:10014000000000000000000000000000352500084D
:100150003525000835250008352500083525000817
:1001600035250008352500080000000000000000CB
:10017000000000000000000000000000000000007F
:10018000000000003525000800000000000000000D
:040190003525000809
:1001A00010B5054C237833B9044B13B10448AFF3B1
:1001B00000800123237010BDEC010020000000002E
:1001C000DCC5000808B5034B1BB103490348AFF376
:1001D000008008BD00000000F0010020DCC5000820
:1001E00001F0FF01102A2BDB10F0070F08D010F8E8
:1001F000013B013A8B422DD010F0070F42B3F6D1EC
:10020000F0B441EA012141EA014122F007047FF004
:1002100000070023F0E80256083C85EA010586EA5B
:10022000010685FA47F5A3FA87F586FA47F6A5FA97
:1002300087F68EB9EED1F0BC01F0FF0102F00702A3
:1002400032B110F8013B013A83EA010313B1F8D14E
:100250000020704701387047002D06BF354603382F
:10026000073815F0010F07D1013015F4807F02BF68
:10027000013015F4C03F0130F0BC0138704700BFB9
:10028000034613F8012B002AFBD1181A01387047D6
:1002900081F0004102E000BF83F0004330B54FEA37
:1002A00041044FEA430594EA050F08BF90EA020FA4
:1002B0001FBF54EA000C55EA020C7FEA645C7FEA37
:1002C000655C00F0E2804FEA5454D4EB5555B8BF5A
:1002D0006D420CDD2C4480EA020281EA030382EACB
:1002E000000083EA010180EA020281EA0303362D5D
:1002F00088BF30BD11F0004F4FEA01314FF4801C30
:100300004CEA113102D0404261EB410113F0004F41
:100310004FEA03334CEA133302D0524263EB4303F8
:1003200094EA050F00F0A780A4F10104D5F1200E96
:100330000DDB02FA0EFC22FA05F2801841F10001F1
:1003400003FA0EF2801843FA05F359410EE0A5F1C5
:1003500020050EF1200E012A03FA0EFC28BF4CF0F6
:10036000020C43FA05F3C01851EBE37101F00045AC
:1003700007D54FF0000EDCF1000C7EEB00006EEBB9
:100380000101B1F5801F1BD3B1F5001F0CD3490843
:100390005FEA30004FEA3C0C04F101044FEA44529A
:1003A00012F5800F80F09A80BCF1004F08BF5FEA21
:1003B000500C50F1000041EB045141EA050130BD01
:1003C0005FEA4C0C404141EB0101013C28BFB1F513
:1003D000801FE9D291F0000F04BF01460020B1FA5E
:1003E00081F308BF2033A3F10B03B3F120020CDA31
:1003F0000C3208DD02F1140CC2F10C0201FA0CF00F
:1004000021FA02F10CE002F11402D8BFC2F1200C73
:1004100001FA02F120FA0CFCDCBF41EA0C01904029
:10042000E41AA2BF01EB0451294330BD6FEA040472
:100430001F3C1CDA0C340EDC04F11404C4F120025D
:1004400020FA04F001FA02F340EA030021FA04F36F
:1004500045EA030130BDC4F10C04C4F1200220FAC6
:1004600002F001FA04F340EA0300294630BD21FA04
:1004700004F0294630BD94F0000F83F4801306BFCA
:1004800081F480110134013D4EE77FEA645C18BFBE
:100490007FEA655C29D094EA050F08BF90EA020F55
:1004A00005D054EA000C04BF1946104630BD91EA4D
:1004B000030F1EBF0021002030BD5FEA545C05D150
:1004C0004000494128BF41F0004130BD14F580048F
:1004D0003CBF01F5801130BD01F0004545F0FE4103
:1004E00041F470014FF0000030BD7FEA645C1ABF38
:1004F000194610467FEA655C1CBF0B46024650EA6F
:10050000013406BF52EA033591EA030F41F400219A
:1005100030BD00BF90F0000F04BF0021704730B520
:100520004FF4806404F132044FF000054FF00001F5
:1005300050E700BF90F0000F04BF0021704730B5B6
:100540004FF4806404F1320410F0004548BF40428B
:100550004FF000013EE700BF42004FEAE2014FEAE0
:1005600031014FEA02701FBF12F07F4393F07F4FBB
:1005700081F06051704732F07F4208BF704793F0BE
:100580007F4F04BF41F40021704730B54FF46074D1
:1005900001F0004521F000411CE700BF50EA0102D4
:1005A00008BF704730B54FF000050AE050EA01027D
:1005B00008BF704730B511F0004502D5404261EBED
:1005C00041014FF4806404F132045FEA915C3FF42E
:1005D000D8AE4FF003025FEADC0C18BF03325FEACB
:1005E000DC0C18BF033202EBDC02C2F1200300FA7C
:1005F00003FC20FA02F001FA03FE40EA0E0021FAA1
:1006000002F11444BDE600BF70B54FF0FF0C4CF48E
:10061000E06C1CEA11541DBF1CEA135594EA0C0F40
:1006200095EA0C0F00F0DEF82C4481EA030621EA7B
:100630004C5123EA4C5350EA013518BF52EA0335B6
:1006400041F4801143F4801338D0A0FB02CE4FF068
:100650000005E1FB02E506F00042E0FB03E54FF098
:100660000006E1FB03569CF0000F18BF4EF0010E90
:10067000A4F1FF04B6F5007F64F5407404D25FEA8C
:100680004E0E6D4146EB060642EAC62141EA55513F
:100690004FEAC52040EA5E504FEACE2EB4F1FD0C81
:1006A00088BFBCF5E06F1ED8BEF1004F08BF5FEAFF
:1006B000500E50F1000041EB045170BD06F00046B1
:1006C00046EA010140EA020081EA0301B4EB5C045E
:1006D000C2BFD4EB0C0541EA045170BD41F4801156
:1006E0004FF0000E013C00F3AB8014F1360FDEBF7B
:1006F000002001F0004170BDC4F10004203C35DA57
:100700000C341BDC04F11404C4F1200500FA05F3D9
:1007100020FA04F001FA05F240EA020001F000427A
:1007200021F0004110EBD37021FA04F642EB0601F0
:100730005EEA430E08BF20EAD37070BDC4F10C041A
:10074000C4F1200500FA04F320FA05F001FA04F2DE
:1007500040EA020001F0004110EBD37041F10001CA
:100760005EEA430E08BF20EAD37070BDC4F12005D5
:1007700000FA05F24EEA020E20FA04F301FA05F23D
:1007800043EA020321FA04F001F0004121FA04F2E5
:1007900020EA020000EBD3705EEA430E08BF20EAB5
:1007A000D37070BD94F0000F0FD101F000464000EF
:1007B00041EB010111F4801F08BF013CF7D041EA71
:1007C000060195F0000F18BF704703F00046520075
:1007D00043EB030313F4801F08BF013DF7D043EA46
:1007E0000603704794EA0C0F0CEA135518BF95EAFC
:1007F0000C0F0CD050EA410618BF52EA4306D1D183
:1008000081EA030101F000414FF0000070BD50EAA1
:10081000410606BF1046194652EA430619D094EA2B
:100820000C0F02D150EA013613D195EA0C0F05D115
:1008300052EA03361CBF104619460AD181EA030169
:1008400001F0004141F0FE4141F470014FF0000021
:1008500070BD41F0FE4141F4780170BD70B54FF0BC
:10086000FF0C4CF4E06C1CEA11541DBF1CEA13553C
:1008700094EA0C0F95EA0C0F00F0A7F8A4EB05041E
:1008800081EA030E52EA03354FEA013100F0888015
:100890004FEA03334FF0805545EA131343EA1263DE
:1008A0004FEA022245EA111545EA10654FEA002693
:1008B0000EF000419D4208BF964244F1FD0404F54C
:1008C000407402D25B084FEA3202B61A65EB0305A8
:1008D0005B084FEA32024FF480104FF4002CB6EB65
:1008E000020E75EB030E22BFB61A754640EA0C00E5
:1008F0005B084FEA3202B6EB020E75EB030E22BF25
:10090000B61A754640EA5C005B084FEA3202B6EB65
:10091000020E75EB030E22BFB61A754640EA9C0024
:100920005B084FEA3202B6EB020E75EB030E22BFF4
:10093000B61A754640EADC0055EA060E18D04FEAB2
:10094000051545EA16754FEA06164FEAC30343EA52
:1009500052734FEAC2025FEA1C1CC0D111F4801F1F
:100960000BD141EA00014FF000004FF0004CB6E718
:1009700011F4801F04BF01430020B4F1FD0C88BFB7
:10098000BCF5E06F3FF6AFAEB5EB030C04BFB6EBC2
:10099000020C5FEA500C50F1000041EB045170BDB5
:1009A0000EF0004E4EEA113114EB5C04C2BFD4EBE2
:1009B0000C0541EA045170BD41F480114FF0000E66
:1009C000013C90E645EA060E8DE60CEA135594EAE2
:1009D0000C0F08BF95EA0C0F3FF43BAF94EA0C0FE5
:1009E0000AD150EA01347FF434AF95EA0C0F7FF45A
:1009F00025AF104619462CE795EA0C0F06D152EAAE
:100A000003353FF4FDAE1046194622E750EA410691
:100A100018BF52EA43067FF4C5AE50EA41047FF4A2
:100A20000DAF52EA43057FF4EBAE12E74FF0FF3C07
:100A300006E000BF4FF0010C02E000BF4FF0010CD8
:100A40004DF804CD4FEA410C7FEA6C5C4FEA430C51
:100A500018BF7FEA6C5C1BD001B050EA410C0CBFA0
:100A600052EA430C91EA030F02BF90EA020F002002
:100A7000704710F1000F91EA030F58BF994208BF69
:100A800090422CBFD8176FEAE37040F00100704726
:100A90004FEA410C7FEA6C5C02D150EA013C07D17D
:100AA0004FEA430C7FEA6C5CD6D152EA033CD3D0C8
:100AB0005DF8040B704700BF8446104662468C46C2
:100AC0001946634600E000BF01B5FFF7B7FF0028F5
:100AD00048BF10F1000F01BD4DF808EDFFF7F4FF1E
:100AE0000CBF012000205DF808FB00BF4DF808EDA9
:100AF000FFF7EAFF34BF012000205DF808FB00BFCC
:100B00004DF808EDFFF7E0FF94BF012000205DF8ED
:100B100008FB00BF4DF808EDFFF7CEFF94BF0120A2
:100B200000205DF808FB00BF4DF808EDFFF7C4FF9B
:100B300034BF012000205DF808FB00BF4FEA410CE4
:100B40007FEA6C5C02D150EA013C0AD14FEA430CC7
:100B50007FEA6C5C02D152EA033C02D14FF0000004
:100B600070474FF0010070474FEA410212F5001242
:100B700015D211D56FF47873B3EB625212D94FEAE4
:100B8000C12343F0004343EA505311F0004F23FACE
:100B900002F018BF404270474FF00000704750EA23
:100BA000013005D111F0004008BF6FF000407047E0
:100BB0004FF00000704700BF4A0011D212F500123A
:100BC00011D20DD56FF47873B3EB62520ED44FEAA5
:100BD000C12343F0004343EA505323FA02F0704725
:100BE0004FF00000704750EA013002D14FF0FF3063
:100BF00070474FF0000070474FEA4102B2F1E04306
:100C000024BFB3F5001CDCF1FE5C0DD901F0004CF3
:100C10004FEAC0024CEA5070B2F1004F40EB830043
:100C200008BF20F00100704711F0804F21D113F16F
:100C30003872BCBF01F00040704741F480114FEAA8
:100C40005252C2F11802C2F1200C10FA0CF320FA31
:100C500002F018BF40F001004FEAC1234FEAD3234E
:100C600003FA0CFC40EA0C0023FA02F34FEA4303B8
:100C7000CCE77FEA625307D150EA01331EBF4FF041
:100C8000FE4040F44000704701F0004040F0FE405C
:100C900040F40000704700BF53B94AB9002908BFAB
:100CA00000281CBF4FF0FF314FF0FF3000F0BEB9FD
:100CB000ADF1080C6DE904CE00F03CF8DDF804E07D
:100CC000DDE9022304B0704738B500220023044652
:100CD0000D46FFF70BFF28B920462946BDE83840EE
:100CE00000F00AB8204605F1004100F005F8404246
:100CF00061EB410138BD00BFD0B50C4B0022064668
:100D00000F46FFF781FCFFF757FF0446FFF702FC91
:100D1000074B0022FFF778FC02460B463046394667
:100D2000FFF7BAFAFFF748FF2146D0BD0000F03DBB
:100D30000000F0412DE9F047089D8E4604468846A4
:100D4000002B4AD18A42174662D9B2FA82F64EB1D6
:100D5000C6F1200301FA06F820FA03F3B74043EA8C
:100D60000808B4404FEA174E1FFA87FCB8FBFEF1A3
:100D7000230C0EFB118843EA084301FB0CF29A4254
:100D800009D9FB1801F1FF3080F0EA809A4240F265
:100D9000E78002393B449A1AA3B2B2FBFEF00EFB85
:100DA000102243EA024300FB0CFC9C4509D9FB18C6
:100DB00000F1FF3280F0D6809C4540F2D3803B4466
:100DC000023840EA0140A3EB0C0300211DB1F340BF
:100DD0000022C5E90032BDE8F0878B4205D90DB18C
:100DE000C5E9000100210846F5E7B3FA83F10029BF
:100DF00046D1734502D3824200F20581841A6EEB1C
:100E0000030201209046002DE5D0C5E90048E2E745
:100E1000002A00F09080B2FA82F6002E40F0A48002
:100E20008A1A030C4FEA174E80B2BCB20121B2FB02
:100E3000FEFC0EFB1C2243EA024304FB0CF29A4226
:100E400007D9FB180CF1FF3802D29A4200F2E08079
:100E5000C4469B1AB3FBFEF20EFB123340EA034377
:100E600002FB04F49C4207D9FB1802F1FF3002D2C6
:100E70009C4200F2CA8002461B1B42EA0C40A5E7D6
:100E8000C1F120068B4022FA06F71F430EFA01F447
:100E900020FA06F32EFA06FE4FEA1749234300FA1A
:100EA00001F81FFA87FCBEFBF9F01C0C09FB10EEE1
:100EB00044EA0E4400FB0CFEA64502FA01F209D9F1
:100EC0003C1900F1FF3A80F09C80A64540F29980E1
:100ED00002383C44A4EB0E041FFA83FEB4FBF9F382
:100EE00009FB13444EEA044403FB0CFCA44508D957
:100EF0003C1903F1FF3E80F08280A4457FD9023B7C
:100F00003C4443EA0040A4EB0C04A0FB02EC644523
:100F10007346E14662D35FD05DB1B8EB030264EB88
:100F2000090404FA06F622FA01F31E43CC40C5E98F
:100F3000006400214FE7B1FBF2FC010C41EA0E41D5
:100F400080B240EA01423B4638463C46B846BE467F
:100F50002026B1FBF7F1A2EB080241EA0C4166E75B
:100F6000014618E710462CE7C6F120022EFA02F3DC
:100F7000B740B14020FA02F24FEA174E0A43B3FBE2
:100F8000FEF8BCB20EFB1833110C41EA034108FB1A
:100F900004F9B04089454FEA104380B23ED9791830
:100FA00008F1FF3C01D289451FD8A1EB0901B1FB33
:100FB000FEF909FB04F80EFB191192B242EA014254
:100FC000424529D2BA1809F1FF31C4D24245C2D2F2
:100FD000A9F102013A44BEE7F0459DD2BEEB0203FF
:100FE0006CEB070C0138E14696E7A7EB0909494489
:100FF000A8F1020CB1FBFEF909FB04F8DBE773462C
:101000007FE7504666E70846FDE63B44023A33E791
:10101000ACF1020C3B441CE749469CE7A1EB0901FB
:10102000C446B1FBFEF909FB04F8C4E7704700BFF2
:1010300080B500AF064801F059FB0121044801F0DA
:1010400009FC034801F091FC03469BB2184680BDA1
:101050001002002080B500AF00221021034802F0EA
:1010600031F9012001F0DAFA00BF80BD0000024032
:1010700080B500AF01221021034802F023F90120BE
:1010800001F0CCFA00BF80BD0000024080B582B004
:1010900000AF0346FB7100BF084B1B689B6803F061
:1010A0000203022BF8D1F91D64230122034802F048
:1010B0001EFE00BF0837BD4680BD00BF580200209D
:1010C00080B582B000AF78600B467B8000BF084BD4
:1010D0001B689B6803F00203022BF8D17A88642313
:1010E0007968034802F003FE00BF0837BD4680BDA3
:1010F0005802002080B584B002AFFF23FB7100BF0F
:10110000094B1B689B6803F00203022BF8D1BA1D40
:10111000F91D642300930123034802F02BFFBB79E0
:1011200018460837BD4680BD5802002080B582B001
:1011300000AF7860FFF7DEFF03461A467B681A703F
:1011400000BF0837BD4680BD80B582B000AF0A4BF6
:101150004FF4FA721A80FFF7CDFF0346FB71FB795B
:10116000FF2B03D0044B1B88002BF4D1FB791846CE
:101170000837BD4680BD00BF0A02002080B584B09C
:1011800000AF41F6FF73FB60FFF772FF0023BB6007
:1011900005E0FF20FFF77AFFBB680133BB60BB6847
:1011A000092BF6DDFFF756FF40233B7000237B70D1
:1011B0000023BB700023FB7000233B7195237B71E0
:1011C0003B4606211846FFF77BFF02E0FB68013B28
:1011D000FB60FFF78FFF0346012B02D0FB68002B5B
:1011E000F4D1FFF745FFFF20FFF750FF034B01222B
:1011F0001A7000BF1037BD4680BD00BF0D02002031
:1012000080B400AF034B00221A7000BFBD465DF8EA
:10121000047B70470D02002080B400AF034B1B78A5
:101220001846BD465DF8047B704700BF0D020020E4
:1012300080B584B000AF78603960134BC8221A8043
:10124000FFF758FF0346FB73FB7BFF2B03D10E4BCD
:101250001B88002BF4D1FB7BFE2B01D000230FE079
:101260007B685A1C7A601846FFF760FF3B685A1E7D
:101270003A60002BF4D1FFF73DFFFFF73BFF01235E
:1012800018461037BD4680BD0802002080B584B0E6
:1012900000AF78600B46FB700023BB73FFF754FF71
:1012A0000346FF2B01D000232FE0FB781846FFF701
:1012B000EDFEFB78FD2B20D04FF400717868FFF72E
:1012C000FFFEFFF717FFFFF715FF0BE0FFF712FF19
:1012D0000346FB73FB7B03F01F03052B06D0BB7B90
:1012E0000133BB73BB7B402BF0D900E000BF00BFD4
:1012F000FFF700FF0346002BFAD0FB7B03F01F0330
:10130000052B01D1012300E0002318461037BD460C
:1013100080BD80B584B000AF03463960FB71FFF734
:1013200013FF0346FF2B01D0FF2342E0FB79184651
:10133000FFF7ACFE3B681B0EDBB21846FFF7A6FEBC
:101340003B681B0CDBB21846FFF7A0FE3B681B0A8C
:10135000DBB21846FFF79AFE3B68DBB21846FFF790
:1013600095FEFB79402B02D19523FB7307E0FB79B7
:10137000482B02D18723FB7301E00123FB73FB7B26
:101380001846FFF783FEFB794C2B01D1FFF7B2FE25
:101390000A23BB73FFF7AEFE03467B7397F90D304C
:1013A000002B05DABB7B013BBB73BB7B002BF1D170
:1013B0007B7B18461037BD4680BD000090B585B0D8
:1013C00000AF0346FB71FB79002B01D00123D1E074
:1013D0006A4B1B78DBB203F00203002B03D0674B90
:1013E0001B78DBB2C6E0FFF7C9FEFFF733FE002330
:1013F000BB7300214020FFF78CFF0346012B40F018
:10140000A1805F4B4FF47A721A804FF4D571482057
:10141000FFF77FFF0346012B55D10023FB730CE040
:10142000FC7BFFF767FE03461A4604F110033B44BA
:1014300003F8082CFB7B0133FB73FB7B032BEFD9F9
:10144000BB7A012B7ED1FB7AAA2B7BD1002177209E
:10145000FFF75FFF0346012B07D84FF0804169205B
:10146000FFF757FF0346002B04D0454B1B88002B8A
:10147000ECD100E000BF424B1B88002B62D0002162
:101480007A20FFF746FF0346002B5BD10023FB7356
:101490000CE0FC7BFFF72EFE03461A4604F1100316
:1014A0003B4403F8082CFB7B0133FB73FB7B032BD2
:1014B000EFD93B7A03F04003002B01D00C2300E06E
:1014C0000423BB733EE000217720FFF722FF034691
:1014D000012B08D800216920FFF71BFF0346012BD1
:1014E00001D8022300E00123BB73BB7B022B0ED18A
:1014F00000217720FFF70DFF0346012B0ED80021B6
:101500006920FFF706FF0346002B07D10CE00021FE
:101510004120FFF7FEFE0346002B04D0184B1B882A
:10152000002BE2D100E000BF154B1B88002B07D039
:101530004FF400715020FFF7ECFE0346002B01D062
:101540000023BB730F4ABB7B1370FFF791FDFFF7BE
:10155000D1FDBB7B002B08D0084B1B78DBB223F0FE
:101560000103DAB2054B1A7001E0FFF749FE034BA5
:101570001B78DBB218461437BD4690BD0000002032
:10158000080200200C02002080B483B000AF0346A4
:10159000FB71FB79002B01D0012302E0044B1B7887
:1015A000DBB218460C37BD465DF8047B704700BFC0
:1015B0000000002080B584B000AFB9607A603B6065
:1015C0000346FB73FB7B002B02D13B68002B01D150
:1015D000042351E02A4B1B78DBB203F00103002BFC
:1015E00001D0032348E0274B1B7803F00403002BB2
:1015F00002D17B685B027B60FFF72CFD3B68012B0F
:1016000011D179685120FFF784FE0346002B29D1C0
:101610004FF40071B868FFF70BFE0346002B21D092
:1016200000233B601EE079685220FFF772FE0346FC
:10163000002B17D14FF40071B868FFF7F9FD03468E
:10164000002B0AD0BB6803F50073BB603B68013B0D
:101650003B603B68002BEDD100E000BF00214C2037
:10166000FFF757FEFFF704FDFFF744FD3B68002B33
:1016700014BF01230023DBB218461037BD4680BDDE
:10168000000000200C02002080B584B000AFB960DB
:101690007A603B600346FB73FB7B002B02D13B6807
:1016A000002B01D104236BE0374B1B78DBB203F036
:1016B0000103002B01D0032362E0334B1B78DBB224
:1016C00003F00403002B01D0022359E02F4B1B78B9
:1016D00003F00403002B02D17B685B027B60FFF701
:1016E000B9FC3B68012B10D179685820FFF711FE37
:1016F0000346002B3AD1FE21B868FFF7C7FD034629
:10170000002B33D000233B6030E0204B1B7803F0EC
:101710000203002B07D000217720FFF7FAFD39687C
:101720005720FFF7F6FD79685920FFF7F2FD0346D1
:10173000002B1BD1FC21B868FFF7A8FD0346002B46
:101740000AD0BB6803F50073BB603B68013B3B609C
:101750003B68002BEED100E000BFFD210020FFF729
:1017600095FD0346002B01D101233B60FFF780FC70
:10177000FFF7C0FC3B68002B14BF01230023DBB242
:1017800018461037BD4680BD000000200C02002026
:1017900090B58BB000AF03463A60FB710B46BB714E
:1017A0003B683B62FB79002B01D0042313E101234A
:1017B00087F82730BB79052B24D13B6A1B78022B95
:1017C00012D0022B1ADC002B02D0012B06D015E020
:1017D000FFF716FD002387F82730FAE0FFF7CEFC6D
:1017E000002387F82730F4E03B6A5C1CFFF714FD08
:1017F00003462370002387F82730EAE0042387F8A4
:101800002730E6E0764B1B78DBB203F00103002BB8
:1018100001D00323DFE0FFF71DFCBB790D2B00F2A5
:10182000C98001A252F823F01F19000861180008AE
:101830000F190008B5190008B5190008B5190008F6
:10184000B5190008B5190008B5190008B519000840
:10185000B519000831190008551900087919000850
:1018600000214920FFF755FD0346002B40F0A680DC
:1018700007F10C0310211846FFF7DAFC0346002B92
:1018800000F09C803B7B9B09DBB2012B0DD17B7D63
:101890001A463B7D1B029BB213449BB20133FB8370
:1018A000FB8B9A023B681A602DE07B7C03F00F03F0
:1018B000DAB2BB7DDB09DBB21344DAB27B7D5B00BD
:1018C000DBB203F00603DBB21344DBB2023387F86A
:1018D00026303B7D9B09DBB21A46FB7C9B009BB20A
:1018E00013449AB2BB7C9B029BB203F440639BB24D
:1018F00013449BB20133FB83FA8B97F82630093BE4
:101900009A403B681A60002387F8273056E03B680E
:101910004FF400721A80002387F8273055E0FFF754
:1019200013FC0346FF2B4BD1002387F8273047E0F9
:1019300000214920FFF7EDFC0346002B42D1102186
:10194000386AFFF775FC0346002B3BD0002387F86D
:10195000273037E000214A20FFF7DBFC0346002B4D
:1019600032D11021386AFFF763FC0346002B2BD0DD
:10197000002387F8273027E000217A20FFF7C9FCF1
:101980000346002B16D1002387F826300BE03C6A73
:10199000631C3B62FFF7AEFB0346237097F82630CB
:1019A000013387F8263097F82630032BEFD9002330
:1019B00087F82730042387F8273006E000BF04E0CB
:1019C00000BF02E000BF00E000BFFFF751FBFFF7E0
:1019D00091FB97F8273018462C37BD4690BD00BFC5
:1019E0000000002080B582B000AF78600B46FB702D
:1019F000F91C4FF6FF730122786802F097FD00BFD3
:101A00000837BD4680BD80B582B000AF78603960D0
:101A100007E03B685A1C3A601B7819467868FFF764
:101A2000E1FF3B681B78002BF3D100BF00BF0837F4
:101A3000BD4680BD80B500AF4FF4FA7000F0EEFDFA
:101A400001224D494D4805F0BDFA0346002B04D153
:101A50004B494C48FFF7D7FF03E04B494948FFF794
:101A6000D2FF132249494A4805F0F2FA0346002BF7
:101A700004D048494348FFF7C6FF03E046494148C0
:101A8000FFF7C1FF454A46493B4805F091FF434BEC
:101A90001B689B69023B414A1268528902FB03F3AF
:101AA0001846FEF737FD4FF000023E4BFEF7ACFD47
:101AB00002460B4610461946FFF77EF803463A4A9F
:101AC0001360364B1B685B891A46354B1B6802FB5B
:101AD00003F31846FEF71EFD4FF00002314BFEF7F0
:101AE00093FD02460B4610461946FFF765F803467C
:101AF0002E4A13602D4B1B68002B03D12C49214823
:101B0000FFF781FF22492B4806F0BCF820492A48FC
:101B100006F0B8F81E49294806F0B4F81C4805F04C
:101B20001DFF0346002B03D025491648FFF76BFF26
:101B300001221649164805F08BFA22491148FFF791
:101B400062FF0CE0204A2149214807F007F92049AB
:101B50000C48FFF758FF1F490A48FFF754FF0C4A8B
:101B60006421194805F0D9FF0346002BEAD1084843
:101B700005F0F4FE00BF80BDF8C50008F8020020A3
:101B8000FCC50008B002002014C600082CC60008DE
:101B90003005002034C6000848C600082C05002087
:101BA000600500200000E03F64050020680500207B
:101BB0005CC600086CC6000878C6000888C6000825
:101BC00094C60008A8C600086C050020B0C600082E
:101BD000D0050020B4C6000890B583B002AF00F075
:101BE000ABFC00F0D5F800F0E5F900F031F900F0B9
:101BF00081F900F0B5F903F055F8FFF71BFF332228
:101C00005149524805F024FA0346002B02D0012026
:101C100000F004FD4D494E4806F034F84B494D485C
:101C200006F030F849494C4806F02CF847494B4833
:101C300006F028F8454805F091FE0B224849434834
:101C400005F006FA414805F089FE4FF40051454879
:101C500001F051FBFFF7ECF903461A46424B1A809C
:101C6000414B1B881846FEF765FC33A3D3E90023DC
:101C7000FEF7CAFC02460B46104619464FF000021A
:101C80003A4BFEF7C1FC02460B46104619462CA300
:101C9000D3E90023FEF7E2FD02460B461046194643
:101CA000FEF7AAFF0346324A1360324B1B881C46DC
:101CB0002F4B1B681846FEF74FFC02460B46CDE93A
:101CC000002322462C492D4807F048F8294B1B8851
:101CD00001339AB2274B1A804FF48061284801F0F3
:101CE000D9FA0346012B0FD133221D49174805F0BD
:101CF000AFF9012000F092FC1449204805F0C2FF22
:101D0000124805F02BFE12E001221E49002005F0CA
:101D100059F91D491D48FFF776FE00224FF4005186
:101D2000104801F0CFFA40F6B83000F077FCC82038
:101D300000F074FC89E700BF6666666666660A4066
:101D40000000000000FEAF40B8C6000830050020CB
:101D5000C8C60008D8C60008E4C60008ECC60008DB
:101D6000FCC600080008024034060020000059406C
:101D7000380600203606002008C70008D0050020DD
:101D800000040240F8C5000814C70008B002002093
:101D900080B594B000AF07F120033022002118462F
:101DA00007F041F807F10C0300221A605A609A60AC
:101DB000DA601A610023BB60234B1B6C224A43F09C
:101DC00080531364204B1B6C03F08053BB60BB68D3
:101DD00000237B601D4B1B6823F440431B4A43F4E4
:101DE00000431360194B1B6803F440437B607B681E
:101DF00002233B620123FB6210233B630023BB638E
:101E000007F12003184601F091FA0346002B01D098
:101E100000F046F90F23FB6000233B6100237B6148
:101E20000023BB610023FB6107F10C03002118466E
:101E300001F0F4FC0346002B01D000F031F900BFA3
:101E40005037BD4680BD00BF0038024000700040E2
:101E500080B584B000AF3B4600221A605A609A6099
:101E6000DA60214B214A1A601F4B00225A601E4B38
:101E700000229A601C4B00221A611B4B00221A762A
:101E8000194B002283F82020174B0022DA62164BF0
:101E9000174A9A62144B0022DA60134B0122DA616E
:101EA000114B002283F830200F4B01225A610E485B
:101EB00000F0D8FB0346002B01D000F0F1F800231E
:101EC0003B6001237B600023BB603B46194606480C
:101ED00000F058FD0346002B01D000F0E1F800BFF0
:101EE0001037BD4680BD00BF100200200020014019
:101EF0000100000F80B500AF174B184A1A60164B4F
:101F00004FF482725A60144B00229A60124B0022E6
:101F1000DA60114B00221A610F4B00225A610E4BFE
:101F20004FF400729A610C4B1022DA610A4B0022C6
:101F30001A62094B00225A62074B00229A62064B32
:101F40000A22DA62044801F049FE0346002B01D060
:101F500000F0A6F800BF80BD58020020003001400C
:101F600080B500AF114B124A1A60104B4FF4165255
:101F70005A600E4B00229A600C4B0022DA600B4B29
:101F800000221A61094B0C225A61084B00229A6107
:101F9000064B0022DA61054802F078FA0346002B6E
:101FA00001D000F07DF800BF80BD00BFB00200206E
:101FB0000010014080B588B000AF07F10C0300228B
:101FC0001A605A609A60DA601A610023BB60304B75
:101FD0001B6B2F4A43F0040313632D4B1B6B03F061
:101FE0000403BB60BB6800237B60294B1B6B284A42
:101FF00043F001031363264B1B6B03F001037B606B
:102000007B6800233B60224B1B6B214A43F0020399
:1020100013631F4B1B6B03F002033B603B68002202
:102020004FF400511B4801F04DF9002210211A48CD
:1020300001F048F94FF40053FB6001233B6100239A
:102040007B610023BB6107F10C031946114800F0C6
:102050009DFF1023FB6001233B6100237B61002374
:10206000BB6107F10C0319460B4800F08FFF4FF4DA
:102070008063FB6000233B6101237B6107F10C035C
:102080001946064800F082FF00BF2037BD4680BDDC
:1020900000380240000802400000024000040240F4
:1020A00080B400AF72B600BF00BFFDE780B483B05C
:1020B00000AF00237B60104B5B6C0F4A43F48043FE
:1020C00053640D4B5B6C03F480437B607B6800239F
:1020D0003B60094B1B6C084A43F080531364064B6A
:1020E0001B6C03F080533B603B6800BF0C37BD4660
:1020F0005DF8047B704700BF0038024080B58AB0AD
:1021000000AF786007F1140300221A605A609A60E9
:10211000DA601A617B681B68174A934227D1002353
:102120003B61164B5B6C154A43F480735364134B4D
:102130005B6C03F480733B613B690023FB600F4BD6
:102140001B6B0E4A43F0010313630C4B1B6B03F034
:102150000103FB60FB6801237B610323BB61002358
:10216000FB6107F114031946054800F00FFF00BF9B
:102170002837BD4680BD00BF002001400038024026
:102180000000024080B58AB000AF786007F1140308
:1021900000221A605A609A60DA601A617B681B68D4
:1021A000194A93422BD100233B61184B5B6C174AB1
:1021B00043F480535364154B5B6C03F480533B61D1
:1021C0003B690023FB60114B1B6B104A43F001037A
:1021D00013630E4B1B6B03F00103FB60FB68E023F2
:1021E0007B610223BB610023FB6103233B62052368
:1021F0007B6207F114031946054800F0C7FE00BFD3
:102200002837BD4680BD00BF003001400038024085
:102210000000024080B58AB000AF786007F1140377
:1022200000221A605A609A60DA601A617B681B6843
:10223000194A93422CD100233B61184B5B6C174A1F
:1022400043F010035364154B5B6C03F010033B61C8
:102250003B690023FB60114B1B6B104A43F00103E9
:1022600013630E4B1B6B03F00103FB60FB684FF421
:10227000C0637B610223BB610023FB6103233B62DC
:1022800007237B6207F114031946054800F07EFE20
:1022900000BF2837BD4680BD001001400038024015
:1022A0000000024080B400AF00BFFDE780B400AF83
:1022B00000BFFDE780B400AF00BFFDE780B400AF12
:1022C00000BFFDE780B400AF00BFFDE780B400AF02
:1022D00000BFBD465DF8047B704780B400AF00BF0F
:1022E000BD465DF8047B704780B400AF00BFBD46BB
:1022F0005DF8047B7047000080B500AF0B4B1B8876
:10230000002B05D0094B1B88013B9AB2074B1A8062
:10231000074B1B88002B05D0054B1B88013B9AB24D
:10232000034B1A8000F05AF900BF80BD080200205C
:102330000A02002080B400AF01231846BD465DF8B4
:10234000047B704780B582B000AF7860396006F0DA
:10235000BDFD034616221A604FF0FF3318460837BA
:10236000BD4680BD80B582B000AF78604FF0FF31D0
:102370007868FFF7E7FF00BFFDE780B586B000AFE4
:10238000F860B9607A6000237B610AE0AFF30080F7
:102390000146BB685A1CBA60CAB21A707B69013325
:1023A0007B617A697B689A42F0DB7B681846183754
:1023B000BD4680BD80B586B000AFF860B9607A6078
:1023C00000237B6109E0BB685A1CBA601B78184681
:1023D000AFF300807B6901337B617A697B689A4245
:1023E000F1DB7B6818461837BD4680BD80B483B0EA
:1023F00000AF78604FF0FF3318460C37BD465DF8EC
:10240000047B704780B483B000AF786039603B686C
:102410004FF400525A60002318460C37BD465DF851
:10242000047B704780B483B000AF78600123184606
:102430000C37BD465DF8047B704780B485B000AFB3
:10244000F860B9607A60002318461437BD465DF81D
:10245000047B704780B586B000AF7860144A154B96
:10246000D31A7B617B693B61134B1B68002B02D144
:10247000114B124A1A60104B1A687B6813443A6970
:102480009A4207D206F022FD03460C221A604FF052
:10249000FF3309E0084B1B68FB60074B1A687B6839
:1024A0001344054A1360FB6818461837BD4680BDC3
:1024B00000000120000400003C060020D00900209C
:1024C00080B400AF064BD3F88830054A43F470035C
:1024D000C2F8883000BFBD465DF8047B704700BF7E
:1024E00000ED00E0DFF834D0FFF7EAFF0C480D49BB
:1024F0000D4A002302E0D458C4500433C4188C425F
:10250000F9D30A4A0A4C002301E013600432A242C4
:10251000FBD306F0E1FCFFF75FFB704700000120F2
:1025200000000020EC01002004D00008EC01002095
:10253000CC090020FEE7000080B500AF0E4B1B6801
:102540000D4A43F4007313600B4B1B680A4A43F4B3
:1025500080631360084B1B68074A43F48073136061
:10256000032000F0DFFC0F2000F008F8FFF79EFDCD
:102570000023184680BD00BF003C024080B582B0F9
:1025800000AF7860124B1A68124B1B7819464FF453
:102590007A73B3FBF1F3B2FBF3F3184600F0E9FCF6
:1025A0000346002B01D001230EE07B680F2B0AD8D5
:1025B000002279684FF0FF3000F0BFFC064A7B68CC
:1025C0001360002300E0012318460837BD4680BD94
:1025D000040000200C0000200800002080B400AFA0
:1025E000064B1B781A46064B1B681344044A1360BB
:1025F00000BFBD465DF8047B704700BF0C000020A3
:102600004006002080B400AF034B1B681846BD464F
:102610005DF8047B704700BF4006002080B584B0A1
:1026200000AF7860FFF7EEFFB8607B68FB60FB6887
:10263000B3F1FF3F05D00A4B1B781A46FB681344E1
:10264000FB6000BFFFF7DEFF0246BB68D31AFA68E3
:102650009A42F7D800BF00BF1037BD4680BD00BF0B
:102660000C00002080B584B000AF78600023FB73BD
:102670007B68002B01D1012333E07B681B6C002BAE
:1026800009D17868FFF73AFD7B6800225A647B68BD
:10269000002283F83C207B681B6C03F01003002BA6
:1026A00018D17B681B6C23F4885323F0020343F09A
:1026B00002027B681A64786800F086FA7B68002260
:1026C0005A647B681B6C23F0030343F001027B68B0
:1026D0001A6401E00123FB737B68002283F83C202D
:1026E000FB7B18461037BD4680BD000080B485B026
:1026F00000AF78600023BB607B6893F83C30012B0F
:1027000001D1022397E07B68012283F83C207B689B
:102710001B689B6803F00103012B18D07B681B68C2
:102720009A687B681B6842F001029A60454B1B68FF
:10273000454AA2FB03239A0C13465B001344BB607B
:1027400002E0BB68013BBB60BB68002BF9D17B6832
:102750001B689B6803F00103012B5FD17B681B6C36
:1027600023F4E06323F0010343F480727B681A646E
:102770007B681B685B6803F48063002B07D07B6871
:102780001B6C23F4405343F480527B681A647B68CB
:102790001B6C03F48053B3F5805F06D17B685B6CE0
:1027A00023F006027B685A6402E07B6800225A64C8
:1027B0007B68002283F83C20244BFB607B681B680D
:1027C0006FF022021A60FB685B6803F01F03002BA6
:1027D0000FD17B681B689B6803F04053002B29D105
:1027E0007B681B689A687B681B6842F080429A602D
:1027F00020E07B681B68164A93421BD17B681B68EC
:102800009B6803F04053002B14D17B681B689A68C7
:102810007B681B6842F080429A600BE07B681B6C0F
:1028200043F010027B681A647B685B6C43F0010222
:102830007B685A64002318461437BD465DF8047B54
:10284000704700BF0400002083DE1B4300230140CB
:102850000020014080B584B000AF7860396000236B
:10286000FB607B681B689B6803F48063B3F5806F33
:1028700013D17B681B689B6803F48073B3F5807F7A
:102880000BD17B681B6C43F020027B681A647B6869
:10289000002283F83C20012363E0FFF7B3FEF860D9
:1028A00021E03B68B3F1FF3F1DD03B68002B07D010
:1028B000FFF7A8FE0246FB68D31A3A689A4212D282
:1028C0007B681B681B6803F00203022B0BD07B683C
:1028D0001B6C43F004027B681A647B68002283F857
:1028E0003C2003233DE07B681B681B6803F0020368
:1028F000022BD6D17B681B686FF012021A607B68CE
:102900001B6C43F400727B681A647B681B689B68CD
:1029100003F04053002B23D17B681B7E002B1FD17B
:102920007B681B68DB6A03F47003002B06D07B68AE
:102930001B689B6803F48063002B11D17B681B6CC0
:1029400023F480727B681A647B681B6C03F48053E9
:10295000002B05D17B681B6C43F001027B681A6475
:10296000002318461037BD4680BD80B483B000AF49
:1029700078607B681B68DB6C18460C37BD465DF8D9
:10298000047B704780B485B000AF78603960002365
:10299000BB607B6893F83C30012B01D1022305E139
:1029A0007B68012283F83C203B681B68092B25D9F2
:1029B0007B681B68D9683B681B689BB21A46134644
:1029C0005B0013441E3B072202FA03F3DA437B68E1
:1029D0001B680A40DA607B681B68D9683B689A68A4
:1029E0003B681B689BB2184603465B0003441E3BD2
:1029F0009A407B681B680A43DA6022E07B681B68A8
:102A000019693B681B689BB21A4613465B00134466
:102A1000072202FA03F3DA437B681B680A401A6153
:102A20007B681B6819693B689A683B681B689BB2A6
:102A3000184603465B0003449A407B681B680A43C0
:102A40001A613B685B68062B24D87B681B68596B4E
:102A50003B685A6813469B001344053B1F2202FA49
:102A600003F3DA437B681B680A405A637B681B6880
:102A7000596B3B681B689BB218463B685A68134603
:102A80009B001344053B00FA03F27B681B680A4372
:102A90005A634CE03B685B680C2B24D87B681B684E
:102AA000196B3B685A6813469B001344233B1F2253
:102AB00002FA03F3DA437B681B680A401A637B68F7
:102AC0001B68196B3B681B689BB218463B685A68C9
:102AD00013469B001344233B00FA03F27B681B68F8
:102AE0000A431A6323E07B681B68D96A3B685A680B
:102AF00013469B001344413B1F2202FA03F3DA43BF
:102B00007B681B680A40DA627B681B68D96A3B688D
:102B10001B689BB218463B685A6813469B001344D7
:102B2000413B00FA03F27B681B680A43DA62224BDE
:102B3000FB607B681B68214A934209D13B681B6894
:102B4000122B05D1FB685B6843F48002FB685A6076
:102B50007B681B68194A934223D13B681B68102B82
:102B600003D03B681B68112B1BD1FB685B6843F4E7
:102B70000002FB685A603B681B68102B11D1104B98
:102B80001B68104AA2FB03239A0C13469B001344B4
:102B90005B00BB6002E0BB68013BBB60BB68002B15
:102BA000F9D17B68002283F83C20002318461437B3
:102BB000BD465DF8047B70470023014000200140C2
:102BC0000400002083DE1B4380B485B000AF786032
:102BD000794BFB60FB685B6823F44032FB685A600A
:102BE000FB685A687B685B681A43FB685A607B68BD
:102BF0001B685A687B681B6822F480725A607B6885
:102C00001B6859687B681B691A027B681B680A434A
:102C10005A607B681B685A687B681B6822F04072A8
:102C20005A607B681B6859687B689A687B681B6878
:102C30000A435A607B681B689A687B681B6822F4A9
:102C400000629A607B681B6899687B68DA687B68B9
:102C50001B680A439A607B689B6A584A934222D059
:102C60007B681B689A687B681B6822F070629A60B8
:102C70007B681B6899687B689A6A7B681B680A4353
:102C80009A607B681B689A687B681B6822F04052D8
:102C90009A607B681B6899687B68DA6A7B681B6846
:102CA0000A439A600FE07B681B689A687B681B6820
:102CB00022F070629A607B681B689A687B681B6868
:102CC00022F040529A607B681B689A687B681B6898
:102CD00022F002029A607B681B6899687B681B7E01
:102CE0005A007B681B680A439A607B6893F820301F
:102CF000002B1BD07B681B685A687B681B6842F4FA
:102D000000625A607B681B685A687B681B6822F403
:102D100060425A607B681B6859687B685B6A013B4C
:102D20005A037B681B680A435A6007E07B681B688C
:102D30005A687B681B6822F400625A607B681B68D3
:102D4000DA6A7B681B6822F47002DA627B681B68AF
:102D5000D96A7B68DB69013B1A057B681B680A43FB
:102D6000DA627B681B689A687B681B6822F40072D1
:102D70009A607B681B6899687B6893F830305A02C8
:102D80007B681B680A439A607B681B689A687B684B
:102D90001B6822F480629A607B681B6899687B6874
:102DA0005B699A027B681B680A439A6000BF14370C
:102DB000BD465DF8047B7047002301400100000F11
:102DC00080B485B000AF78607B6803F00703FB60D8
:102DD0000C4BDB68BB60BA684FF6FF031340BB6067
:102DE000FB681A02BB68134343F0BF6343F400332C
:102DF000BB60044ABB68D36000BF1437BD465DF8B2
:102E0000047B704700ED00E080B400AF044BDB684A
:102E10001B0A03F007031846BD465DF8047B7047A4
:102E200000ED00E080B483B000AF03463960FB7171
:102E300097F90730002B0ADB3B68DAB20C4997F9A7
:102E400007301201D2B20B4483F800230AE03B683A
:102E5000DAB20849FB7903F00F03043B1201D2B246
:102E60000B441A7600BF0C37BD465DF8047B7047F3
:102E700000E100E000ED00E080B489B000AFF86050
:102E8000B9607A60FB6803F00703FB61FB69C3F17B
:102E90000703042B28BF0423BB61FB690433062B03
:102EA00002D9FB69033B00E000237B614FF0FF3256
:102EB000BB6902FA03F3DA43BB681A407B699A40A4
:102EC0004FF0FF317B6901FA03F3D9437B680B4074
:102ED000134318462437BD465DF8047B7047000055
:102EE00080B582B000AF78607B68013BB3F1807F32
:102EF00001D301230FE00A4A7B68013B53600F2195
:102F00004FF0FF30FFF78EFF054B00229A60044B15
:102F100007221A60002318460837BD4680BD00BF4F
:102F200010E000E080B582B000AF78607868FFF70D
:102F300047FF00BF0837BD4680BD80B586B000AFF3
:102F40000346B9607A60FB7300237B61FFF75CFF87
:102F500078617A68B9687869FFF78EFF024697F959
:102F60000F3011461846FFF75DFF00BF1837BD460A
:102F700080BD80B582B000AF78607868FFF7B0FFA1
:102F8000034618460837BD4680BD000080B489B0AE
:102F900000AF7860396000237B6100233B61002330
:102FA000BB610023FB6159E10122FB6902FA03F3D3
:102FB0007B613B681B687A6913403B613A697B69B6
:102FC0009A4240F048813B685B6803F00303012BA1
:102FD00005D03B685B6803F00303022B30D17B68AC
:102FE0009B68BB61FB695B00032202FA03F3DB43CE
:102FF000BA691340BB613B68DA68FB695B0002FA9F
:1030000003F3BA691343BB617B68BA699A607B6852
:103010005B68BB610122FB6902FA03F3DB43BA6917
:103020001340BB613B685B681B0903F00102FB694D
:1030300002FA03F3BA691343BB617B68BA695A6049
:103040003B685B6803F00303032B17D07B68DB68E6
:10305000BB61FB695B00032202FA03F3DB43BA693D
:103060001340BB613B689A68FB695B0002FA03F39B
:10307000BA691343BB617B68BA69DA603B685B6815
:1030800003F00303022B23D1FB69DA087B680832C3
:1030900053F82230BB61FB6903F007039B000F224A
:1030A00002FA03F3DB43BA691340BB613B681A6958
:1030B000FB6903F007039B0002FA03F3BA691343A9
:1030C000BB61FB69DA087B680832B96943F82210F2
:1030D0007B681B68BB61FB695B00032202FA03F398
:1030E000DB43BA691340BB613B685B6803F00302D2
:1030F000FB695B0002FA03F3BA691343BB617B68A7
:10310000BA691A603B685B6803F44033002B00F037
:10311000A2800023FB60574B5B6C564A43F480430C
:103120005364544B5B6C03F48043FB60FB68524A6E
:10313000FB699B08023352F82330BB61FB6903F043
:1031400003039B000F2202FA03F3DB43BA69134027
:10315000BB617B68494A934219D07B68484A9342D5
:1031600013D07B68474A93420DD07B68464A93420E
:1031700007D07B68454A934201D1042308E0072326
:1031800006E0032304E0022302E0012300E0002321
:10319000FA6902F0030292009340BA691343BB61DB
:1031A0003549FB699B080233BA6941F82320384B43
:1031B0009B68BB613B69DB43BA691340BB613B68F9
:1031C0005B6803F48013002B03D0BA693B69134397
:1031D000BB612F4ABB6993602D4BDB68BB613B69C8
:1031E000DB43BA691340BB613B685B6803F40013BF
:1031F000002B03D0BA693B691343BB61244ABB6906
:10320000D360234B5B68BB613B69DB43BA69134006
:10321000BB613B685B6803F40033002B03D0BA69E1
:103220003B691343BB611A4ABB695360184B1B6867
:10323000BB613B69DB43BA691340BB613B685B68B8
:1032400003F48033002B03D0BA693B691343BB619D
:103250000F4ABB691360FB690133FB61FB690F2BEC
:103260007FF6A2AE00BF00BF2437BD465DF8047BE9
:10327000704700BF003802400038014000000240A3
:103280000004024000080240000C0240001002400E
:10329000003C014080B485B000AF78600B467B8075
:1032A0007B681A697B881340002B02D00123FB73D3
:1032B00001E00023FB73FB7B18461437BD465DF825
:1032C000047B704780B483B000AF78600B467B808E
:1032D00013467B707B78002B03D07A887B689A61D9
:1032E00003E07B881A047B689A6100BF0C37BD46F7
:1032F0005DF8047B704780B485B000AF78600B4602
:103300007B807B685B69FB607A88FB6813401A04EA
:10331000FB68D9437B880B401A437B689A6100BFE6
:103320001437BD465DF8047B7047000080B586B059
:1033300000AF78607B68002B01D1012367E27B68D6
:103340001B6803F00103002B75D0884B9B6803F0CA
:103350000C03042B0CD0854B9B6803F00C03082B4B
:1033600012D1824B5B6803F48003B3F5800F0BD15D
:103370007E4B1B6803F40033002B5BD07B685B68DB
:10338000002B57D1012342E27B685B68B3F5803F95
:1033900006D1764B1B68754A43F4803313601DE0F9
:1033A0007B685B68B3F5A02F0CD1704B1B686F4A2C
:1033B00043F4802313606D4B1B686C4A43F48033E5
:1033C00013600BE0694B1B68684A23F48033136079
:1033D000664B1B68654A23F4802313607B685B6837
:1033E000002B13D0FFF70EF9386108E0FFF70AF958
:1033F00002463B69D31A642B01D9032307E25B4BD6
:103400001B6803F40033002BF0D014E0FFF7FAF848
:10341000386108E0FFF7F6F802463B69D31A642BDF
:1034200001D90323F3E1514B1B6803F40033002B54
:10343000F0D100E000BF7B681B6803F00203002BA3
:1034400063D04A4B9B6803F00C03002B0BD0474B17
:103450009B6803F00C03082B1CD1444B5B6803F4FE
:103460008003002B16D1414B1B6803F00203002B95
:1034700005D07B68DB68012B01D00123C7E13B4B02
:103480001B6823F0F8027B681B69DB003749134394
:103490000B603AE07B68DB68002B20D0344B0122C4
:1034A0001A60FFF7AFF8386108E0FFF7ABF80246A3
:1034B0003B69D31A022B01D90323A8E12B4B1B68CC
:1034C00003F00203002BF0D0284B1B6823F0F80216
:1034D0007B681B69DB00254913430B6015E0244B17
:1034E00000221A60FFF78EF8386108E0FFF78AF8CB
:1034F00002463B69D31A022B01D9032387E11B4BF8
:103500001B6803F00203002BF0D17B681B6803F0FB
:103510000803002B36D07B685B69002B16D0154B57
:1035200001221A60FFF76EF8386108E0FFF76AF8C9
:1035300002463B69D31A022B01D9032367E10B4BE7
:103540005B6F03F00203002BF0D01BE0094B00225D
:103550001A60FFF757F838610EE0FFF753F802469C
:103560003B69D31A022B07D9032350E100380240EC
:1035700000004742800E4742884B5B6F03F0020316
:10358000002BEAD17B681B6803F00403002B00F0DA
:1035900097800023FB75814B1B6C03F08053002B3D
:1035A0000FD10023BB607D4B1B6C7C4A43F08053E2
:1035B00013647A4B1B6C03F08053BB60BB68012320
:1035C000FB75774B1B6803F48073002B18D1744B89
:1035D0001B68734A43F480731360FFF713F8386174
:1035E00008E0FFF70FF802463B69D31A022B01D916
:1035F00003230CE16A4B1B6803F48073002BF0D0AB
:103600007B689B68012B06D1644B1B6F634A43F0B8
:10361000010313671CE07B689B68052B0CD15F4B93
:103620001B6F5E4A43F0040313675C4B1B6F5B4ADE
:1036300043F0010313670BE0584B1B6F574A23F00D
:1036400001031367554B1B6F544A23F004031367A0
:103650007B689B68002B15D0FEF7D4FF38610AE029
:10366000FEF7D0FF02463B69D31A41F288329342FB
:1036700001D90323CBE0494B1B6F03F00203002B5E
:10368000EED014E0FEF7BEFF38610AE0FEF7BAFFA5
:1036900002463B69D31A41F28832934201D903238F
:1036A000B5E03E4B1B6F03F00203002BEED1FB7D18
:1036B000012B05D1394B1B6C384A23F0805313641E
:1036C0007B689B69002B00F0A180344B9B6803F062
:1036D0000C03082B5CD07B689B69022B41D1314BDA
:1036E00000221A60FEF78EFF386108E0FEF78AFFBD
:1036F00002463B69D31A022B01D9032387E0274BEB
:103700001B6803F00073002BF0D17B68DA697B68DB
:103710001B6A1A437B685B6A9B011A437B689B6A3E
:103720005B08013B1B041A437B68DB6A1B061B49D1
:1037300013434B601B4B01221A60FEF763FF386195
:1037400008E0FEF75FFF02463B69D31A022B01D95E
:1037500003235CE0114B1B6803F00073002BF0D0D7
:1037600054E0104B00221A60FEF74CFF386108E06D
:10377000FEF748FF02463B69D31A022B01D9032307
:1037800045E0064B1B6803F00073002BF0D13DE0D1
:103790007B689B69012B07D1012338E00038024088
:1037A00000700040600047421B4B5B68FB607B6819
:1037B0009B69012B28D0FB6803F480027B68DB69DE
:1037C0009A4221D1FB6803F03F027B681B6A9A4250
:1037D0001AD1FA6847F6C07313407A68526A9201A8
:1037E000934211D1FB6803F440327B689B6A5B080B
:1037F000013B1B049A4207D1FB6803F070627B68AF
:10380000DB6A1B069A4201D0012300E00023184620
:103810001837BD4680BD00BF0038024080B584B077
:1038200000AF786039607B68002B01D10123CCE0C8
:10383000684B1B6803F007033A689A420CD9654B42
:103840003A68D2B21A70634B1B6803F007033A68F8
:103850009A4201D00123B8E07B681B6803F00203A1
:10386000002B20D07B681B6803F00403002B05D0DD
:10387000594B9B68584A43F4E05393607B681B683C
:1038800003F00803002B05D0534B9B68524A43F4C6
:1038900060439360504B9B6823F0F0027B689B6809
:1038A0004D4913438B607B681B6803F00103002BB9
:1038B00044D07B685B68012B07D1474B1B6803F43E
:1038C0000033002B19D101237FE07B685B68022B5A
:1038D00003D07B685B68032B07D13F4B1B6803F069
:1038E0000073002B09D101236FE03B4B1B6803F0F1
:1038F0000203002B01D1012367E0374B9B6823F0C3
:1039000003027B685B68344913438B60FEF77AFEE1
:10391000F8600AE0FEF776FE0246FB68D31A41F231
:103920008832934201D903234FE02B4B9B6803F06D
:103930000C027B685B689B009A42EBD1254B1B68AD
:1039400003F007033A689A420CD2224B3A68D2B28B
:103950001A70204B1B6803F007033A689A4201D0A3
:10396000012332E07B681B6803F00403002B08D0BE
:10397000194B9B6823F4E0527B68DB6816491343BC
:103980008B607B681B6803F00803002B09D0124B87
:103990009B6823F460427B681B69DB000E4913437C
:1039A0008B6000F021F802460B4B9B681B0903F06B
:1039B0000F030A49CB5C22FA03F3094A1360094B4F
:1039C0001B681846FEF7DAFD002318461037BD467F
:1039D00080BD00BF003C02400038024074C70008B0
:1039E00004000020080000202DE9B04F90B000AF87
:1039F00000237B630023FB6300233B630023BB6343
:103A0000594B9B6803F00C03082B0DD0082B00F2D8
:103A1000A180002B02D0042B03D09BE0534BBB634F
:103A20009BE0534BBB6398E04F4B5B6803F03F0355
:103A30007B634D4B5B6803F48003002B28D04A4B1B
:103A40005B689B0900223B627A623B6AC3F3080011
:103A50000021474B03FB01F2002300FB03F3134457
:103A6000434AA0FB0212FA620A46BA62FA6A134497
:103A7000FB627B6B0022BB61FA61D7E90623D7E9C1
:103A80000A01FDF709F902460B461346FB6353E0B2
:103A9000354B5B689B0900223B617A613B69C3F34C
:103AA000080A4FF0000B52465B464FF000004FF003
:103AB0000001590141EAD261500102460B46B2EBC6
:103AC0000A0863EB0B094FF000024FF000034FEAC6
:103AD000891343EA98634FEA8812B2EB080463EB58
:103AE00009054FF000024FF00003EB0043EA547366
:103AF000E20014461D4614EB0A033B6045EB0B0342
:103B00007B604FF000024FF00003D7E900452946E3
:103B10008B02214643EA915321468A0210461946F8
:103B20007B6B0022BB60FA60D7E90223FDF7B4F893
:103B300002460B461346FB630B4B5B681B0C03F002
:103B4000030301335B003B63FA6B3B6BB2FBF3F3A4
:103B5000BB6302E0054BBB6300BFBB6B184640373D
:103B6000BD46BDE8B08F00BF003802400024F4001D
:103B700040787D0180B400AF034B1B681846BD46FA
:103B80005DF8047B704700BF0400002080B500AFE3
:103B9000FFF7F0FF0246054B9B689B0A03F0070303
:103BA0000349CB5C22FA03F3184680BD003802407B
:103BB00084C7000880B500AFFFF7DCFF0246054B65
:103BC0009B685B0B03F007030349CB5C22FA03F30A
:103BD000184680BD0038024084C7000880B582B016
:103BE00000AF78607B68002B01D101237BE07B680C
:103BF0005B6A002B08D17B685B68B3F5827F09D0D4
:103C00007B680022DA6105E07B6800221A617B682C
:103C100000225A617B6800229A627B6893F85130D7
:103C2000DBB2002B06D17B68002283F85020786835
:103C3000FEF7A8FA7B68022283F851207B681B6894
:103C40001A687B681B6822F040021A607B685B6818
:103C500003F482727B689B6803F404431A437B6815
:103C6000DB6803F400631A437B681B6903F00203FB
:103C70001A437B685B6903F001031A437B689B6905
:103C800003F400731A437B68DB6903F038031A43BB
:103C90007B681B6A03F0800342EA03017B689B6A2E
:103CA00003F400527B681B680A431A607B689B69B7
:103CB0001B0C03F004017B685B6A03F010027B6855
:103CC0001B680A435A607B681B68DA697B681B685B
:103CD00022F40062DA617B6800225A657B68012267
:103CE00083F85120002318460837BD4680BD80B5B3
:103CF00088B000AFF860B9603B601346FB800023DA
:103D0000FB77FB6893F85030012B01D102232DE1A2
:103D1000FB68012283F85020FEF774FCB861FB8831
:103D2000FB82FB6893F85130DBB2012B02D00223F7
:103D3000FB7716E1BB68002B02D0FB88002B02D179
:103D40000123FB770DE1FB68032283F85120FB6818
:103D500000225A65FB68BA681A63FB68FA889A867B
:103D6000FB68FA88DA86FB6800229A63FB68002207
:103D70009A87FB680022DA87FB6800225A64FB6896
:103D800000221A64FB689B68B3F5004F0FD1FB68F3
:103D90001B681A68FB681B6822F040021A60FB6807
:103DA0001B681A68FB681B6842F480421A60FB6853
:103DB0001B681B6803F04003402B07D0FB681B689F
:103DC0001A68FB681B6842F040021A60FB68DB68F7
:103DD000B3F5006F4FD1FB685B68002B02D0FB8A04
:103DE000012B42D1FB681B6B1A88FB681B68DA60E9
:103DF000FB681B6B9A1CFB681A63FB68DB8E9BB22B
:103E0000013B9AB2FB68DA862FE0FB681B689B686F
:103E100003F00203022B12D1FB681B6B1A88FB68AC
:103E20001B68DA60FB681B6B9A1CFB681A63FB68F3
:103E3000DB8E9BB2013B9AB2FB68DA8615E0FEF797
:103E4000E1FB0246BB69D31A3A689A4203D83B6841
:103E5000B3F1FF3F02D13B68002B06D10323FB7770
:103E6000FB68012283F851207BE0FB68DB8E9BB26C
:103E7000002BCAD150E0FB685B68002B02D0FB8AA4
:103E8000012B44D1FB681A6BFB681B680C3312785A
:103E90001A70FB681B6B5A1CFB681A63FB68DB8E8D
:103EA0009BB2013B9AB2FB68DA8630E0FB681B6884
:103EB0009B6803F00203022B13D1FB681A6BFB68AB
:103EC0001B680C3312781A70FB681B6B5A1CFB685A
:103ED0001A63FB68DB8E9BB2013B9AB2FB68DA8601
:103EE00015E0FEF78FFB0246BB69D31A3A689A4287
:103EF00003D83B68B3F1FF3F02D13B68002B06D1EA
:103F00000323FB77FB68012283F8512029E0FB683B
:103F1000DB8E9BB2002BC9D1BA693968F86800F012
:103F200061FA0346002B02D0FB6820225A65FB6829
:103F30009B68002B0AD100233B61FB681B68DB6890
:103F40003B61FB681B689B683B613B69FB685B6D81
:103F5000002B02D00123FB7703E0FB68012283F8EA
:103F60005120FB68002283F85020FB7F1846203741
:103F7000BD4680BD80B58CB000AFF860B9607A6096
:103F80007B800123FB62002387F82B30FB6893F8CA
:103F90005030012B01D1022398E1FB68012283F804
:103FA0005020FEF72FFB7862FB6893F8513087F8BA
:103FB0002330FB685B68FB617B887B8397F8233049
:103FC000012B0FD0FB69B3F5827F07D1FB689B689B
:103FD000002B03D197F82330042B03D0022387F85A
:103FE0002B306DE1BB68002B05D07B68002B02D025
:103FF0007B88002B03D1012387F82B3060E1FB681D
:1040000093F85130DBB2042B03D0FB68052283F810
:104010005120FB6800225A65FB687A689A63FB6846
:104020007A88DA87FB687A889A87FB68BA681A63A5
:10403000FB687A88DA86FB687A889A86FB680022B1
:104040001A64FB6800225A64FB681B681B6803F053
:104050004003402B07D0FB681B681A68FB681B688D
:1040600042F040021A60FB68DB68B3F5006F7CD158
:10407000FB685B68002B02D07B8B012B6AD1FB684D
:104080001B6B1A88FB681B68DA60FB681B6B9A1C49
:10409000FB681A63FB68DB8E9BB2013B9AB2FB683C
:1040A000DA8657E0FB681B689B6803F00203022B6B
:1040B0001BD1FB68DB8E9BB2002B16D0FB6A012B59
:1040C00013D1FB681B6B1A88FB681B68DA60FB68FE
:1040D0001B6B9A1CFB681A63FB68DB8E9BB2013B6F
:1040E0009AB2FB68DA860023FB62FB681B689B6858
:1040F00003F00103012B19D1FB68DB8F9BB2002B6E
:1041000014D0FB681B68DA68FB689B6B92B21A805C
:10411000FB689B6B9A1CFB689A63FB68DB8F9BB206
:10412000013B9AB2FB68DA870123FB62FEF76AFA69
:1041300002467B6AD31ABA6B9A420BD8BB6BB3F1B7
:10414000FF3F07D0032387F82B30FB68012283F859
:104150005120B5E0FB68DB8E9BB2002BA2D1FB683F
:10416000DB8F9BB2002B9DD180E0FB685B68002B4E
:1041700002D07B8B012B6FD1FB681A6BFB681B682D
:104180000C3312781A70FB681B6B5A1CFB681A639D
:10419000FB68DB8E9BB2013B9AB2FB68DA865BE080
:1041A000FB681B689B6803F00203022B1CD1FB68B1
:1041B000DB8E9BB2002B17D0FB6A012B14D1FB685E
:1041C0001A6BFB681B680C3312781A70FB681B6B48
:1041D0005A1CFB681A63FB68DB8E9BB2013B9AB2E8
:1041E000FB68DA860023FB62FB681B689B6803F0B0
:1041F0000103012B19D1FB68DB8F9BB2002B14D07C
:10420000FB681B68DA68FB689B6BD2B21A70FB68AC
:104210009B6B5A1CFB689A63FB68DB8F9BB2013B6C
:104220009AB2FB68DA870123FB62FEF7EBF90246DC
:104230007B6AD31ABA6B9A4203D8BB6BB3F1FF3FC8
:1042400002D1BB6B002B07D1032387F82B30FB680F
:10425000012283F8512033E0FB68DB8E9BB2002BF8
:104260009ED1FB68DB8F9BB2002B99D17A6AB96B28
:10427000F86800F0B7F80346002B06D0012387F852
:104280002B30FB6820225A651AE0FB689B68002BE4
:104290000AD100237B61FB681B68DB687B61FB68DC
:1042A0001B689B687B617B69FB685B6D002B03D09F
:1042B000012387F82B3003E0FB68012283F85120AB
:1042C000FB68002283F8502097F82B3018463037CF
:1042D000BD4680BD80B588B000AFF860B9603B6076
:1042E0001346FB71FEF78EF90246BB6A9B1A3A68C9
:1042F0001344FB61FEF786F9B861394B1B685B011B
:104300001B0DFA6902FB03F37B6154E03B68B3F1D8
:10431000FF3F50D0FEF776F90246BB69D31AFA691F
:104320009A4202D9FB69002B3DD1FB681B685A6891
:10433000FB681B6822F0E0025A60FB685B68B3F51B
:10434000827F11D1FB689B68B3F5004F04D0FB68F6
:104350009B68B3F5806F07D1FB681B681A68FB6820
:104360001B6822F040021A60FB689B6AB3F5005F8D
:104370000FD1FB681B681A68FB681B6822F40052A7
:104380001A60FB681B681A68FB681B6842F40052DD
:104390001A60FB68012283F85120FB68002283F831
:1043A0005020032317E07B69002B01D10023FB6120
:1043B0007B69013B7B61FB681B689A68BB681340A3
:1043C000BA689A420CBF01230023DBB21A46FB797C
:1043D0009A429BD1002318462037BD4680BD00BFBE
:1043E0000400002080B588B002AFF860B9607A6040
:1043F0007B680093BB6801220221F868FFF76AFF1F
:104400000346002B07D0FB685B6D43F02002FB687E
:104410005A65032332E01B4B1B681B4AA2FB032394
:104420005B0D4FF47A7202FB03F37B61FB685B6800
:10443000B3F5827F12D17B680093BB680022802194
:10444000F868FFF747FF0346002B16D0FB685B6D4B
:1044500043F02002FB685A6503230FE07B69002BC1
:104460000AD07B69013B7B61FB681B689B6803F09A
:104470008003802BF2D000E000BF002318461837DD
:10448000BD4680BD04000020819F5E1680B582B0CD
:1044900000AF78607B68002B01D1012342E07B688C
:1044A00093F84130DBB2002B06D17B68002283F801
:1044B00040207868FDF7AEFE7B68242283F8412017
:1044C0007B681B68DA687B681B6822F40052DA603C
:1044D000786800F073F97B681B681A697B681B6851
:1044E00022F490421A617B681B685A697B681B68DA
:1044F00022F02A025A617B681B68DA687B681B68B5
:1045000042F40052DA607B6800225A647B68202201
:1045100083F841207B68202283F842207B680022B8
:104520005A63002318460837BD4680BD80B58AB05F
:1045300002AFF860B9603B601346FB8000237B61EB
:10454000FB6893F84130DBB2202B75D1BB68002BA0
:1045500002D0FB88002B01D101236EE0FB68002212
:104560005A64FB68212283F84120FEF74BF87861FA
:10457000FB68FA889A84FB68FA88DA84FB689B688F
:10458000B3F5805F08D1FB681B69002B04D10023C1
:10459000FB61BB68BB6103E0BB68FB610023BB61DF
:1045A0002EE03B6800937B6900228021F86800F0D0
:1045B00048F80346002B05D0FB68202283F84120F1
:1045C00003233AE0FB69002B0BD1BB691B881A4619
:1045D000FB681B68C2F308025A60BB690233BB6107
:1045E00007E0FB691A78FB681B685A60FB690133B6
:1045F000FB61FB68DB8C9BB2013B9AB2FB68DA84FF
:10460000FB68DB8C9BB2002BCBD13B6800937B69B2
:1046100000224021F86800F014F80346002B05D072
:10462000FB68202283F84120032306E0FB68202258
:1046300083F84120002300E0022318462037BD46BE
:1046400080BD80B586B000AFF860B9603B601346AE
:10465000FB713BE03B6AB3F1FF3F37D0FDF7D2FF80
:1046600002463B68D31A3A6A9A4202D33B6A002B4D
:1046700001D103233AE0FB681B68DB6803F0040305
:10468000002B23D0BB68802B20D0BB68402B1DD0D3
:10469000FB681B681B6803F00803082B16D1002376
:1046A0007B61FB681B681B687B61FB681B685B6840
:1046B0007B617B69F86800F01DF8FB6808225A648A
:1046C000FB68002283F8402001230FE0FB681B6891
:1046D0001A68BB681340BA689A420CBF01230023D2
:1046E000DBB21A46FB799A42B4D000231846183739
:1046F000BD4680BD80B495B000AF78607B681B6814
:104700000C337B637B6B53E8003F3B633B6B23F4D1
:104710009073FB647B681B680C33FA6C3A64FB6330
:10472000F96B3A6C41E80023BB63BB6B002BE5D10E
:104730007B681B6814333B623B6A53E8003FFB61B4
:10474000FB6923F00103BB647B681B681433BA6CFC
:10475000FA62BB62B96AFA6A41E800237B627B6A4B
:10476000002BE5D17B681B6B012B19D17B681B6883
:104770000C33FB60FB6853E8003FBB60BB6823F071
:1047800010037B647B681B680C337A6CBA617B61B5
:104790007969BA6941E800233B613B69002BE5D1A7
:1047A0007B68202283F842207B6800221A6300BFC6
:1047B0005437BD465DF8047B704700002DE9B04FCB
:1047C000C0B000AFC7F8F400D7F8F4301B681B691D
:1047D00023F44050D7F8F430D968D7F8F4301A6889
:1047E00040EA01031361D7F8F4309A68D7F8F4303F
:1047F0001B691A43D7F8F4305B691A43D7F8F430D1
:10480000DB691343C7F8F830D7F8F4301B68DB686E
:1048100023F4164121F00C01D7F8F4301A68D7F8C8
:10482000F8300B43D360D7F8F4301B685B6923F48E
:104830004070D7F8F4309969D7F8F4301A6840EA34
:1048400001035361D7F8F4301A688F4B9A4205D0B0
:10485000D7F8F4301A688D4B9A4204D1FFF7AAF9C1
:10486000C7F8FC0003E0FFF791F9C7F8FC00D7F8A0
:10487000F430DB69B3F5004F40F00C81D7F8FC3021
:104880000022C7F8E830C7F8EC20D7E93A452246BD
:104890002B469118B9655B41FB65D7E91623214684
:1048A00012EB0108294643EB01094FF000024FF0DB
:1048B00000034FEAC90343EA58734FEAC80290461F
:1048C0009946234618EB0303C7F8E0302B4649EB23
:1048D0000303C7F8E430D7F8F4305B680022C7F868
:1048E000D830C7F8DC20D7E936120B46DB183B6519
:1048F000134642EB03037B65D7E91423D7E938015C
:10490000FCF7CAF902460B46614BA3FB02235B0985
:104910001C01D7F8FC300022C7F8D030C7F8D420EB
:10492000D7E9348942464B469118B9645B41FB6430
:10493000D7E91223414612EB010A494643EB010B2A
:104940004FF000024FF000034FEACB0343EA5A73E3
:104950004FEACA0292469B4643461AEB0303C7F846
:10496000C8304B464BEB0303C7F8CC30D7F8F430D4
:104970005B680022C7F8C030C7F8C420D7E93012FE
:104980000B46DB183B64134642EB03037B64D7E919
:104990001023D7E93201FCF77FF902460B46114696
:1049A0003B4BA3FB01235B09642202FB03F3CB1AFD
:1049B000DB0003F13202364BA3FB02235B095B00F1
:1049C00003F4F8731C44D7F8FC300022C7F8B83061
:1049D000C7F8BC20D7E92E8942464B469118B963E7
:1049E0005B41FB63D7E90E234146511839634946C1
:1049F0004B417B634FF000024FF00003D7E90CAB53
:104A00005946CB00514643EA51735146CA001046FD
:104A10001946034642469B18C7F8B0304B460A4633
:104A200042EB0303C7F8B430D7F8F4305B680022D8
:104A3000C7F8A830C7F8AC20D7E92A120B46DB1814
:104A4000BB62134642EB0303FB62D7E90A23D7E9B3
:104A50002C01FCF721F902460B460D4BA3FB021378
:104A60005B09642101FB03F3D31ADB003233084AEC
:104A7000A2FB03235B0903F00702D7F8F4301B689D
:104A800022449A6006E100BF00100140001401407A
:104A90001F85EB51D7F8FC300022C7F8A030C7F8CB
:104AA000A420D7E9288942464B46911839625B41D8
:104AB0007B62D7E9082341465418494643EB010578
:104AC0004FF000024FF00003EB0043EA5473E200A2
:104AD00014461D464346E318C7F898304B4645EB4D
:104AE0000303C7F89C30D7F8F4305B680022C7F89E
:104AF0009030C7F894204FF000024FF00003D7E940
:104B0000244529468B00214643EA917321468A00B9
:104B1000D7E92601FCF7C0F802460B46604BA3FB21
:104B200002235B091C01D7F8FC300022C7F888304B
:104B3000C7F88C20D7E9228942464B469118B961C3
:104B40005B41FB61D7E9062341465118396149466B
:104B50004B417B614FF000024FF00003D7E904ABFB
:104B60005946CB00514643EA51735146CA0010469C
:104B70001946034642469B18C7F880304B460A4602
:104B800042EB0303C7F88430D7F8F4305B680022A7
:104B9000BB67FA674FF000024FF00003D7E91E89A8
:104BA00049468B00414643EA917341468A00D7E962
:104BB0002001FCF771F802460B461146384BA3FB67
:104BC00001235B09642202FB03F3CB1A1B0132337E
:104BD000334AA2FB03235B0903F0F0031C44D7F81C
:104BE000FC3000223B677A67D7E91C8942464B4676
:104BF0009118B9605B41FB60D7E902234146511827
:104C0000396049464B417B604FF000024FF0000392
:104C1000D7E900AB5946CB00514643EA51735146A0
:104C2000CA0010461946034642469B18BB664B46CF
:104C30000A4642EB0303FB66D7F8F4305B680022B8
:104C40003B667A664FF000024FF00003D7E91889FF
:104C500049468B00414643EA917341468A00D7E9B1
:104C60001A01FCF719F802460B460D4BA3FB021381
:104C70005B09642101FB03F3D31A1B013233084A99
:104C8000A2FB03235B0903F00F02D7F8F4301B6883
:104C900022449A6000BF07F58077BD46BDE8B08F1B
:104CA0001F85EB5180B500AF0449054803F05AF861
:104CB00003461A46034B1A7000BF80BD4806002009
:104CC000100000204406002080B400AF00231846E6
:104CD000BD465DF8047B704780B582B000AF0346E7
:104CE000FB71FB791846FCF769FB03461846083749
:104CF000BD4680BD80B582B000AF0346FB71FB7935
:104D00001846FCF741FC034618460837BD4680BDEF
:104D100080B584B000AFB9607A603B600346FB7336
:104D2000F87B3B687A68B968FCF744FC0346184690
:104D30001037BD4680BD80B584B000AFB9607A60E1
:104D40003B600346FB73F87B3B687A68B968FCF705
:104D50009BFC034618461037BD4680BD80B582B027
:104D600000AF03463A60FB710B46BB71B979FB7922
:104D70003A681846FCF70CFD034618460837BD464E
:104D800080BD000080B584B000AF0346FB71FB79A5
:104D9000084A9B0013445B685B68FA7905490A443A
:104DA000127A104698470346FB73FB7B1846103770
:104DB000BD4680BD7408002080B584B000AF0346B6
:104DC000FB710023FB73FB790E4AD35C002B14D1DB
:104DD000FB790C4A9B0013445B681B68FA7909490C
:104DE0000A44127A104698470346FB73FB7B002B5C
:104DF00003D1FB79034A0121D154FB7B18461037BC
:104E0000BD4680BD7408002090B587B000AFB96082
:104E10007A603B600346FB73FB7B0A4A9B001344AA
:104E20005B689C68FB7B074A1344187A3B687A6886
:104E3000B968A0470346FB75FB7D18461C37BD4685
:104E400090BD00BF7408002090B587B000AFB96076
:104E50007A603B600346FB73FB7B0A4A9B0013446A
:104E60005B68DC68FB7B074A1344187A3B687A6806
:104E7000B968A0470346FB75FB7D18461C37BD4645
:104E800090BD00BF7408002080B584B000AF034619
:104E90003A60FB710B46BB71FB79094A9B001344D6
:104EA0005B681B69FA7906490A44107AB9793A684D
:104EB00098470346FB73FB7B18461037BD4680BD01
:104EC0007408002080B485B000AF78607B6801333F
:104ED0001B78FB81B7F90E301B021AB27B681B7876
:104EE0001BB213431BB2FB81FB8918461437BD4626
:104EF0005DF8047B704780B485B000AF78607B6854
:104F000003331B78FB60FB681B027A68023212785D
:104F10001343FB60FB681B027A680132127813436B
:104F2000FB60FB681B027A6812781343FB60FB6826
:104F300018461437BD465DF8047B704780B483B0D3
:104F400000AF78600B467B807B685A1C7A607A8859
:104F5000D2B21A707B881B0A7B807B685A1C7A60ED
:104F60007A88D2B21A7000BF0C37BD465DF8047B58
:104F7000704780B483B000AF786039607B685A1C9A
:104F80007A603A68D2B21A703B681B0A3B607B6851
:104F90005A1C7A603A68D2B21A703B681B0A3B60AE
:104FA0007B685A1C7A603A68D2B21A703B681B0A56
:104FB0003B607B685A1C7A603A68D2B21A7000BFB4
:104FC0000C37BD465DF8047B704780B487B000AFF6
:104FD000F860B9607A60FB687B61BB683B617B68A5
:104FE000002B0DD03A69531C3B617B69591C7961D8
:104FF00012781A707B68013B7B607B68002BF1D1D3
:1050000000BF1C37BD465DF8047B704780B487B095
:1050100000AFF860B9607A60FB687B617B695A1CFD
:105020007A61BA68D2B21A707B68013B7B607B6898
:10503000002BF3D100BF00BF1C37BD465DF8047BD9
:10504000704780B489B000AFF860B9607A60FB68DF
:10505000FB61BB68BB6100237B61FB695A1CFA6181
:105060001B781946BB695A1CBA611B78CB1A7B6145
:105070007B68013B7B607B68002B02D07B69002B47
:10508000EBD07B6918462437BD465DF8047B70473A
:1050900080B483B000AF7860396002E07B68013390
:1050A0007B607B681B78002B05D07B681B781A46D9
:1050B0003B689342F2D17B681B7818460C37BD469B
:1050C0005DF8047B7047000080B485B000AF786065
:1050D00039600023BB60BB68FB6029E0274AFB689E
:1050E0001B0113441B68002B1DD0244AFB681B01C5
:1050F00013441A687B681B689A4216D11F4AFB68E2
:105100001B01134404331A687B689B689A420CD1D4
:105110001A4AFB681B01134408331A687B685B69F1
:105120009A4202D107E00123BB60FB680133FB60B8
:10513000FB68012BD2D9FB68022B09D1BB68002B7D
:1051400002D13B68022B01D1002310E012230EE0B4
:105150003B68002B08D1094AFB681B0113440C3340
:105160001B88B3F5807F01D1102300E0002318468F
:105170001437BD465DF8047B704700BF540600201D
:1051800080B483B000AF00237B6002E07B68013312
:105190007B607B68012B06D8094A7B681B0113449E
:1051A0001B68002BF2D17B68022B14BF0123002364
:1051B000DBB218460C37BD465DF8047B704700BF74
:1051C0005406002080B485B000AF786039600023B9
:1051D000FB601FE0414AFB681B0113441A687B68AF
:1051E0001B689A4213D13D4AFB681B0113440433E8
:1051F0001A687B689B689A4209D1384AFB681B0190
:10520000134408331A687B685B699A4206D0FB68CE
:105210000133FB60FB68012BDCD900E000BFFB68B9
:10522000022B32D10023FB6002E0FB680133FB60FC
:10523000FB68012B06D8294AFB681B0113441B6835
:10524000002BF2D1FB68022B01D1002340E07B68E8
:105250001A682249FB681B010B441A607B689A6834
:105260001E49FB681B010B4404331A607B685A69B2
:105270001A49FB681B010B4408331A60174AFB6884
:105280001B0113440C3300221A803B68002B09D009
:10529000124AFB681B0113440C331B88002B01D0FE
:1052A000002315E03B68002B08D10C4AFB681B016A
:1052B00013440C331B8801339AB201E04FF480721F
:1052C0000649FB681B010B440C331A80FB68013351
:1052D00018461437BD465DF8047B7047540600201D
:1052E00080B485B000AF78607B68013B7B607B68F1
:1052F000012B25D8174A7B681B0113440C331B88EC
:10530000FB81FB89B3F5807F01D10023FB81FB8901
:10531000002B02D0FB89013BFB810E4A7B681B01FD
:1053200013440C33FA891A80FB89002B05D1094AF2
:105330007B681B01134400221A6000237B7301E089
:1053400002237B737B7B18461437BD465DF8047BD4
:10535000704700BF5406002080B485B000AF78606D
:105360000023FB6010E00D4AFB681B0113441B681F
:105370007A689A4205D1094AFB681B01134400224E
:105380001A60FB680133FB60FB68012BEBD900BF9F
:1053900000BF1437BD465DF8047B704754060020FB
:1053A00080B586B000AF78600023FB737B68DB7844
:1053B000002B34D07B681B6B7B617B6858787B68E3
:1053C00003F1340101237A69FFF73EFD0346002B08
:1053D00002D00123FB7322E07B680022DA707B6835
:1053E0005B6A7A69D21A7B68DB699A4217D27B685A
:1053F0009B783B6110E07B68DB697A6913447B61D1
:105400007B6858787B6803F1340101237A69FFF7E0
:105410001BFD3B69013B3B613B69012BEBD8FB7BEF
:1054200018461837BD4680BD80B584B000AF78609F
:1054300039600023FB737B681B6B3A689A421BD070
:105440007868FFF7ADFF0346FB73FB7B002B13D19E
:105450007B6858787B6803F1340101233A68FFF7D1
:10546000D3FC0346002B04D04FF0FF333B600123F5
:10547000FB737B683A681A63FB7B18461037BD469E
:1054800080BD000080B584B000AF78607868FFF719
:1054900087FF0346FB73FB7B002B58D17B681B788F
:1054A000032B48D17B681B79012B44D17B683433B3
:1054B0004FF4007200211846FFF7A8FD7B683433D3
:1054C00003F5FF734AF655211846FFF737FD7B6851
:1054D000343321491846FFF74CFD7B68343303F51C
:1054E000F2731E491846FFF744FD7B68343303F519
:1054F000F4727B685B6919461046FFF73AFD7B68DA
:10550000343303F5F6727B681B6919461046FFF7C2
:1055100030FD7B681B6A5A1C7B681A637B6858786D
:105520007B6803F134017B681A6B0123FFF78CFC65
:105530007B6800221A717B685B7800220021184684
:10554000FFF7A2FC0346002B01D00123FB73FB7B7A
:1055500018461037BD4680BD52526141727241619A
:1055600080B483B000AF786039603B68023B3B6039
:105570007B689B69023B3A689A4201D3002308E0AA
:105580007B685B891A463B6803FB02F27B68DB6A37
:10559000134418460C37BD465DF8047B704780B550
:1055A00086B000AF786039607B681B683B613B6800
:1055B000012B04D93B699B693A689A4202D30123C3
:1055C0007B618EE04FF0FF337B613B691B78032BDF
:1055D00061D0032B7BDC012B02D0022B41D076E083
:1055E0003B68FB60FB685B08FA681344FB603B693F
:1055F0005A6AFB685B0A134419463869FFF714FFBF
:105600000346002B66D1FB685A1CFA60C3F30803FB
:105610003A69134493F83430BB603B695A6AFB68BB
:105620005B0A134419463869FFF7FEFE0346002B58
:1056300052D1FB68C3F308033A69134493F834303A
:105640001B02BA681343BB603B6803F00103002BE5
:1056500002D0BB681B0902E0BB68C3F30B037B618C
:105660003FE03B695A6A3B681B0A13441946386994
:10567000FFF7DAFE0346002B30D13B6903F1340219
:105680003B685B0003F4FF7313441846FFF71AFCF2
:1056900003467B6125E03B695A6A3B68DB0913449A
:1056A00019463869FFF7C0FE0346002B18D13B6945
:1056B00003F134023B689B0003F4FE731344184665
:1056C000FFF719FC034623F070437B6109E00123D7
:1056D0007B6106E000BF04E000BF02E000BF00E025
:1056E00000BF7B6918461837BD4680BD90B589B0AC
:1056F00000AFF860B9607A600223FB77BB68012BCA
:1057000040F2D980FB689B69BA689A4280F0D380E6
:10571000FB681B78032B00F09680032B00F3CB80F3
:10572000012B02D0022B6ED0C5E0BB68BB61BB6908
:105730005B08BA691344BB61FB685A6ABB695B0AC0
:1057400013441946F868FFF76FFE0346FB77FB7FAB
:10575000002B40F0A980FB6803F13402BB69591C9F
:10576000B961C3F3080313447B61BB6803F0010311
:10577000002B0DD07B691B785BB203F00F035AB28C
:105780007B685BB21B015BB213435BB2DBB201E02F
:105790007B68DBB27A691370FB680122DA70FB6800
:1057A0005A6ABB695B0A13441946F868FFF73CFE66
:1057B0000346FB77FB7F002B78D1FB6803F13402B3
:1057C000BB69C3F3080313447B61BB6803F00103A7
:1057D000002B03D07B681B09DBB20EE07B691B78D2
:1057E0005BB223F00F035AB27B681B0A5BB203F073
:1057F0000F035BB213435BB2DBB27A691370FB68D1
:105800000122DA7057E0FB685A6ABB681B0A13442E
:105810001946F868FFF708FE0346FB77FB7F002B6D
:1058200046D1FB6803F13402BB685B0003F4FF73ED
:1058300013447A6892B211461846FFF77FFBFB6863
:105840000122DA7037E0FB685A6ABB68DB0913444F
:105850001946F868FFF7E8FD0346FB77FB7F002B4E
:1058600028D17B6823F07044FB6803F13402BB68E5
:105870009B0003F4FE7313441846FFF73CFB0346FA
:1058800003F0704323437B60FB6803F13402BB6881
:105890009B0003F4FE73134479681846FFF769FB15
:1058A000FB680122DA7006E000BF04E000BF02E0FE
:1058B00000BF00E000BFFB7F18462437BD4690BD07
:1058C00080B588B000AFF860B9607A600023FB77DC
:1058D000FB681B68BB61BB68012B04D9BB699B6972
:1058E000BA689A4201D302234BE07B68002B0CD0AC
:1058F0004FF0FF327968B869FFF7F8FE0346FB778F
:10590000FB7F002B01D0FB7F3BE0B968F868FFF715
:1059100046FE78617B69002B31D07B69012B01D178
:1059200002232EE07B69B3F1FF3F01D1012328E080
:105930000022B968B869FFF7D9FE0346FB77FB7F01
:10594000002B01D0FB7F1CE0BB695A69BB699B69D6
:10595000023B9A420BD2BB695B695A1CBB695A6114
:10596000BB691B7943F00103DAB2BB691A717B6929
:10597000BB60BB699B69BA689A42C6D300E000BFAE
:10598000002318462037BD4680BD80B588B000AFE3
:10599000786039607B681B683B613B68002B0DD1E8
:1059A0003B691B69BB61BB69002B04D03B699B69E8
:1059B000BA699A421BD30123BB6118E03968786841
:1059C000FFF7EDFDF860FB68012B01D8012370E0C3
:1059D000FB68B3F1FF3F01D1FB686AE03B699B695B
:1059E000FA689A4201D2FB6863E03B68BB61BB691D
:1059F000FB61FB690133FB613B699B69FA699A4270
:105A000007D30223FB61FA69BB699A4201D90023DB
:105A10004FE0F9697868FFF7C2FDF860FB68002B7A
:105A20000ED0FB68012B03D0FB68B3F1FF3F01D11F
:105A3000FB683EE0FA69BB699A42DAD1002338E09C
:105A400000BF4FF0FF32F9693869FFF74FFE034698
:105A5000FB75FB7D002B09D13B68002B06D0FA6952
:105A600039683869FFF742FE0346FB75FB7D002B62
:105A700016D13B69FA691A613B695A693B699B69AE
:105A8000023B9A4204D83B695B695A1E3B695A61E2
:105A90003B691B7943F00103DAB23B691A7107E0F5
:105AA000FB7D012B02D14FF0FF3300E00123FB61AE
:105AB000FB6918462037BD4680BD80B487B000AF73
:105AC000786039607B681B68FB607B68DB6A043345
:105AD0003B613B685B0AFA685289B3FBF2F37B6176
