:020000040800F2
:1000000018070020D9010008D12500089D1B000811
:10001000CD250008BD0C0008F125000800000000F7
:10002000000000000000000000000000D9250008CA
:10003000C10C000800000000D5250008DD250008DF
:10004000F3010008F3010008F3010008F3010008C0
:10005000F3010008F3010008F3010008F3010008B0
:10006000F3010008F3010008F3010008F3010008A0
:10007000F3010008F3010008F3010008F301000890
:10008000F3010008F3010008F3010008F301000880
:10009000F3010008F3010008F3010008F301000870
:1000A000F3010008F3010008F3010008F301000860
:1000B000F3010008F3010008E5250008F30100083A
:1000C000F3010008F3010008F3010008F301000840
:1000D000F3010008F3010008F3010008F301000830
:1000E000F3010008F3010008F301000800F002F832
:1000F00000F063F814A696E8000CB244B344DA4565
:1001000001D100F05AF8BAE80F000FA696E83000C7
:10011000A5EB040504EB0607AAEB0704A7F101070A
:100120004FEA15154FEA3414A4F10104AC4201D38F
:1001300000F043F813F0010F18BFFB1A43F001035E
:1001400000F001F8DBE7184770330000903300003F
:10015000103A24BF78C878C1FAD8520724BF30C8F3
:1001600030C144BF04680C60704700007047000055
:100170000023002400250026103A28BF78C1FBD8B0
:10018000520728BF30C148BF0B607047662903F093
:100190002481752900F07E80632900F00C84002002
:1001A00070471FB500F014FC04000020002103F08C
:1001B00087F8E0601FBD10B510BD00F009FD1146C5
:1001C000FFF7EFFF02F030FA00F027FD03B4FFF76E
:1001D000F2FF03BC00F06AFD094880470948004768
:1001E000FEE7FEE7FEE7FEE7FEE7FEE7FEE7FEE7E7
:1001F000FEE7FEE704480549054A064B7047000044
:10020000E1250008ED000008180100201807002073
:1002100018030020180300200FB41CB5074B06AAD2
:100220007B4469460090059800F0A3FB00206946D6
:1002300000F0B2FB1CBC5DF814FB00007507000069
:1002400070B50C460546012A05D02878800600D5F1
:10025000EA69002302E0012305E05B1C934202D21D
:10026000E05C0028F9D1A869E618C01AA861286ADC
:10027000184428622846AFF3008004E0D5E9012144
:1002800014F8010B9047B442F8D32846AFF300802E
:1002900070BD00002DE9F041064600241068752964
:1002A000314616A510D0AFF30080002802DA404294
:1002B00013A507E031688A0701D512A502E04907B6
:1002C00004D511A5012401E0AFF3008000210A222A
:1002D00006F1240709E0B0FBF2FCB0FBF2F302FBED
:1002E0001C00303078541846491C0028F3D12346AE
:1002F0002A463046BDE8F04100F0CEB800000000CC
:100300002D0000002B000000200000002DE9F05F10
:10031000894604464FF0000ADFF824B1FB44C0F8D8
:1003200020A02046E168884700287DD0252806D0F7
:10033000D4E901219047206A401C2062F1E70025A2
:100340005F462046E16888472028064607DB312EB5
:1003500005D2B81910F8200C08B10543F1E7A80739
:1003600001D525F00405C4F81CA00027C4F818A086
:100370002A2E09D0304602F09BFF38B304EB8708E1
:10038000303EC8F8186019E059F8041B204604EB09
:1003900087029161E1688847012F064618D1E0691C
:1003A000002820DA25F020051DE0D8F8180000EB21
:1003B000800006EB40003038C8F818002046E1689D
:1003C0008847064602F074FF0028EED1012F0AD0BC
:1003D0002E2E08D12046E16888477F1C0646022F52
:1003E00045F02005C4DBA069002803DA404245F04F
:1003F0000105A061E80701D025F01005A6B1A6F11E
:100400004100192802D8203645F400654A46314695
:10041000204625604D46FFF7B9FE60B1012807D0A0
:10042000ED1D25F0070000E007E000F1080978E77E
:1004300005F1040975E730467AE7206ABDE8F09FC8
:10044000BE3000004FF0000200B5134694469646B9
:10045000203922BFA0E80C50A0E80C50B1F12001D7
:10046000BFF4F7AF090728BFA0E80C5048BF0CC085
:100470005DF804EB890028BF40F8042B08BF7047E3
:1004800048BF20F8022B11F0804F18BF00F8012B55
:1004900070477047704770472DE9F0470D46994601
:1004A0009246044600F124080168880604D5E069F4
:1004B00021F01001216000E00120A84201DD471B6E
:1004C00000E00027A1697A1902EB0900081AA0616F
:1004D0002078C00602D42046AFF30080002608E052
:1004E000D4E901211AF806009047206A401C761CC6
:1004F00020624E45F4DB2078C0060AD52046AFF3D3
:10050000008006E0D4E9012130209047206A401C99
:100510002062381EA7F10107F4DC07E0D4E90121CD
:1005200018F805009047206A401C2062281EA5F19B
:100530000105F3DC2046AFF300802078000602D5E9
:100540000220BDE8F0870120FBE72DE9FF4F0C46B4
:100550001E464FF0FF378BB0D2E90001DDF8608016
:100560000A908A46C1F30A5505B93D46002108465E
:100570004FF00000BAF1000F00F4400005DA00EB84
:1005800080004FF4400101EA50004FEA9059B9F160
:10059000010F00DDB9460A9850EA4A000ED044F631
:1005A0001050A5F2FF3545432F14B8F1000F1ED0AF
:1005B0007542291E1EDDC9F100021CE0B8F1010FD1
:1005C0004FF0000001D0302103E0F24305E0215458
:1005D000401CB042FBDB30460022002121540B9925
:1005E000C1F80880C1E900200FB0BDE8F08FBD1B45
:1005F0006D1CDEE74A4600DA694206A800F072FA8E
:1006000006AB93E8070003AB83E8070050460A995E
:1006100002F072FA8DE80700A0F500501F38009034
:100620000398002D0ADD42F21F014A4608440023C8
:1006300003A90390684602F0DBFC09E0A0F5005036
:100640004A461F38002303A90390684602F0E5FCE0
:100650008DE807000004000C03D04FF0FF30410884
:1006600000E01046B8F1000F03D0002200921546BA
:100670001EE0751E05D400F0AFF9303262556D1ED4
:10068000F9D5B3460122084302D000227F1C04E0C2
:100690002078302801D100227F1E002A099784D0BB
:1006A0001DE0112D07DA00F097F9303262556D1C0C
:1006B00050EA0102F5D1084302D00098C8B10EE01B
:1006C0000021681E05E0235C625C63542254401ED6
:1006D000491C8142F7DBAB46A81B401E0990002055
:1006E00004F80B000B98099AC0F80880C0E9002BA9
:1006F0007AE711264FF0000857E72DE9F04F8846BA
:100700000446D21D22F0070191B0D1E90001CDE9E4
:100710000A0102F0B9FD02460B98C00F01D02D204E
:1007200007E02068810701D52B2002E0202101EAA3
:10073000C000032A099001D0072A05DB0346414681
:10074000204600F08FF90BE12078800601D5E069A2
:1007500000E00620B8F1650F814606D0B8F1660FBB
:1007600018D0B8F1670F70D131E00020B9F1110F46
:10077000009001DB112301E009F101030AAA01A99C
:100780000CA8FFF7E2FEDDE90C70002609F1010577
:10079000834647E001204B4600904FF000470AAAED
:1007A00001A90CA8FFF7D1FEDDE90DB00C995D465B
:1007B000002610B909F101000D18B9EB050003D4AA
:1007C000C0F1FF3609F10105A5EB09002BE0B9F1F5
:1007D000010F01DA4FF001090020B9F1110F00906B
:1007E000484601DD112300E003460AAA01A90CA82E
:1007F000FFF7ABFEDDE90C704D46002683462078FE
:1008000000070AD4AB4500DA5D4601A8012D04DDDE
:10081000411911F8011C302907D04F4502DA17F1B0
:10082000040F04DA012082460FE06D1EEEE7002F70
:1008300002DCED1B3E4403E0781CA84200DD7D1C79
:10084000B81B00F1010A4FF000472078000703D4DD
:10085000AA4501DB4FF0FF3A0021B7F1004F0DF13F
:1008600043088DF8431024D002202B23002F01DAF7
:100870007F422D230A21021EA0F1010000DC5FB19E
:1008800097FBF1FC97FBF1F201FB1C7C17460CF186
:10089000300C08F801CDEEE7A8F1010003702188C3
:1008A000090501D5452100E06521A0F1010800F806
:1008B000011C09980FA9A1EB0807FF1D00B1012039
:1008C000411901EBEA70A1693844081A401EA06181
:1008D0002078C00602D42046AFF30080099828B1E2
:1008E000D4E901219047206A401C20622078C0068C
:1008F00022D52046AFF300801EE0002E04DBB34576
:1009000002DD01A8805D00E03020D4E9012190479C
:10091000206A401C2062761CAAF101005FEA000AEE
:100920000AD100F055F8C0680168405CD4E90121A3
:100930009047206A401C2062281EA5F10105DCDCDE
:1009400007E0D4E9012118F8010B9047206A401C08
:100950002062381EA7F10107F3DC2046AFF30080C8
:10096000032011B041E6000001694A1C02610878C9
:10097000704700B58FB0CDE90131002105910549DF
:100980007944CDE9031011466846FFF7BFFC0FB06C
:1009900000BD0000E5FFFFFF0A6802F8010B0A60D6
:1009A000704710B5436913B1AFF3008001E0FFF762
:1009B00047FC012010BD127800F124010A700022CA
:1009C0004A700122EDE711684FF0FF32E9E70000BD
:1009D000004870473800002030B5B0F10A0271F1CC
:1009E00000034FEA900E4EEA817EB0EB0E0061EB01
:1009F00091014FEA101E4EEA017E10EB0E0041EB12
:100A000011114FEA102E4EEA016E10EB0E0041EB71
:100A100011214FEA104E4EEA014E10EB0E0041EB51
:100A20001141401841F100014FEAD00040EA417005
:100A30004FEAD1014FEA810444EA907410EB80053B
:100A400044EB01046D1944EB0404521BA3414FF025
:100A5000000348BF0A3200D530BD401C41F10001FF
:100A600030BD00002DE9F0411F4604460326016811
:100A7000072A01F4006004DB08B116A505E016A5FD
:100A800003E008B115A500E015A521F010002060D5
:100A9000A069C01EA0610FB1401EA0612046AFF347
:100AA00000804FB1D4E9012138469047206A401CAC
:100AB0002062C01C206206E0206AFAE7D4E9012126
:100AC00015F8010B9047761EF8D22046AFF3008050
:100AD000BDE8F0814E414E006E616E00494E460009
:100AE000696E66002DE9F047814616468AB03548A2
:100AF00078440DC88DE80D0032487844801C03AC62
:100B00000DC884E80D0041F69B300844372190FB66
:100B1000F1F290FBF1F5A5F1800501FB12041B3CFD
:100B200002D56442012000E00020DFF898A0804652
:100B30000027FA44AAF1BE0A0EE0E0070AD03246C6
:100B4000684607EB470101230AEB810102F065FAD1
:100B50008DE8070064107F1C002CEED1194F7F44F4
:100B6000AE3F19E0E80715D007EB04100DF1180AA5
:100B700090E80E008AE80E00C068F04201D1981992
:100B800008903246012306A903A802F046FA03ABF7
:100B900083E807006D10641C002DE3D14FF00103C2
:100BA00032466946B8F1000F03A802D002F020FADD
:100BB00001E002F032FAC9E90001C9F808200AB0E0
:100BC000BDE8F08778290000004870471800002031
:100BD0007546FFF7F9FFAE4605006946534620F01B
:100BE0000700854618B020B5FFF704FBBDE820409C
:100BF0004FF000064FF000074FF000084FF0000BD9
:100C0000AC46ACE8C009ACE8C009ACE8C009ACE847
:100C1000C00921F007018D46704710B50446AFF3B7
:100C200000802046BDE81040FFF7D0BA4FF0013CED
:100C300050F8042B51F8043B9A4221D1A2EB0C034B
:100C4000934313EACC1317D150F8042B51F8043B0B
:100C50009A4215D1A2EB0C03934313EACC130BD1A8
:100C600050F8042B51F8043B9A4209D1A2EB0C0333
:100C7000934313EACC13DBD04FF00000704700BF62
:100C8000D01A01BAB1FA81F101F0180122FA01F08B
:100C9000CB40DBB2C0B2C01AC1F120012CFA01F383
:100CA000D11A914311EAC311E6D1704701491820C6
:100CB000ABBEFEE72600020070470000FEE7000022
:100CC00070470000B0B5044600F01EF9054640F23A
:100CD0000000C2F200000078611C18BF044400BF8D
:100CE00000F012F9401BA042FAD3B0BD2DE9F04F3D
:100CF00082B00E68002E00F0FD8041F20042C4F286
:100D00000102042340F2004E904208BF03234FF635
:100D1000FF7CC4F2010E009300240123C1F2100CE9
:100D20004FF0000A4FF000094BE000BF41F2000213
:100D3000C4F20102009F904208BF022704F00C0396
:100D40000F229A402BEA020207FA03F34FEA9A05B0
:100D50001A4346F825204E6840F20C45F202DEF8B0
:100D6000082054BF22EA080242EA0802C4F2010540
:100D7000CEF808202A68B30254BF22EA080242EAE9
:100D800008022A60B303DEF8042054BF22EA0802F6
:100D900042EA0802F303CEF80420DEF800204FF008
:100DA000010354BF22EA080242EA0802CEF80020FA
:100DB0000E680AF1010A36FA0AF204F1040400F09E
:100DC000998003FA0AFB16EA0B08F1D04E686645D3
:100DD00012DC122E56D8DFE806F0350B4D4955557A
:100DE000555555555555555555555545510000BF07
:100DF000D1F80C9046E000BF4FF6FF72C1F221021D
:100E000096420FDC0022C1F2110296421AD0002253
:100E1000C1F21202964215D00022C1F2210296427E
:100E200010D02FE00022C1F2220296420AD0002206
:100E3000C1F23102964205D00022C1F2320296423E
:100E400020D100BF8A684AB1012A14BFC0F814B08B
:100E5000C0F810B04FF0080914E000BF4FF00409CB
:100E600010E000BFCA6802F104090BE04FF000096E
:100E700008E000BFCA6802F1080903E0CA6802F18D
:100E80000C0900BF02462646B8F5807F24BF043215
:100E9000203E17680F25B54027EA050509FA06F632
:100EA00035431560CA79D2067FF582AF41F2180347
:100EB000C4F202031A68AEF57E7642F001021A60AF
:100EC0001A6802F001020192019A2AF0030256F810
:100ED00002B040F60002C4F20102904208D040F68F
:100EE0000042C4F2010290427FF420AF012725E7BF
:100EF000002723E702B0BDE8F08F0000002A08BFFA
:100F0000090401617047000040F21010C2F20000B5
:100F10000068704740F2000040F21011C2F2000079
:100F2000C2F2000100780A681044086070470000AF
:100F300080B542F20000C4F20200016841F01001E5
:100F40000160032000F08CF80F2000F005F800F09D
:100F500027F8002080BD000070B540F20006C2F204
:100F6000000640F208013278C2F200014FF47A73B1
:100F70000968B3FBF2F20446B1FBF2F1084600F057
:100F80005DFB0F2C4FF0010508D838B94FF0FF304A
:100F900021460022002500F037F87460284670BD15
:100FA00082B041F21800C4F202000168042241F04C
:100FB00001010160016801F001010191019941689D
:100FC00041F080514160406800F0805000900098EE
:100FD0000420C4F20100016862F31A61016002B0EA
:100FE00070470000002848BF704700F01F01012231
:100FF00002FA01F11C2202EAD0004EF20012CEF2F7
:10100000000281507047000010B54EF60C5CCEF225
:10101000000CDCF80030C3F3022E8EF00704042C21
:1010200028BF0424BEF103034FF0FF3E0EFA04F480
:1010300038BF0023A14399400EFA03F39A431143AA
:1010400000F00F0200F160430901043A03F5644324
:101050006244002848BF02F10C03197010BD000063
:101060004EF60C51CEF200010A684FF6FF031A400B
:1010700060F30A2242F0806040F0FD700860704723
:10108000002804BF012070472DE9F04381B042F2EF
:101090000008C4F202080446D8F800000D4600F02B
:1010A000070081420CD9D8F8000020F0070028433F
:1010B000C8F80000D8F8000000F00700A8426CD182
:1010C000206841F204098107C4F2020917D54107DB
:1010D00005D5D9F8001041F4E061C9F80010010706
:1010E00005D5D9F8001041F46051C9F80010D9F8BD
:1010F0000010A26821F0F0011143C9F80010C007E8
:1011000042D1D8F8000000F0070085420CD2D8F890
:10111000000020F007002843C8F80000D8F80000BD
:1011200000F00700A84238D12068410707D5D9F858
:101130000010E26821F4E0611143C9F800100007D3
:1011400008D5D9F80000216920F4605040EAC100B8
:10115000C9F80000D9F8002002F00C00082841F27C
:101160000020C0F27A004DD143F29643C2F383418E
:10117000C0F60003595CD20338D440F60010C0F228
:101180003D0048433EE000BF606859F8041C022857
:1011900008D0012826D1890306D4012001B0BDE87A
:1011A000F08300BF8901F8D5D9F8001021F00301C0
:1011B0000843C9F80000FFF7A7FE064641F288374A
:1011C000D9F80000616800F00C00B0EB810F98D0F6
:1011D000FFF79AFE801BB842F2D9032001B0BDE8A8
:1011E000F08300BF8907D8D5DEE700BFD9F800201B
:1011F00043F29443C2F34042C0F600039A5C484372
:10120000B0FBF2F0D9F8001043F28442C1F30311AD
:10121000C0F60002515C40F2080220FA01F140F2EF
:101220000400C2F200000068C2F200021160FFF781
:1012300093FE002001B0BDE8F0830000002804BF49
:10124000012070472DE9F04182B00446007841F258
:101250000006C007C4F202060CD0706800F00C0053
:10126000042840F081803068800303D5606800283E
:1012700000F04681207880071BD5706810F00C0FB5
:1012800009D0706800F00C00082840F08780706872
:10129000C00300F183803068800703D520690128EE
:1012A00040F02E813068616920F0F80040EAC1000A
:1012B00030602078000713D4207840072CD4E569EB
:1012C000002D00F01881706800F00C00082840F034
:1012D000A780012D40F00481012002B0BDE8F0811B
:1012E000A069002800F084800020C4F2422001217F
:1012F000C0F88014FFF708FE054600BF706A80073B
:1013000000F1B280FFF700FE401B0228F6D903204F
:1013100002B0BDE8F08100BFF0695FEAC00808D400
:10132000F06940F08050F061F06900F0805000906A
:10133000009847F20007C4F200073868C00549D496
:10134000386840F480703860FFF7DEFD054600BF66
:101350003868C0053ED4FFF7D7FD401B6428F7D995
:10136000032002B0BDE8F081706800F00C0008288E
:1013700003D17068C0033FF576AF6168306800291B
:1013800000F00C81B1F5A02F00F00081B1F5803F95
:1013900040F01A8140F480301CE100BF2069002831
:1013A00040F20000C4F2422000F088800121016078
:1013B000FFF7AAFD054600BF306880073FF572AF12
:1013C000FFF7A2FD401B0228F6D9032002B0BDE8BA
:1013D000F08100BFE168306A002900F09D80052996
:1013E00000F09280012940F0AF8040F00100B1E0B0
:1013F0000020C4F242200021C0F88014FFF784FDD1
:10140000054600BF706A80077FF556AFFFF77CFD89
:10141000401B0228F6D9032002B0BDE8F08100BFCE
:101420000027C4F2422700203866FFF76DFD022D29
:1014300005460DD13068800140F1DE80FFF764FD84
:10144000401B02284FF00300F4D902B0BDE8F08140
:10145000306880014FD5FFF757FD401B02284FF041
:101460000300F5D9F1E700BF40F20800C2F2000026
:10147000006844F6D351C1F26201A0FB0101480AA1
:10148000019000BF00BF0198411E002801913FF468
:1014900013AF00BF0198411E002801913FF40CAF2B
:1014A00000BF0198411E002801913FF405AF00BF25
:1014B0000198411E00280191E4D1FDE60021016060
:1014C000FFF722FD054600BF306880077FF5F1AECB
:1014D000FFF71AFD401B02284FF00300F4D9B4E7D0
:1014E0007068216A00F480328A4209D1616A00F48E
:1014F0007010884204D1002002B0BDE8F08100BF26
:10150000012002B0BDE8F08140F004003062306A92
:1015100040F001001EE000BF20F001003062306AA0
:1015200020F004003062FFF7EFFC054641F28837F7
:10153000306A800720D5FFF7E7FC401BB8424FF028
:101540000300F5D981E700BF20F001003062306A66
:1015500020F004003062FFF7D7FC054641F28837DF
:10156000306A800708D4FFF7CFFC401BB842F7D998
:10157000032002B0BDE8F081B8F1000F3FF59FAE47
:10158000F06920F08050F06199E600BF40F48020BF
:101590003060306840F480301CE000BF20F48030C0
:1015A0003060306820F480203060FFF7ADFC0546E5
:1015B000306880037FF55EAEFFF7A6FC401B642811
:1015C0004FF00300F4D940E720F4803030603068F9
:1015D00020F480203060FFF797FC054630688003D8
:1015E0003FF548AEFFF790FC401B6428F6D9032076
:1015F00002B0BDE8F08100BF206AB0F5803F05D1A0
:101600007168A26821F40031114371607168626AE7
:1016100021F4741111430843706001203866FFF70C
:1016200073FC0446306880013FF565AFFFF76CFC42
:10163000001B02284FF00300F4D906E7411E0020EA
:10164000B0EB116F1CBF012070474EF21002CEF2BA
:10165000000251604EF62351CEF20001F0230B70D0
:1016600007219060116070477047000070470000CC
:1016700090F83C20012A4FF0020236D010B580F8D5
:101680003D200268D2F804E0D2F808C00C682EF0C1
:101690007003234340F2FF74C4F20004A24253607B
:1016A0000ADCB2F1804F13D040F20043C4F20003D1
:1016B0009A420DD011E000BF42F60043C4F201038C
:1016C0009A4205D040F60003C4F200039A4204D1C6
:1016D00049682CF08003194391600121002280F8B1
:1016E0003D1080F83C20BDE81040104670470000D7
:1016F000002804BF0120704710B590F83D1031B9A3
:10170000002180F83C10044600F070F820460221C9
:1017100080F83D10016840F2FF740B68C4F20004C9
:1017200042F6004CA142C4F2010C15DCB1F1804F2D
:101730001AD040F20042C4F20002914214D0A142F9
:1017400018DCB1F1804F1DD040F20042C4F200021B
:10175000914217D01AE000BF614505D040F6000263
:10176000C4F200029142EAD1826823F0700313436D
:10177000A142E6DD614505D040F60002C4F2000258
:10178000914203D1026923F440731343846923F027
:101790008002D0F804E0C368224361450A60CB624E
:1017A000C1F828E002D14269CCF8302001224A6118
:1017B0000B69DB0703D00B6923F001030B6180F891
:1017C000462080F83E2080F83F2080F8402080F8B6
:1017D000412080F8422080F8432080F8442080F89F
:1017E000452080F83D20002010BD0000006840F634
:1017F0000001C4F20001884218BF704780B582B072
:1018000041F21C00C4F202000168002241F0040110
:1018100001600068002100F00400019001981E2082
:10182000FFF7F2FB1E2002B0BDE88040FFF7DABBF5
:1018300090F83D1001291CBF01207047022180F85B
:101840003D10006840F2FF71C4F20001884209DCDB
:10185000B0F1804F12D040F20041C4F20001884242
:101860000CD012E042F60041C4F20101884205D0DA
:1018700040F60001C4F20001884206D1816801F0FF
:101880000701062904BF00207047016841F00101EB
:10189000016000207047000090F83C20012A4FF0C2
:1018A00002026CD080B580F83D20D0F800C04FF621
:1018B0007772DCF8083023EA0202CCF808200B68C3
:1018C0004F2B29DC1F2B45DD202B46D0302B44D05D
:1018D000402B40F0AF80D1F804E0C968DCF820303C
:1018E000DCF8202022F00102CCF82020DCF81820BF
:1018F00022F0F00242EA011123F00A0242EA0E024B
:10190000CCF81810CCF82020DCF8081041F0470182
:1019100021F0300128E000BF6F2B33DDB3F5005F0D
:1019200074D0B3F5805F21D0702B40F08380D1E973
:1019300001E3C968DCF8082043EA0E0322F47F4281
:1019400043EA01211143CCF80810DCF8081041F0FB
:10195000770109E00BB1102B6CD1DCF8081021F0F5
:101960007001194341F00701CCF808100022012151
:1019700080F83D10002180F83C10BDE88040104602
:10198000704700BF502B21D0602B53D1D1F804E019
:10199000C968DCF82030DCF8202022F01002CCF8F6
:1019A0002020DCF8182022F4704242EA013123F0B2
:1019B000A00242EA0E12CCF81810CCF82020DCF875
:1019C000081041F0670121F01001CDE7D1F804E0E3
:1019D000C968DCF82030DCF8202022F00102CCF8C5
:1019E0002020DCF8182022F0F00242EA011123F056
:1019F0000A0242EA0E02CCF81810CCF82020DCF8DB
:101A0000081041F0570121F02001ADE7D1E901E3D1
:101A1000C968DCF8082043EA0E0322F47F4243EA57
:101A200001211143CCF80810DCF8081041F4804182
:101A30009AE700BF01229AE77047000070B504469C
:101A40000068C5680669B10716D515F0020113D004
:101A50006FF002010161012121778069800703D0C5
:101A60002046FFF7E9FF05E0204600F08FF820460A
:101A700000F08EF800202077700719D515F00400CB
:101A800016D020686FF0040101610221217780697E
:101A900010F4407F04D02046FFF7CEFF06E000BFE1
:101AA000204600F073F8204600F072F800202077FE
:101AB000300717D515F0080014D020686FF0080122
:101AC000016104212177C069800703D02046FFF718
:101AD000B3FF05E0204600F059F8204600F058F822
:101AE00000202077F00619D515F0100016D02068D8
:101AF0006FF01001016108212177C06910F4407F67
:101B000004D02046FFF798FF06E000BF204600F013
:101B10003DF8204600F03CF800202077F00718BF81
:101B200015F0010002D1300609D412E020686FF0F0
:101B300001010161204600F02DF8300609D515F0AD
:101B4000800006D020686FF0800101612046FFF719
:101B50008BFD700609D515F0400006D020686FF0A7
:101B600040010161204600F017F8B00658BF70BD73
:101B700015F0200008D021686FF0200220460A618D
:101B8000BDE87040FFF772BD70BD000070470000F7
:101B9000704700007047000070470000FEE700003B
:101BA00010B540F60044C4F2010420468021002212
:101BB000FFF7A4F9204608210022FFF79FF92046ED
:101BC00010210022FFF79AF9204620210022FFF77A
:101BD00095F9204640210022FFF790F920464FF466
:101BE00080710122FFF78AF90420FFF76BF8204685
:101BF0004FF480710022FFF781F9204680210022F6
:101C0000FFF77CF9204608210122FFF777F92046EB
:101C100010210122FFF772F9204620210122FFF74F
:101C20006DF9204640210122FFF768F920464FF464
:101C300080710122FFF762F90420FFF743F8204684
:101C40004FF480710022BDE81040FFF757B9000043
:101C500010B540F60044C4F2010420468021002261
:101C6000FFF74CF9204608210022FFF747F92046EC
:101C700010210022FFF742F9204620210022FFF721
:101C80003DF9204640210022FFF738F920464FF465
:101C900080710122FFF732F90420FFF713F8204684
:101CA0004FF480710022FFF729F92046802100229D
:101CB000FFF724F9204608210022FFF71FF92046EC
:101CC00010210122FFF71AF9204620210022FFF7F8
:101CD00015F9204640210022FFF710F920464FF465
:101CE00080710122FFF70AF90420FEF7EBFF20467E
:101CF0004FF480710022BDE81040FFF7FFB80000EC
:101D0000072888BF704710B508780C4600F0F4FB30
:101D1000607800F0F1FBA07800F0EEFBE07800F0D6
:101D2000EBFB207900F0E8FB607900F0E5FBA0799F
:101D300000F0E2FBE079BDE8104000F0DDBB000000
:101D400010B540F60044C4F2010420468021002270
:101D5000FFF7D4F8204608210022FFF7CFF82046ED
:101D600010210022FFF7CAF8204620210122FFF7A8
:101D7000C5F8204640210022FFF7C0F820464FF466
:101D800080710122FFF7BAF80420FEF79BFF20467E
:101D90004FF480710022FFF7B1F820468021002225
:101DA000FFF7ACF8204608210022FFF7A7F82046ED
:101DB00010210022FFF7A2F8204620210022FFF781
:101DC0009DF8204640210022FFF798F820464FF466
:101DD00080710122FFF792F80420FEF773FF20467E
:101DE0004FF480710022BDE81040FFF787B8000073
:101DF00010B540F60044C4F20104204680210022C0
:101E0000FFF77CF8204608210022FFF777F82046EC
:101E100010210022FFF772F8204620210022FFF750
:101E20006DF8204640210022FFF768F820464FF465
:101E300080710122FFF762F80420FEF743FF20467D
:101E40004FF480710022FFF759F8204680210022CC
:101E5000FFF754F8204608210122FFF74FF82046EB
:101E600010210022FFF74AF8204620210022FFF728
:101E700045F8204640210022FFF740F820464FF465
:101E800080710122FFF73AF80420FEF71BFF20467D
:101E90004FF480710022BDE81040FFF72FB800001A
:101EA00010B540F60044C4F2010420460821002287
:101EB000FFF724F8204610210022FFF71FF82046E4
:101EC00020210022FFF71AF8204640210022FFF7C8
:101ED00015F81420FEF7F6FE204680210022FFF7B9
:101EE0000DF8204608210122FFF708F820461021AE
:101EF0000122FFF703F8204620210022FEF7FEFF13
:101F0000204640210022FEF7F9FF20464FF4807161
:101F10000122FEF7F3FF0420FEF7D4FE20464FF423
:101F200080710022FEF7EAFF0520FEF7CBFE204677
:101F300080210022FEF7E2FF204608210122FEF761
:101F4000DDFF204610210122FEF7D8FF2046202188
:101F50000022FEF7D3FF204640210022FEF7CEFFED
:101F600020464FF480710122FEF7C8FF0420FEF7DF
:101F7000A9FE20464FF480710022FEF7BFFF0B2020
:101F8000FEF7A0FE204680210022FEF7B7FF204684
:101F900008210122FEF7B2FF204610210122FEF7A0
:101FA000ADFF204620210022FEF7A8FF2046402159
:101FB0000022FEF7A3FF20464FF480710122FEF7B6
:101FC0009DFF0420FEF77EFE20464FF48071002224
:101FD000FEF794FF204680210022FEF78FFF204667
:101FE00008210022FEF78AFF204610210122FEF779
:101FF00085FF204620210022FEF780FF2046402159
:102000000022FEF77BFF20464FF480710122FEF78D
:1020100075FF0420FEF756FE20464FF48071002223
:10202000FEF76CFF204680210022FEF767FF204666
:1020300008210022FEF762FF204610210122FEF750
:102040005DFF204620210022FEF758FF2046402158
:102050000022FEF753FF20464FF480710122FEF765
:102060004DFF0420FEF72EFE20464FF48071002223
:10207000FEF744FF204680210022FEF73FFF204666
:1020800008210022FEF73AFF204610210022FEF729
:1020900035FF204620210022FEF730FF2046402158
:1020A0000122FEF72BFF20464FF480710122FEF73C
:1020B00025FF0420FEF706FE20464FF48071002223
:1020C000FEF71CFF204680210022FEF717FF204666
:1020D00008210022FEF712FF204610210022FEF701
:1020E0000DFF204620210022FEF708FF2046402158
:1020F0000022FEF703FF20464FF480710122FEF715
:10210000FDFE0420FEF7DEFD20464FF48071002224
:10211000FEF7F4FE204680210022FEF7EFFE204667
:1021200008210022FEF7EAFE204610210022FEF7D9
:10213000E5FE204620210122FEF7E0FE2046402158
:102140000122FEF7DBFE20464FF480710122FEF7EC
:10215000D5FE0420FEF7B6FD20464FF48071002224
:10216000FEF7CCFE204680210022FEF7C7FE204667
:1021700008210022FEF7C2FE204610210022FEF7B1
:10218000BDFE204620210022FEF7B8FE2046402159
:102190000022FEF7B3FE20464FF480710122FEF7C5
:1021A000ADFE0420FEF78EFD20464FF48071002224
:1021B000FEF7A4FE204680210022FEF79FFE204667
:1021C00008210022FEF79AFE204610210122FEF788
:1021D00095FE204620210122FEF790FE2046402158
:1021E0000022FEF78BFE20464FF480710122FEF79D
:1021F00085FE0420FEF766FD20464FF48071002224
:10220000FEF77CFEBDE81040FFF7F2BD10B540F6CA
:102210000044C4F20104204680210022FEF76EFE35
:10222000204608210022FEF769FE204610210022E8
:10223000FEF764FE204620210022FEF75FFE2046C6
:1022400040210022FEF75AFE20464FF48071012201
:10225000FEF754FE0420FEF735FD20464FF4807152
:102260000022FEF74BFE204680210022FEF746FEAC
:10227000204608210022FEF741FE204610210022C0
:10228000FEF73CFE204620210122FEF737FE2046C5
:1022900040210122FEF732FE20464FF480710122D8
:1022A000FEF72CFE0420FEF70DFD20464FF4807152
:1022B0000022BDE81040FEF721BE00000138C2B286
:1022C000032A88BF704770B5C0004BF67F72C0B25A
:1022D000CDF2933240F6004422FA00F0C4F2010439
:1022E0000D18204680210022EEB2FEF707FEC5F34E
:1022F000001220460821FEF701FEC5F340122046D9
:102300001021FEF7FBFDC5F3801220462021FEF7C9
:10231000F5FDF20920464021FEF7F0FD20464FF47E
:1023200080710122FEF7EAFD0420FEF7CBFC204677
:102330004FF480710022FEF7E1FD2046802100224B
:10234000FEF7DCFD05F0010220460821FEF7D6FD70
:10235000C5F3400220461021FEF7D0FDC5F38002F0
:1023600020462021FEF7CAFDC5F3C00220464021C9
:10237000FEF7C4FD20464FF480710122FEF7BEFD3A
:102380000420FEF79FFC20464FF480710022BDE838
:102390007040FEF7B3BD000010B540F60044C4F233
:1023A0000104204680210022FEF7A8FD20460821D6
:1023B0000122FEF7A3FD204610210022FEF79EFD1C
:1023C000204620210022FEF799FD204640210022D0
:1023D000FEF794FD20464FF480710122FEF78EFD3A
:1023E0000420FEF76FFC20464FF480710022FEF7B8
:1023F00085FD204680210022FEF780FD2046082131
:102400000022FEF77BFD204610210022FEF776FD1C
:10241000204620210022FEF771FD204640210122A6
:10242000FEF76CFD20464FF480710122FEF766FD39
:102430000420FEF747FC20464FF480710022BDE8DF
:102440001040FEF75BBD000010B540F60044C4F23A
:102450000104204680210022FEF750FD204608217D
:102460000122FEF74BFD204610210022FEF746FD1B
:10247000204620210022FEF741FD20464021002277
:10248000FEF73CFD20464FF480710122FEF736FD39
:102490000420FEF717FC20464FF480710022FEF75F
:1024A0002DFD204680210022FEF728FD2046082130
:1024B0000022FEF723FD204610210022FEF71EFD1C
:1024C000204620210122FEF719FD2046402101224D
:1024D000FEF714FD20464FF480710122FEF70EFD39
:1024E0000420FEF7EFFB20464FF480710022BDE888
:1024F0001040FEF703BD0000B0B540F60044C4F242
:1025000001040546204680210122FEF7F7FCC5F3B1
:10251000001220460821FEF7F1FCC5F340122046C8
:102520001021FEF7EBFCC5F3801220462021FEF7B8
:10253000E5FCEA0920464021FEF7E0FC20464FF486
:1025400080710122FEF7DAFC282000F053F82046C3
:102550004FF480710022FEF7D1FC05F00102204605
:102560000821FEF7CBFCC5F3400220461021FEF700
:10257000C5FCC5F3800220462021FEF7BFFCC5F351
:10258000C00220464021FEF7B9FC20464FF480717E
:102590000122FEF7B3FC282000F02CF820464FF46F
:1025A00080710022BDE8B040FEF7A8BC0178002988
:1025B00008BF704710B5441EC8B2FFF79DFFA17851
:1025C00001340029F8D1BDE810407047FEE7000053
:1025D000FEE700007047000070470000FEF79ABC5D
:1025E0007047000040F2C800C2F20000FFF726BAB0
:1025F000FEE7000040F2C801C2F2000109684A6A21
:1026000092B208E04B6A9B1A834228BF70474B6A1C
:102610009B1A834207D24B6A9B1A834203D24B6AAE
:102620009B1A8342EED3704792B0FEF781FC08AC50
:10263000201D2421FDF706FF0220089001200C90A8
:1026400010200D90002520460F95FEF7F7FD28B1CC
:10265000EFF3108072B600BFFEE700BF0F20CDE998
:10266000020502A80021CDE904550695FEF708FDF4
:1026700020B1EFF3108072B6FEE700BF002541F2F3
:102680001800CDE90A55CDE90855C4F202000168E9
:1026900040F6004441F0100101600168C4F20104F9
:1026A00001F01001029102990168002241F0080135
:1026B000016000684FF4FC7100F00800029002987D
:1026C00020464FF4FC76FEF719FC0120CDE9090500
:1026D00002200B9008A920460896FEF707FB40F25F
:1026E000C800A4F58231C2F200004FF6FF720B95CC
:1026F000CDE90955CDE90255C0E90015C0E90252FE
:1027000005618561FEF7F4FF20B1EFF3108072B62A
:10271000FEE700BF4FF48050089040F2C800C2F2BC
:10272000000008A9FFF7B8F820B1EFF3108072B6E7
:10273000FEE700BF40F2C804C2F2000402A920462E
:10274000FEF796FF20B1EFF3108072B6FEE700BFF0
:102750002046FFF76DF8206800214162FFF7A0FBDB
:102760000F20FEF7AFFAFFF7EBFA43F2A641C0F6EF
:1027700000010020FFF7C4FA43F2AE41C0F60001A9
:102780000120FFF7BDFAFFF763FAFFF731FBFFF710
:102790003DFD01200121FFF791FD40F20C00C2F246
:1027A0000000FFF703FF02200121FFF787FDB3A020
:1027B000FFF7FCFE4FF47A70FEF784FAFFF718FB80
:1027C00002200121FFF77AFD40F27807C2F20007EC
:1027D00007F108044DF2F14242F2FB134D26ACA181
:1027E000C5F2C832C4F2090320460096FDF714FD75
:1027F0002046FFF7DBFE01200821FFF75FFD7A206E
:10280000FFF77AFE40F2DC50FEF75CFAFFF7F0FAD1
:102810000FF28C280FF298290FF2A02A0FF2B02B9A
:1028200007F11C04AEA5B0A601200121FFF746FD6B
:102830004046FFF7BBFE02200121FFF73FFD48465F
:10284000FFF7B4FE02200C21FFF738FDFFF7A8F9CF
:102850004FF4FA60FEF736FAFFF7D8FCFFF7C8FA34
:102860004FF4C870FEF72EFA01200121FFF726FD74
:102870005046FFF79BFE02200121FFF71FFD0020BD
:10288000FFF73AFE0120FFF737FE40F2DC50FEF77B
:1028900019FAFFF7ADFA4FF4C870FEF713FA0120EA
:1028A0000121FFF70BFD5846FFF780FE4FF4FA7049
:1028B000FEF708FAFFF7C8FD4FF49670FEF702FA2C
:1028C000FFF7C2FD4FF49670FEF7FCF9FFF7BCFD71
:1028D0004FF49670FEF7F6F9FFF7B6FD4FF49670D9
:1028E000FEF7F0F9FFF7B0FD4FF49670FEF7EAF946
:1028F000FFF7AAFD4FF49670FEF7E4F9FFF7A4FD89
:102900004FF49670FEF7DEF9FFF79EFD4FF49670D8
:10291000FEF7D8F9FFF798FD4FF49670FEF7D2F95D
:10292000FFF792FD4FF49670FEF7CCF9FFF78CFDA0
:102930004FF49670FEF7C6F9FFF786FD4FF49670D8
:10294000FEF7C0F9FFF780FD4FF49670FEF7BAF975
:10295000FFF77AFD4FF49670FEF7B4F9FFF774FDB8
:102960004FF49670FEF7AEF94FF49670FEF7AAF9A1
:10297000FFF712FD4FF49670FEF7A4F9FFF70CFD78
:102980004FF49670FEF79EF9FFF706FD4FF4967030
:10299000FEF798F9FFF700FD4FF49670FEF792F9F5
:1029A000FFF7FAFC4FF49670FEF78CF9FFF7F4FC92
:1029B0004FF49670FEF786F9FFF7EEFC4FF4967031
:1029C000FEF780F9FFF7E8FC4FF49670FEF77AF90E
:1029D000FFF7E2FC4FF49670FEF774F9FFF7DCFCAA
:1029E0004FF49670FEF76EF9FFF7D6FC4FF4967031
:1029F000FEF768F9FFF7D0FC4FF49670FEF762F926
:102A0000FFF7CAFC4FF49670FEF75CF9FFF7C4FCC1
:102A10004FF49670FEF756F9FFF7BEFC4FF4967030
:102A2000FEF750F9FFF7E4F94FF4C870FEF74AF9E2
:102A300001200121FFF742FC3A6820462946FDF7B4
:102A4000EBFB2046FFF7B2FD02200121FFF736FC29
:102A5000786800F051FC02460B4620463146FDF7EF
:102A6000DBFB2046FFF7A2FD40F2DC50FEF72AF91F
:102A7000FFF7BEF96420FEF725F9D5E6504943205B
:102A8000206573206C61206F6E646121000000007E
:102A9000202025302E3266202020202025630000B3
:102AA00054657374204C4344203136783200000062
:102AB00050494331384634353530000043475241A0
:102AC0004D2043617261637465726573000000009C
:102AD000486F6C61206120746F646F7300000000A8
:102AE000496E743A20257500466C6F61743A202552
:102AF000302E3266000000005FEA400C08BF91F003
:102B0000000F4FEA8C234FEAC12243EA51514FEAAA
:102B10001C5018BF00F5F0404FEA300018BF41F0DC
:102B200000415FEA6C5C00F02980BCF1FF3F08BF08
:102B300040F080407047130C06BF12044FF0100C99
:102B40004FF0000C130E04BF12020CF1080C130F0F
:102B500004BF12010CF1040C930F04BF92000CF19E
:102B6000020CD30F04BF52000CF1010C11464FF0C0
:102B70000002A0F11F00A0EB0C00704711F0004F05
:102B800008BF704731F000413FF4D5AF0B0C06BFD2
:102B900009044FF0100C4FF0000C0B0E04BF09029B
:102BA0000CF1080C0B0F04BF09010CF1040C8B0F86
:102BB00004BF89000CF1020CCB0F04BF49000CF1DB
:102BC000010CCCF1200322FA03F341EA030102FADB
:102BD0000CF2A0EB0C0000F10100704723F07F47DE
:102BE00020F07F4C80EA030000F00040ACEB0703CC
:102BF00003F57C5303F1FF032DE9804909B44FEA43
:102C0000144324EA03484FEA154B25EA0B4E0FF212
:102C1000042606EB13273E7803FB0667C7F500077B
:102C200007FB06F64FEAD64606F102064FEA54378E
:102C300007FB066CCCF1005C4FEA1C472CEA074C02
:102C40000CFB06F507FB06F404EB15464FEA961657
:102C500049085FEA320234BF00204FF000404FEADB
:102C6000D13706FB07FC4FEA1C4C0CFB0BF7D21BC1
:102C700003FB0CF761EB07010CFB0EF7B0EB074011
:102C800072EB17420CFB08F734BFA2EB0742B2EB22
:102C9000074261EB17414FEA0C444FEA910706FBEC
:102CA00007FC4FEA1C4C0CFB0BF7B0EBC74072EB78
:102CB000573203FB0CF734BFA2EBC742B2EBC7425B
:102CC00061EB57310CFB0EF7B0EBC70072EB57729C
:102CD0000CFB08F734BFA2EBC702B2EBC70261EBF3
:102CE00057714FEA816141EA92114FEA826242EAEA
:102CF00090124FEA806004EBCC04039F4FEAD13777
:102D000006FB07FC4FEA1C4C0CFB0BF7D21B03FB2A
:102D10000CF761EB07010CFB0EF7B0EB074072EB11
:102D200017420CFB08F734BFA2EB0742B2EB074295
:102D300061EB17414FEA8C5504EB9C244FEA910755
:102D400006FB07FC4FEA1C4C0CFB0BF7B0EBC74033
:102D500072EB573203FB0CF734BFA2EBC742B2EB66
:102D6000C74261EB57310CFB0EF7B0EBC70072EBBB
:102D700057720CFB08F734BFA2EBC702B2EBC702D5
:102D800061EB57714FEA816141EA92114FEA826229
:102D900042EA90124FEA806015EB4C2544F10004A2
:102DA0004FEAD13706FB07FC4FEA1C4C0CFB0BF734
:102DB000D21B03FB0CF761EB07010CFB0EF7B0EB2A
:102DC000074072EB17420CFB08F734BFA2EB074237
:102DD000B2EB074261EB17414FEA813141EA924180
:102DE0004FEA823242EA90424FEA80304FEA0C7654
:102DF00015EB1C1544F1000448EA03434EEA0B4866
:102E00004FF0000EB2EB080C71EB030724BF6246D3
:102E100039464EEB0E0E4FF0000B0018524149415F
:102E20004BEB0B0BB2EB080C71EB03077BF1000BC8
:102E300024BF624639464EEB0E0E4FF0000B0018D1
:102E4000524149414BEB0B0BB2EB080C71EB030702
:102E50007BF1000B24BF624639464EEB0E0E51EA61
:102E6000020718BF46F0010616EB0E7655F1000278
:102E700054F1000103D5BDE88901BDE80088BDE833
:102E80008901BDE80048B619524141EB0101A3F1A7
:102E90000103704780807F7E7D7C7B7A79787776AE
:102EA00076757473727171706F6E6E6D6C6C6B6A27
:102EB0006A696868676666656464636362616160C5
:102EC000605F5F5E5E5D5D5C5C5B5B5A5A59595842
:102ED00058575756565555555454535352525251AC
:102EE000515050504F4F4F4E4E4D4D4D4C4C4C4B02
:102EF0004B4B4A4A4A494949484848474747474649
:102F00004646454545444444444343434342424284
:102F1000424141419C46002B30D477002BD04FEAF0
:102F200037071CB503B44FF010004FF01001BAF191
:102F3000000F06D0BCF1000FDCBF40F0080040F0ED
:102F400008014FF000000FBCBDE810400BF1010B71
:102F5000BBF1010F08BF5FEA170722BF12F10102A0
:102F600011F101014FF0004143F1000300F0004076
:102F700043EA00007047F9D35708D0E746EA06460F
:102F80004FEA164613F1400F1FDD13F1200FDFBF8C
:102F900016430A46002120335B42BED0C3F120070E
:102FA00046EA06464FEA164602FA07F746EA0706D9
:102FB00022FA03F2C3F1200701FA07F742EA0702F7
:102FC00021FA03F14FF00003A7E746EA020646EABA
:102FD00006464FEA164646EA0106BCBF46EA0646E2
:102FE000360C4FF000034FF000024FF0000194E761
:102FF0002DE9804C70B49A46934691E8380007C892
:1030000031EA400C48BF34EA430C03D5FFF7E6FD34
:10301000FFF780FFF0BCBDE8008C2DE9804C70B458
:103020009A46934691E8380007C810F0804F08BFD1
:1030300013F0804F03D100F005F8FFF76BFFF0BCF1
:10304000BDE8008C20F07F4723F07F4C80EA03002E
:1030500000F0004007EB0C03A3F57C53A3F1FE0343
:1030600092F0000F00F0B38095F0000F00F0778031
:103070002DE901494FEA114021EA00484FEA144680
:1030800024EA064700FB06FC08FB06F607FB08F8E7
:1030900018EB06484CEB164C00FB07F718EB0748FB
:1030A0004CEB17404FEA124B22EA0B4E4FEA154603
:1030B00025EA06470BFB06FC0EFB06F607FB0EFE99
:1030C0001EEB064E4CEB164C0BFB07F71EEB074EA8
:1030D0004CEB174B18EB0B0840F1000018EB0E0BF4
:1030E00058EB000840F100008F1A4FF000014FF03C
:1030F00000063CBFC943661B14BFB5EB040C00219E
:103100003CBFC943F61B4FEA174427EA04454FEA80
:103110001C472CEA074C04FB076205FB07F70CFB76
:1031200005F616EB074642EB174204FB0CFC16EBC8
:103130000C4642EB1C421BEB060658EB02024141D7
:103140004EEA8E0E46EA9E0601D5BDE80189B61903
:10315000524141EB0101A3F10103BDE801894FEAAE
:10316000144524EA05464FEA114721EA074C05FBBE
:1031700007F406FB07F70CFB06F111EB074144EBE4
:10318000174405FB0CFC11EB0C4144EB1C444FEACB
:10319000124722EA074C05FB07F206FB07F70CFB78
:1031A00006F616EB074642EB174205FB0CFC16EB46
:1031B0000C4642EB1C456A1854F1000148BF7047A9
:1031C000B619524141EB0101A3F10103704795F09B
:1031D000000F37D04FEA114221EA02464FEA144766
:1031E00024EA074C02FB07F106FB07F70CFB06F489
:1031F00014EB074441EB174102FB0CFC14EB0C44AD
:1032000041EB1C414FEA154725EA074C02FB07F545
:1032100006FB07F70CFB06F616EB074645EB1745D2
:1032200002FB0CFC16EB0C4645EB1C42121951F14B
:10323000000148BF7047B619524141EB0101A3F1AB
:10324000010370474FEA144524EA05464FEA114747
:1032500021EA074C05FB07F106FB07F70CFB06F21A
:1032600012EB074241EB174105FB0CFC12EB0C4241
:1032700051EB1C414FF0000648BF7047921841EBDC
:103280000101A3F101037047490050EAC12018BFB2
:1032900004204A0D18BF40F0010040F2FF72B2EB6B
:1032A000515F08BF40F00200012808BF05207047A9
:1032B00030380A2801D201207047002070470000F2
:1032C00010B500290AD00878002807D005487844AE
:1032D000FDF7ACFC002801D0002010BD0248784466
:1032E00010BD00000A020000020200000808A0F55C
:1032F00000114FEA3101704743004FEAD30C4FEA07
:103300003C0C43401FBF40070CF1605113F0FE4FCF
:1033100070471CF0006F03D10CF000410020704793
:103320000CF0004343EA507040EACC0010B500F0C6
:103330000EF800BF000000924FEA0001FFF7D6BF71
:103340004FF00041A1F500214FF0000070470EF151
:10335000020E2EF0030E5EF8044B244204D44FEA12
:103360004102B2F17F4F11D84FEA4003B3F17F4FD2
:103370000CD80ED14FEAD07C0CEB4C0C0CF1020CAB
:10338000B2F17F4F08BF4CEBD17C04E04FF0080C4A
:1033900001E04FEAD17C0CEB4C0324FA03F404F077
:1033A0000704B4F1040C06D20EEB840CBDE8104007
:1033B0004CF0010C6047DFE80CF0070802024FF008
:1033C0000040A0F5800010BD0846420018BFD2F1B1
:1033D000807288BF00F0004010BDFDF78EB9040078
:1033E00000080000000000000002000100001000C2
:1033F00002400000000000A00000000005400000A6
:10340000000000C8000000000C4000000000409CCC
:1034100000000000194000000020BCBE00000000B9
:1034200034400000BFC91B8E00000004B5400000FE
:10343000504BCFD06607E2CF010000006C41000086
:103440003E8251AADFEEA73401000000D9420000FD
:10345000DCB5A0E23A301F97FFFFFFFFB445000044
:10346000FD25A0C8E9A3C14FFFFFFFFFFF3F0000FC
:103470000000008000000000FF3F0000000000800E
:103480000000000000000000000000000102030432
:1034900006070809010202030405060708090A0BCA
:1034A0000C0D0E0F10100A0A0A0011110E00000474
:1034B000021F020400000000F83400080000002091
:1034C0001800000050010008103500081800002006
:1034D00000070000700100081C000000430000000D
:1034E000F8FFFFFF0C0000000E0000000F000000BE
:1034F0002E0000000000000001000000100000008D
:1035000000127A004C4344206B65793A2000000099
:04000005080000ED02
:00000001FF
