:020000040800F2
:1000000018070020B502000871250008711B0008C0
:100010006D250008850E0008D126000800000000AC
:10002000000000000000000000000000792500082A
:10003000890E000800000000752500087D250008D5
:10004000CF020008CF020008CF020008CF0200084C
:10005000CF020008CF020008CF020008CF0200083C
:10006000CF020008CF020008CF020008CF0200082C
:10007000CF020008CF020008CF020008CF0200081C
:10008000CF020008CF020008CF020008CF0200080C
:10009000CF020008CF020008CF020008CF020008FC
:1000A000CF020008CF020008CF020008CF020008EC
:1000B000CF020008CF020008CF020008CF020008DC
:1000C000CF020008CF020008CF020008CF020008CC
:1000D000CF020008CF020008CF020008CF020008BC
:1000E000CF020008CF020008CF020008CF020008AC
:1000F000CF020008CF020008CF020008CF0200089C
:10010000CF020008CF020008CF020008CF0200088B
:10011000CF020008CF020008CF020008CF0200087B
:10012000CF020008CF020008CF020008CF0200086B
:10013000CF0200080000000000000000CF0200080D
:10014000CF020008CF020008CF020008CF0200084B
:10015000CF020008CF020008CF020008CF0200083B
:10016000CF020008CF020008CF020008CF0200082B
:10017000CF020008CF020008CF02000800000000F4
:1001800000000000CF020008000000000000000096
:10019000CF0200080000000000000000CF020008AD
:1001A000000000000000000000000000CF02000876
:1001B000CF020008CF020008CF020008CF020008DB
:1001C000CF02000800F002F800F065F814A696E8E7
:1001D000000CB244B344DA4501D100F05CF8BAE84F
:1001E0000F000FA696E83000A5EB040504EB060708
:1001F000AAEB0704A7F101074FEA15154FEA3414DB
:10020000A4F10104AC4201D300F045F813F0010F52
:1002100018BFFB1A43F0010300F001F8DBE71847B1
:10022000BC340000DC340000103A24BF78C878C128
:10023000FAD8520724BF30C830C144BF04680C60EC
:1002400070470000704700000023002400250026AE
:10025000103A28BF78C1FBD8520728BF30C148BF29
:100260000B607047662903F0D381752900F0F88090
:10027000632900F08684002070471FB503F0BBF9A6
:1002800000F08CFC04000020002103F027F9E0605E
:100290001FBD10B510BD00F081FD1146FFF7EDFF49
:1002A00002F032FA00F09FFD03B4FFF7F2FF03BC47
:1002B00000F0E0FD0948804709480047FEE7FEE7F7
:1002C000FEE7FEE7FEE7FEE7FEE7FEE7FEE7FEE706
:1002D00004480549054A064B70470000812500087F
:1002E000C50100081801002018070020180300208D
:1002F0001803002053EA020C00F069802DE9F04B4E
:100300004FF00006002B1FBFB3FA83F503FA05F484
:1003100024FA05F65E4012BF1643B2FA82F502FADD
:1003200005F4C5F120051EBF22FA05FC44EA0C04C1
:10033000203556EA044C4FEA144418BF641C4FF0B1
:1003400000084FF00009904271EB030C39D30029EB
:1003500019BFB1FA81F701FA07F6B0FA80F700FA8F
:1003600007F6C7F120071EBF20FA07FC46EA0C0675
:100370002037B6FBF4FCA7EB0507103F07F01F0B77
:10038000CBF120062CFA06F60CFA0BFB44BFB34661
:100390000026202FA4BF5E464FF0000B5BEA060C40
:1003A00008BF4FF0010B19EB0B0948EB0608ABFB3C
:1003B000027C06FB02CC0BFB03CCC01B71EB0C01D7
:1003C000C1E70B46024641464846BDE8F08B13B5EF
:1003D000084318BF4FF0FF300146AFF30080BDE87F
:1003E0001C4070470FB41CB5074B06AA7B446946F6
:1003F0000090059800F0A3FB0020694600F0B2FBD6
:100400001CBC5DF814FB00007507000070B50C46BD
:100410000546012A05D02878800600D5EA69002320
:1004200002E0012305E05B1C934202D2E05C00285D
:10043000F9D1A869E618C01AA861286A1844286288
:100440002846AFF3008004E0D5E9012114F8010B40
:100450009047B442F8D32846AFF3008070BD000047
:100460002DE9F0410646002410687529314616A58D
:1004700010D0AFF30080002802DA404213A507E055
:1004800031688A0701D512A502E0490704D511A5F4
:10049000012401E0AFF3008000210A2206F12407C5
:1004A00009E0B0FBF2FCB0FBF2F302FB1C003030C1
:1004B00078541846491C0028F3D123462A46304672
:1004C000BDE8F04100F0CEB8000000002D000000B3
:1004D0002B000000200000002DE9F05F8946044653
:1004E0004FF0000ADFF824B1FB44C0F820A02046FA
:1004F000E168884700287DD0252806D0D4E901216D
:100500009047206A401C2062F1E700255F462046A4
:10051000E16888472028064607DB312E05D2B81946
:1005200010F8200C08B10543F1E7A80701D525F024
:100530000405C4F81CA00027C4F818A02A2E09D06E
:10054000304602F0C3FF38B304EB8708303EC8F8EA
:10055000186019E059F8041B204604EB87029161EA
:10056000E1688847012F064618D1E069002820DAA3
:1005700025F020051DE0D8F8180000EB800006EB00
:1005800040003038C8F818002046E1688847064621
:1005900002F09CFF0028EED1012F0AD02E2E08D1A8
:1005A0002046E16888477F1C0646022F45F020055B
:1005B000C4DBA069002803DA404245F00105A061D0
:1005C000E80701D025F01005A6B1A6F141001928D1
:1005D00002D8203645F400654A463146204625605B
:1005E0004D46FFF73FFE60B1012807D0ED1D25F015
:1005F000070000E007E000F1080978E705F10409C9
:1006000075E730467AE7206ABDE8F09F28310000A0
:100610004FF0000200B5134694469646203922BF9B
:10062000A0E80C50A0E80C50B1F12001BFF4F7AFE6
:10063000090728BFA0E80C5048BF0CC05DF804EBC8
:10064000890028BF40F8042B08BF704748BF20F836
:10065000022B11F0804F18BF00F8012B7047704734
:10066000704770472DE9F0470D469946924604467B
:1006700000F124080168880604D5E06921F0100122
:10068000216000E00120A84201DD471B00E00027B7
:10069000A1697A1902EB0900081AA0612078C00646
:1006A00002D42046AFF30080002608E0D4E90121FF
:1006B0001AF806009047206A401C761C20624E45BE
:1006C000F4DB2078C0060AD52046AFF3008006E0B0
:1006D000D4E9012130209047206A401C2062381E56
:1006E000A7F10107F4DC07E0D4E9012118F80500BF
:1006F0009047206A401C2062281EA5F10105F3DC0A
:100700002046AFF300802078000602D50220BDE825
:10071000F0870120FBE72DE9FF4F0C461E464FF006
:10072000FF378BB0D2E90001DDF860800A908A467D
:10073000C1F30A5505B93D46002108464FF00000B7
:10074000BAF1000F00F4400005DA00EB80004FF42E
:10075000400101EA50004FEA9059B9F1010F00DD64
:10076000B9460A9850EA4A000ED044F61050A5F255
:10077000FF3545432F14B8F1000F1ED07542291ED6
:100780001EDDC9F100021CE0B8F1010F4FF00000BE
:1007900001D0302103E0F24305E02154401CB04277
:1007A000FBDB30460022002121540B99C1F8088060
:1007B000C1E900200FB0BDE8F08FBD1B6D1CDEE766
:1007C0004A4600DA694206A800F072FA06AB93E8DE
:1007D000070003AB83E8070050460A9902F096FA37
:1007E0008DE80700A0F500501F3800900398002DF9
:1007F0000ADD42F21F014A460844002303A9039080
:10080000684602F0FFFC09E0A0F500504A461F3898
:10081000002303A90390684602F009FD8DE8070054
:100820000004000C03D04FF0FF30410800E01046F8
:10083000B8F1000F03D00022009215461EE0751E8D
:1008400005D400F0AFF9303262556D1EF9D5B346CC
:100850000122084302D000227F1C04E020783028C7
:1008600001D100227F1E002A099784D01DE0112D9E
:1008700007DA00F097F9303262556D1C50EA010238
:10088000F5D1084302D00098C8B10EE00021681EDF
:1008900005E0235C625C63542254401E491C814283
:1008A000F7DBAB46A81B401E0990002004F80B00A4
:1008B0000B98099AC0F80880C0E9002B7AE7112646
:1008C0004FF0000857E72DE9F04F88460446D21D47
:1008D00022F0070191B0D1E90001CDE90A0102F04F
:1008E000DDFD02460B98C00F01D02D2007E02068E7
:1008F000810701D52B2002E0202101EAC000032A54
:10090000099001D0072A05DB03464146204600F046
:100910008FF90BE12078800601D5E06900E0062020
:10092000B8F1650F814606D0B8F1660F18D0B8F15E
:10093000670F70D131E00020B9F1110F009001DB99
:10094000112301E009F101030AAA01A90CA8FFF78C
:10095000E2FEDDE90C70002609F10105834647E05F
:1009600001204B4600904FF000470AAA01A90CA8AD
:10097000FFF7D1FEDDE90DB00C995D46002610B9F8
:1009800009F101000D18B9EB050003D4C0F1FF36E1
:1009900009F10105A5EB09002BE0B9F1010F01DA1E
:1009A0004FF001090020B9F1110F0090484601DD18
:1009B000112300E003460AAA01A90CA8FFF7ABFE29
:1009C000DDE90C704D4600268346207800070AD4E6
:1009D000AB4500DA5D4601A8012D04DD411911F88F
:1009E000011C302907D04F4502DA17F1040F04DA51
:1009F000012082460FE06D1EEEE7002F02DCED1BAA
:100A00003E4403E0781CA84200DD7D1CB81B00F1C9
:100A1000010A4FF000472078000703D4AA4501DB04
:100A20004FF0FF3A0021B7F1004F0DF143088DF868
:100A3000431024D002202B23002F01DA7F422D23E4
:100A40000A21021EA0F1010000DC5FB197FBF1FC5E
:100A500097FBF1F201FB1C7C17460CF1300C08F8F7
:100A600001CDEEE7A8F1010003702188090501D549
:100A7000452100E06521A0F1010800F8011C09985A
:100A80000FA9A1EB0807FF1D00B10120411901EBDF
:100A9000EA70A1693844081A401EA0612078C00697
:100AA00002D42046AFF30080099828B1D4E901218F
:100AB0009047206A401C20622078C00622D520463C
:100AC000AFF300801EE0002E04DBB34502DD01A879
:100AD000805D00E03020D4E901219047206A401C6D
:100AE0002062761CAAF101005FEA000A0AD100F038
:100AF00055F8C0680168405CD4E901219047206A3C
:100B0000401C2062281EA5F10105DCDC07E0D4E9C9
:100B1000012118F8010B9047206A401C2062381E02
:100B2000A7F10107F3DC2046AFF30080032011B0EA
:100B300041E6000001694A1C02610878704700B56F
:100B40008FB0CDE901310021059105497944CDE906
:100B5000031011466846FFF7BFFC0FB000BD000050
:100B6000E5FFFFFF0A6802F8010B0A60704710B545
:100B7000436913B1AFF3008001E0FFF747FC0120A8
:100B800010BD127800F124010A7000224A7001227F
:100B9000EDE711684FF0FF32E9E7000000487047C9
:100BA0003800002030B5B0F10A0271F100034FEABD
:100BB000900E4EEA817EB0EB0E0061EB91014FEAA0
:100BC000101E4EEA017E10EB0E0041EB11114FEAB0
:100BD000102E4EEA016E10EB0E0041EB11214FEA90
:100BE000104E4EEA014E10EB0E0041EB1141401841
:100BF00041F100014FEAD00040EA41704FEAD101D3
:100C00004FEA810444EA907410EB800544EB010440
:100C10006D1944EB0404521BA3414FF0000348BF7D
:100C20000A3200D530BD401C41F1000130BD00004A
:100C30002DE9F0411F46044603260168072A01F406
:100C4000006004DB08B116A505E016A503E008B1B5
:100C500015A500E015A521F010002060A069C01EB8
:100C6000A0610FB1401EA0612046AFF300804FB1DC
:100C7000D4E9012138469047206A401C2062C01CFC
:100C8000206206E0206AFAE7D4E9012115F8010B99
:100C90009047761EF8D22046AFF30080BDE8F08181
:100CA0004E414E006E616E00494E4600696E660010
:100CB0002DE9F047814616468AB0354878440DC87C
:100CC0008DE80D0032487844801C03AC0DC884E8E0
:100CD0000D0041F69B300844372190FBF1F290FB68
:100CE000F1F5A5F1800501FB12041B3C02D564421D
:100CF000012000E00020DFF898A080460027FA4499
:100D0000AAF1BE0A0EE0E0070AD03246684607EBB9
:100D1000470101230AEB810102F089FA8DE80700FF
:100D200064107F1C002CEED1194F7F44AE3F19E0B8
:100D3000E80715D007EB04100DF1180A90E80E0033
:100D40008AE80E00C068F04201D198190890324636
:100D5000012306A903A802F06AFA03AB83E807009F
:100D60006D10641C002DE3D14FF00103324669463B
:100D7000B8F1000F03A802D002F044FA01E002F03B
:100D800056FAC9E90001C9F808200AB0BDE8F087A1
:100D9000E429000000487047180000207546FFF75E
:100DA000F9FFAE4605006946534620F00700854628
:100DB00018B020B5FFF78CFABDE820404FF00006D0
:100DC0004FF000074FF000084FF0000BAC46ACE8C6
:100DD000C009ACE8C009ACE8C009ACE8C00921F022
:100DE00007018D46704710B50446AFF300802046DA
:100DF000BDE81040FFF758BA30B44FF0013C50F84E
:100E0000042B51F8043BCCFA52F4D51A20D1FCB98A
:100E100050F8042B51F8043BCCFA52F4D51A17D1F0
:100E2000B4B950F8042B51F8043BCCFA52F4D51A5B
:100E30000ED16CB950F8042B51F8043BCCFA52F4A3
:100E4000D51A05D1002CDAD030BC4FF00000704725
:100E500029BAB1FA81F111F01801D1F120008440D2
:100E6000F2D1CA40CB4012F0FF0213F0FF0330BCB6
:100E7000D01A704701491820ABBEFEE726000200D9
:100E800070470000FEE7000070470000B0B5044660
:100E900000F0F4F8054640F20C00C2F200000078C1
:100EA000611C18BF044400BF00F0E8F8401BA042DA
:100EB000FAD3B0BD2DE9F04F83B000F1200200F16C
:100EC0003E4741F60005009207F1FF77C4F20205A4
:100ED00007224FEAB726A84208BF062200254FF096
:100EE00000084FF00009062E38BF4FEAB7220192E2
:100EF0000AE000BF09F1010908F10208B9F1100F79
:100F000005F1040500F0A2800F68012202FA09FE33
:100F100017EA0E0AEED0D1F804C003220CF0030742
:100F20007E1E02FA08F4012E6FEA040B12D88468C0
:100F3000CE6804EA0B0406FA08F634438460446879
:100F400024EA0E06CCF3001404FA09F426434660A2
:100F500004E000BF032F01D103271EE0C6688C68A0
:100F600006EA0B0604FA08F42643022FC66014D1E1
:100F70006FF00302009E02EA590756F807C005F019
:100F80001C040F220B69A2402CEA0202A3401A4360
:100F9000F251D1F804C00CF00307026807FA08F315
:100FA00002EA0B021A431CF4403F0260A2D0002266
:100FB00043F644030292C4F202031A6843F6004463
:100FC00042F480421A601A68C4F2010402F48042BA
:100FD0000292029A29F003024FF6084C2244CFF6FF
:100FE000FF7C52F80C3005F00C070F26BE40B343CF
:100FF000019E06FA07F73B4342F80C30A2684B68A3
:1010000042EA0A0743F60C4CDE0258BF22EA0A07FE
:10101000A760C4F2010CDCF800209E0242EA0A0735
:1010200058BF22EA0A07CCF8007062689E0342EAC1
:101030000A0758BF22EA0A0767602268DB0342EA10
:101040000A0758BF22EA0A07276053E703B0BDE842
:10105000F08F00000069084018BF012070470000B1
:10106000426902EA0103914341EA03418161704709
:10107000002A08BF090481617047000040F2101087
:10108000C2F200000068704740F20C0040F21011FC
:10109000C2F20000C2F2000100780A681044086041
:1010A0007047000080B543F60040C4F202000168BA
:1010B00041F400710160016841F4806101600168E0
:1010C00041F480710160032000F074F80F2000F0FB
:1010D00005F800F027F8002080BD000070B540F250
:1010E0000C06C2F2000640F214013278C2F200018E
:1010F0004FF47A730968B3FBF2F20446B1FBF2F1E4
:10110000084600F057FB0F2C4FF0010508D838B9FE
:101110004FF0FF3021460022002500F01FF87460D8
:10112000284670BD82B0002043F640010190C4F211
:1011300002014A6842F480424A604A6802F48042EE
:101140000192019A0090086840F080500860086899
:1011500000F080500090009802B0704710B54EF635
:101160000C5CCEF2000CDCF80030C3F3022E8EF0E3
:101170000704042C28BF0424BEF103034FF0FF3EF4
:101180000EFA04F438BF0023A14399400EFA03F38A
:101190009A43114300F00F0200F160430901043A41
:1011A00003F564436244002848BF02F10C03197040
:1011B00010BD00004EF60C51CEF200010A684FF649
:1011C000FF031A4060F30A2242F0806040F0FD7095
:1011D00008607047002804BF012070472DE9F041E6
:1011E00043F60808C4F202080446D8F8F8030D468E
:1011F00000F00F00814207D988F8F853D8F8F803B7
:1012000000F00F00A84277D12068810717D5410769
:1012100005D5D8F8001041F4E051C8F800100107D6
:1012200005D5D8F8001041F46041C8F80010D8F88E
:101230000010A26821F0F0011143C8F80010C007A7
:1012400040D1D8F8F80300F00F00854207D288F8A3
:10125000F853D8F8F80300F00F00A8424CD12068EA
:10126000410707D5D8F80010E26821F4E051114396
:10127000C8F80010000708D5D8F80000216920F44C
:10128000604040EAC100C8F8000000F055F8D8F806
:10129000001043F2BC62C1F30311C0F60002515CBE
:1012A00040F2140220FA01F140F21000C2F20000F4
:1012B0000068C2F200021160FFF710FF0020BDE8D5
:1012C000F08100BF6068811E022907D258F8081C0F
:1012D00089015CBF0120BDE8F08111E0012807D140
:1012E00058F8081C89035CBF0120BDE8F08107E0C5
:1012F00058F8081C890703D40120BDE8F08100BF1D
:10130000D8F8001021F003010843C8F80000FFF7E7
:10131000B5FE064641F28837D8F80000616800F053
:101320000C00B0EB810F8CD0FFF7A8FE801BB842F9
:10133000F2D90320BDE8F08110B543F60404C4F2ED
:1013400002046068C0F3810142F20040C0F2F40080
:10135000DFE801F04102082647F64000C0F27D10A8
:1013600010BD00BF206821682368490247F640018C
:10137000C0F27D1100F03F02C3F388105CBF42F25F
:101380000041C0F2F401A1FB00010023FEF7B2FF0F
:1013900021680222C1F3014102EB410119E000BFC3
:1013A000206821682368490247F64001C0F27D1198
:1013B00000F03F02C3F388105CBF42F20041C0F26C
:1013C000F401A1FB00010023FEF794FF2168C1F3A3
:1013D0000271B0FBF1F010BD002804BF012070477E
:1013E0002DE9F04182B00446007843F60006C007BC
:1013F000C4F202060CD0B06800F00C00042840F0E3
:1014000089803068800303D56068002800F050812F
:101410002078800723D5B06810F00C0F11D0B06889
:1014200000F00C00082802D17068400209D5B068AD
:1014300000F00C000C2840F09F807068400200F122
:101440009B803068800703D5E068012840F0308138
:101450003068216920F0F80040EAC100306020784F
:10146000000713D4207840072AD4A569002D00F086
:101470001A81B06800F00C00082840F0AB80012D04
:1014800040F0E880012002B0BDE8F08160690028EA
:1014900040F20000C4F2472000F088800121C0F82B
:1014A000801EFFF7EBFD0546706F8007DAD4FFF76B
:1014B000E5FD401B0228F7D9032002B0BDE8F0810A
:1014C000306C5FEAC0080AD400200190306C40F014
:1014D00080503064306C00F080500190019847F2E9
:1014E0000007C4F200073868C00537D4386840F4F4
:1014F00080703860FFF7C2FD054600BF3868C00540
:101500002CD4FFF7BBFD401B0228F7D9032002B003
:10151000BDE8F081B06800F00C00082803D17068C5
:1015200040023FF56EAFB06800F00C000C2803D10C
:10153000706840023FF565AF61683068B1F5803F83
:1015400007D0B1F5A02F40F0CB8040F48020306070
:10155000306840F480303060CBE000BFA168306F6D
:10156000012905D0052957D140F004003067306FBC
:1015700040F00100306759E0E068002800F09C80EE
:101580000020C4F2472001210160FFF777FD0546E6
:10159000306880073FF55CAFFFF770FD401B022805
:1015A0004FF00300F4D902B0BDE8F0810021C0F88B
:1015B000801EFFF763FD0546706F80077FF552AF11
:1015C000FFF75CFD401B0228F6D9032002B0BDE8FE
:1015D000F08100BF0027C4F2472700203866FFF7DC
:1015E0004DFD022D05460BD13068800140F19280FF
:1015F000FFF744FD401B02284FF00300F4D9D2E767
:10160000306880014FD5FFF739FD401B02284FF0AD
:101610000300F5D9C7E700BF20F001003067306F45
:10162000002920F00400306700F09880FFF726FDC5
:10163000054641F2883700BF306F800700F1A08077
:10164000FFF71CFD401BB842F6D9032002B0BDE8ED
:10165000F08100BF7068E16900F480028A4227D1FE
:10166000216A00F03F028A4222D147F6C071626AC5
:101670000140B1EB821F1BD1A16A4FF6FF73C90372
:10168000994300F44032A1F580318A4210D1E16AD9
:1016900000F07062B2EB016F0AD1216B00F0E04004
:1016A000B0EB017F04D1002002B0BDE8F08100BFA3
:1016B000012002B0BDE8F0810020C4F247200021E3
:1016C0000160FFF7DBFC0546306880077FF5C7AE99
:1016D000FFF7D4FC401B02284FF00300F4D962E767
:1016E00020F4803030603068002920F480203060A1
:1016F00050D0FFF7C3FC0546306880033FF588AE45
:10170000FFF7BCFC401B6428F6D9032002B0BDE8FB
:10171000F08100BF04F11C052FCD246B084340EA83
:101720008210D9034FF6FF729143A1F5803140EA50
:101730000560084340EA0470706001203866FFF7D6
:101740009DFC044630688001ADD4FFF797FC001B78
:1017500002284FF00300F5D925E700BFFFF78EFC04
:10176000054641F2883700BF306F800708D5FFF784
:1017700085FC401BB8424FF00300F5D913E700BFCA
:10178000B8F1000F3FF571AE306C20F0805030643E
:101790006BE600BFFFF772FC054600BF30688003B0
:1017A0007FF536AEFFF76AFC401B64284FF003005C
:1017B000F4D9F8E6411E0020B0EB116F1CBF0120E8
:1017C00070474EF21002CEF2000251604EF62351E5
:1017D000CEF20001F0230B7007219060116070477A
:1017E00090F83C20012A4FF0020254D010B580F846
:1017F0003D200268D2F804E0D2F808C00C682EF050
:101800007003234341F2FF74C4F20004A242536008
:101810000EDC40F2FF73C4F200039A4216DCB2F110
:10182000804F2BD040F20043C4F2000324E000BFFD
:1018300040F2FF33C4F201039A4213DC41F6000385
:10184000C4F200039A4219D0002313E040F60003CB
:10185000C4F200039A4211D040F60043C4F20003E0
:101860000AE000BF44F20003C4F201039A4205D02B
:1018700040F20043C4F201039A4204D149682CF0BB
:101880008003194391600121002280F83D1080F807
:101890003C20BDE81040104670470000002804BFFF
:1018A0000120704710B5044690F83D0028B900208B
:1018B00084F83C00204600F01FF8022084F83D0028
:1018C0002068211D00F066FE012084F8460084F89F
:1018D0003E0084F83F0084F8400084F8410084F81A
:1018E000420084F8430084F8440084F8450084F8FA
:1018F0003D00002010BD0000006840F60001C4F269
:101900000001884218BF704781B00020009043F664
:101910004000C4F20200016841F004010160006867
:1019200000F004000090009801B0704790F83D105E
:1019300001291CBF01207047022180F83D1000687A
:1019400041F2FF71C4F2000188420DDC40F2FF71E8
:10195000C4F20001884215DCB0F1804F2AD040F279
:101960000041C4F2000123E040F2FF31C4F2010162
:10197000884213DC41F60001C4F20001884219D00C
:10198000002113E040F60001C4F20001884211D0AA
:1019900040F60041C4F200010AE000BF44F2000139
:1019A000C4F20101884205D040F20041C4F20101B5
:1019B000884206D1816801F00701062904BF002092
:1019C0007047016841F0010101600020704700008C
:1019D00090F83C20012A4FF002026CD080B580F8CC
:1019E0003D20D0F800C04FF67772DCF8083023EACB
:1019F0000202CCF808200B684F2B29DC1F2B45DD99
:101A0000202B46D0302B44D0402B40F0AF80D1F873
:101A100004E0C968DCF82030DCF8202022F0010264
:101A2000CCF82020DCF8182022F0F00242EA011164
:101A300023F00A0242EA0E02CCF81810CCF820205B
:101A4000DCF8081041F0470121F0300128E000BF28
:101A50006F2B33DDB3F5005F74D0B3F5805F21D019
:101A6000702B40F08380D1E901E3C968DCF80820DD
:101A700043EA0E0322F47F4243EA01211143CCF8EA
:101A80000810DCF8081041F0770109E00BB1102BC9
:101A90006CD1DCF8081021F07001194341F0070106
:101AA000CCF808100022012180F83D10002180F8B8
:101AB0003C10BDE880401046704700BF502B21D03D
:101AC000602B53D1D1F804E0C968DCF82030DCF891
:101AD000202022F01002CCF82020DCF8182022F47C
:101AE000704242EA013123F0A00242EA0E12CCF821
:101AF0001810CCF82020DCF8081041F0670121F024
:101B00001001CDE7D1F804E0C968DCF82030DCF83A
:101B1000202022F00102CCF82020DCF8182022F04E
:101B2000F00242EA011123F00A0242EA0E02CCF866
:101B30001810CCF82020DCF8081041F0570121F0F3
:101B40002001ADE7D1E901E3C968DCF8082043EAE8
:101B50000E0322F47F4243EA01211143CCF808101E
:101B6000DCF8081041F480419AE700BF01229AE7AF
:101B7000FEE7000070B50025C4F2020505F500641B
:101B8000204601210022FFF773FA05F580663046F2
:101B900001210022FFF76CFA284610210022FFF7EE
:101BA00067FA284602210022FFF762FA284601213F
:101BB0000022FFF75DFA204602210122FFF758FAC2
:101BC0000420FFF763F9204602210022FFF750FAB4
:101BD000204601210022FFF74BFA30460121012265
:101BE000FFF746FA284610210122FFF741FA28465E
:101BF00002210122FFF73CFA284601210122FFF7CA
:101C000037FA204602210122FFF732FA0420FFF7BB
:101C10003DF9204602210022BDE87040FFF728BAB6
:101C200070B50025C4F2020505F5006420460121C7
:101C30000022FFF71DFA05F58066304601210022DB
:101C4000FFF716FA284610210022FFF711FA28465E
:101C500002210022FFF70CFA284601210022FFF79B
:101C600007FA204602210122FFF702FA0420FFF7BB
:101C70000DF9204602210022FFF7FAF92046012142
:101C80000022FFF7F5F9304601210022FFF7F0F9B5
:101C9000284610210122FFF7EBF9284602210022F5
:101CA000FFF7E6F9284601210022FFF7E1F9204677
:101CB00002210122FFF7DCF90420FFF7E7F82046B4
:101CC00002210022BDE87040FFF7D2B9072888BF83
:101CD000704710B508780C4600F0DCFB607800F027
:101CE000D9FBA07800F0D6FBE07800F0D3FB207998
:101CF00000F0D0FB607900F0CDFBA07900F0CAFBCA
:101D0000E079BDE8104000F0C5BB000070B50025CB
:101D1000C4F2020505F50064204601210022FFF708
:101D2000A7F905F58066304601210022FFF7A0F9EA
:101D3000284610210022FFF79BF9284602210122A4
:101D4000FFF796F9284601210022FFF791F9204676
:101D500002210122FFF78CF90420FFF797F82046B3
:101D600002210022FFF784F9204601210022FFF71B
:101D70007FF9304601210022FFF77AF92846102129
:101D80000022FFF775F9284602210022FFF770F9BB
:101D9000284601210022FFF76BF92046022101228B
:101DA000FFF766F90420FFF771F8204602210022B0
:101DB000BDE87040FFF75CB970B50025C4F20205BC
:101DC00005F50064204601210022FFF751F905F5D1
:101DD0008066304601210022FFF74AF9284610218B
:101DE0000022FFF745F9284602210022FFF740F9BB
:101DF000284601210022FFF73BF92046022101225B
:101E0000FFF736F90420FFF741F8204602210022AF
:101E1000FFF72EF9204601210022FFF729F930466D
:101E200001210122FFF724F9284610210022FFF7A3
:101E30001FF9284602210022FFF71AF9284601213E
:101E40000022FFF715F9204602210122FFF710F9C1
:101E50000420FFF71BF8204602210022BDE8704055
:101E6000FFF706B970B50024C4F2020404F58065DA
:101E7000284601210022FFF7FBF82046102100220E
:101E8000FFF7F6F8204602210022FFF7F1F820467E
:101E900001210022FFF7ECF81420FEF7F7FF04F50C
:101EA0000066304601210022FFF7E2F828460121B2
:101EB0000122FFF7DDF8204610210122FFF7D8F8B4
:101EC000204602210022FFF7D3F8204601210022FC
:101ED000FFF7CEF8304602210122FFF7C9F80420AF
:101EE000FEF7D4FF304602210022FFF7C1F805209B
:101EF000FEF7CCFF304601210022FFF7B9F8284653
:101F000001210122FFF7B4F8204610210122FFF73A
:101F1000AFF8204602210022FFF7AAF8204601214F
:101F20000022FFF7A5F8304602210122FFF7A0F8B2
:101F30000420FEF7ABFF304602210022FFF798F89D
:101F40000B20FEF7A3FF304601210022FFF790F897
:101F5000284601210122FFF78BF82046102101229B
:101F6000FFF786F8204602210022FFF781F820467D
:101F700001210022FFF77CF8304602210122FFF701
:101F800077F80420FEF782FF304602210022FFF797
:101F90006FF8304601210022FFF76AF82846012138
:101FA0000022FFF765F8204610210122FFF760F8B4
:101FB000204602210022FFF75BF820460121002283
:101FC000FFF756F8304602210122FFF751F80420AE
:101FD000FEF75CFF304602210022FFF749F8304649
:101FE00001210022FFF744F8284601210022FFF7D3
:101FF0003FF8204610210122FFF73AF8204602213F
:102000000022FFF735F8204601210022FFF730F8C3
:10201000304602210122FFF72BF80420FEF736FF9D
:10202000304602210022FFF723F83046012100222A
:10203000FFF71EF8284601210022FFF719F8204675
:1020400010210022FFF714F8204602210022FFF79A
:102050000FF8204601210122FFF70AF8304602213D
:102060000122FFF705F80420FEF710FF3046022199
:102070000022FEF7FDFF304601210022FEF7F8FFA7
:10208000284601210022FEF7F3FF204610210022FE
:10209000FEF7EEFF204602210022FEF7E9FF204670
:1020A00001210022FEF7E4FF304602210122FEF763
:1020B000DFFF0420FEF7EAFE304602210022FEF791
:1020C000D7FF304601210022FEF7D2FF284601212A
:1020D0000022FEF7CDFF204610210022FEF7C8FFA8
:1020E000204602210122FEF7C3FF204601210122E2
:1020F000FEF7BEFF304602210122FEF7B9FF0420A1
:10210000FEF7C4FE304602210022FEF7B1FF304642
:1021100001210022FEF7ACFF284601210022FEF734
:10212000A7FF204610210022FEF7A2FF2046022131
:102130000022FEF79DFF204601210022FEF798FFB6
:10214000304602210122FEF793FF0420FEF79EFE97
:10215000304602210022FEF78BFF3046012100228B
:10216000FEF786FF284601210022FEF781FF204668
:1021700010210122FEF77CFF204602210122FEF7FA
:1021800077FF204601210022FEF772FF3046022130
:102190000122FEF76DFF0420FEF778FE3046022193
:1021A0000022FEF765FFBDE87040FFF705BE0000A6
:1021B00070B50025C4F2020505F500642046012132
:1021C0000022FEF755FF05F580663046012100220A
:1021D000FEF74EFF284610210022FEF749FF284651
:1021E00002210022FEF744FF284601210022FEF7CB
:1021F0003FFF204602210122FEF73AFF0420FEF7AE
:1022000045FE204602210022FEF732FF2046012132
:102210000022FEF72DFF304601210022FEF728FFA5
:10222000284610210022FEF723FF28460221012222
:10223000FEF71EFF284601210122FEF719FF204666
:1022400002210122FEF714FF0420FEF71FFE2046A4
:1022500002210022BDE87040FEF70ABF0138C2B279
:10226000032A88BF70472DE9F041C0004BF67F720A
:102270000025C0B2CDF29332C4F2020522FA00F07A
:1022800005F500640F182046012100225FFA87F847
:10229000FEF7EEFE05F58066C7F300123046012119
:1022A000FEF7E6FEC7F3401228461021FEF7E0FED7
:1022B000C7F3801228460221FEF7DAFE4FEAD81251
:1022C00028460121FEF7D4FE204602210122FEF716
:1022D000CFFE0420FEF7DAFD204602210022FEF7A1
:1022E000C7FE204601210022FEF7C2FE07F00102D0
:1022F00030460121FEF7BCFEC7F3400228461021FC
:10230000FEF7B6FEC7F3800228460221FEF7B0FEB4
:10231000C7F3C00228460121FEF7AAFE204602218B
:102320000122FEF7A5FE0420FEF7B0FD20460221A3
:102330000022BDE8F041FEF79BBE000070B500250D
:10234000C4F2020505F50064204601210022FEF7D3
:102350008FFE05F58066304601210122FEF788FEDA
:10236000284610210022FEF783FE28460221002283
:10237000FEF77EFE284601210022FEF779FE204668
:1023800002210122FEF774FE0420FEF77FFD2046A5
:1023900002210022FEF76CFE204601210022FEF7FA
:1023A00067FE304601210022FEF762FE284610211A
:1023B0000022FEF75DFE284602210022FEF758FEAD
:1023C000284601210122FEF753FE20460221012268
:1023D000FEF74EFE0420FEF759FD204602210022A2
:1023E000BDE87040FEF744BE70B50025C4F202059A
:1023F00005F50064204601210022FEF739FE05F5AF
:102400008066304601210122FEF732FE2846102167
:102410000022FEF72DFE284602210022FEF728FEAC
:10242000284601210022FEF723FE20460221012238
:10243000FEF71EFE0420FEF729FD204602210022A1
:10244000FEF716FE204601210022FEF711FE30465F
:1024500001210022FEF70CFE284610210022FEF783
:1024600007FE284602210122FEF702FE284601212E
:102470000122FEF7FDFD204602210122FEF7F8FDB4
:102480000420FEF703FD204602210022BDE8704033
:10249000FEF7EEBDF0B581B00025C4F2020505F5EA
:1024A00000640646204601210122FEF7E1FD05F504
:1024B0008067C6F3001238460121FEF7D9FDC6F346
:1024C000401228461021FEF7D3FDC6F3801228469D
:1024D0000221FEF7CDFDF20928460121FEF7C8FDD5
:1024E000204602210122FEF7C3FD282000F0F2F869
:1024F000204602210022FEF7BBFD06F0010238460D
:102500000121FEF7B5FDC6F3400228461021FEF773
:10251000AFFDC6F3800228460221FEF7A9FDC6F3EF
:10252000C00228460121FEF7A3FD20460221012218
:10253000FEF79EFD282000F0CDF820460221002263
:1025400001B0BDE8F040FEF793BD0000017800291E
:1025500008BF704710B5441EC8B2FFF79BFFA178B3
:1025600001340029F8D1BDE810407047FEE70000B3
:10257000FEE700007047000070470000FEF784BDD2
:102580004EF68850CEF20000016841F470010160FF
:1025900070470000B0B540F6FF3E0568C4F2000E7B
:1025A00040F2004C7045C4F2010C25DCB0F1804FC4
:1025B0002FD040F20043C4F20003984229D040F6E5
:1025C0000003C4F20003984223D041F6FF73C4F223
:1025D0000003984228DC70453ADCB0F1804F5BD0B4
:1025E00040F20043C4F20003984255D040F6000385
:1025F000C4F200034EE000BF40F60043C4F2000303
:10260000984206D0604504D00023C4F201039842EA
:10261000DBD14B6825F0700243EA020541F6FF73F7
:10262000C4F200039842D6DD43F6FF73C4F20103FF
:1026300098421FDC42F20003C4F2000398422BD000
:102640000023C4F20103984226D0604524D028E03C
:1026500040F60043C4F2000398421DD041F6000347
:10266000C4F20003984217D041F60043C4F20003BD
:1026700010E000BF44F20003C4F2010398420BD003
:1026800044F60003C4F20103984205D044F200432B
:10269000C4F20103984204D1CB6825F4407243EAA6
:1026A00002050A688C684B69C46240F480648262E7
:1026B000644504BF09690163026825F0800142F0A6
:1026C000040219430260012242610160B0BD0000B2
:1026D000FEE7000040F2C801C2F2000109684A6A40
:1026E00092B208E04B6A9B1A834228BF70474B6A3C
:1026F0009B1A834207D24B6A9B1A834203D24B6ACE
:102700009B1A8342EED3704794B043F63006002400
:10271000C4F20206C4F20204FEF7C4FC07AD284668
:102720003421FDF775FF00270697CDE90477CDE941
:10273000027701973069012240F0805030613069A2
:1027400000F080500190019847F200000197CFF609
:10275000FE70215862F38F312150205800F4404020
:10276000019001980220079010200B9028460A92B1
:102770000D97FEF731FE18B172B600BFFEE700BF3D
:102780000F20CDE9020702A80021CDE904770697C2
:10279000FEF720FD10B172B6FEE700BF00270B97D1
:1027A000CDE90977CDE907770297306804F5006530
:1027B00040F0040030603068032100F00400029013
:1027C000029802973068002240F0010030603068C3
:1027D0004FF0030900F00100029002980297306860
:1027E00040F002003060306800F002000290029871
:1027F0002846FEF73DFC204640F23351002240F2CD
:10280000335BFEF735FC04F58066304640F2394113
:102810000022FEF72DFC4FF400500DF11C08CDE90D
:1028200007074FF0010A28464146CDF824A0FEF7DD
:1028300041FB28464146CDE9079ACDE90977FEF7E5
:1028400039FB20464146CDE907BACDE90977FEF7C5
:1028500031FB0C2007A981E8810420464146FEF7A0
:1028600029FB40F23940CDE9070A30464146CDE91F
:102870000977FEF71FFB40F2C80040F60001C2F2E4
:102880000000C4F200014FF6FF730A97CDE9087704
:10289000CDE90277102280E88600C0E9033787611E
:1028A000FEF7FCFF10B172B6FEE700BF4FF4805098
:1028B000079040F2C800C2F2000007A9FFF788F8AD
:1028C00010B172B6FEE700BF40F2C807C2F20007BF
:1028D00002A93846FEF784FF10B172B6FEE700BFCA
:1028E0003846FFF723F8386800214162FFF7BAFA4B
:1028F0000F20FEF7CBFAFFF709FA43F2CC61C0F6DE
:1029000000010020FFF7E2F943F2D461C0F60001B4
:102910000120FFF7DBF9FFF783F9FFF74DFAFFF727
:1029200047FC01200121FFF799FC40F20007C2F2A9
:102930000007781CFFF70AFE02200121FFF78EFC3A
:10294000D3A0FFF703FE4FF47A70FEF79FFAFFF76C
:1029500033FA02200121FFF781FC40F2780AC2F22B
:10296000000A9FEDC90B97F800C00AF1080753EC65
:10297000102BCCA13846CDF800C0FDF733FD38460A
:10298000FFF7E4FD01200821FFF768FC7A20FFF73C
:1029900081FD40F2DC50FEF779FAFFF70DFA0FF2F5
:1029A000443BD4A70FF254385BE100BF3220FEF75E
:1029B0006DFA204608210122FEF75AFB2046042129
:1029C0000122FEF755FB20464FF480610022FEF7FE
:1029D0004FFB304608210022FEF74AFB30462021FB
:1029E0000022FEF745FB304610210022FEF740FB97
:1029F00030464FF480610122FEF73AFB20464FF447
:102A000080710122FEF734FB01200121FFF726FC33
:102A1000A8A0FFF79BFD02200121FFF71FFCA9A042
:102A2000FFF794FD02200C21FFF718FCFFF7A2F836
:102A30004FF4FA60FEF72AFAFFF7BAFBFFF7BCF98A
:102A40004FF4C870FEF722FA01200121FFF706FCBF
:102A50009FA0FFF77BFD02200121FFF7FFFB002075
:102A6000FFF718FD0120FFF715FD40F2DC50FEF7DF
:102A70000DFAFFF7A1F94FF4C870FEF707FA01202D
:102A80000121FFF7EBFB5846FFF760FD4FF4FA70AA
:102A9000FEF7FCF9FFF7A8FC4FF49670FEF7F6F985
:102AA000FFF7A2FC4FF49670FEF7F0F9FFF79CFCDD
:102AB0004FF49670FEF7EAF9FFF796FC4FF4967024
:102AC000FEF7E4F9FFF790FC4FF49670FEF7DEF99D
:102AD000FFF78AFC4FF49670FEF7D8F9FFF784FCF5
:102AE0004FF49670FEF7D2F9FFF77EFC4FF4967024
:102AF000FEF7CCF9FFF778FC4FF49670FEF7C6F9B5
:102B0000FFF772FC4FF49670FEF7C0F9FFF76CFC0C
:102B10004FF49670FEF7BAF9FFF766FC4FF4967023
:102B2000FEF7B4F9FFF760FC4FF49670FEF7AEF9CC
:102B3000FFF75AFC4FF49670FEF7A8F9FFF754FC24
:102B40004FF49670FEF7A2F94FF49670FEF79EF9D7
:102B5000FFF7F4FB4FF49670FEF798F9FFF7EEFBE2
:102B60004FF49670FEF792F9FFF7E8FB4FF496707A
:102B7000FEF78CF9FFF7E2FB4FF49670FEF786F94B
:102B8000FFF7DCFB4FF49670FEF780F9FFF7D6FBFA
:102B90004FF49670FEF77AF9FFF7D0FB4FF496707A
:102BA000FEF774F9FFF7CAFB4FF49670FEF76EF963
:102BB000FFF7C4FB4FF49670FEF768F9FFF7BEFB12
:102BC0004FF49670FEF762F9FFF7B8FB4FF496707A
:102BD000FEF75CF9FFF7B2FB4FF49670FEF756F97B
:102BE000FFF7ACFB4FF49670FEF750F9FFF7A6FB2A
:102BF0004FF49670FEF74AF9FFF7A0FB4FF496707A
:102C0000FEF744F9FFF7D8F84FF4C870FEF73EF925
:102C100001200121FFF722FBDAF800200AF11C094C
:102C200048463946FDF7DEFB4846FFF78FFC022099
:102C30000121FFF713FBDAF8040000F06BFC0246F9
:102C40000B4648464146FDF7CDFB4846FFF77EFC64
:102C500040F2DC50FEF71AF9FFF7AEF86420FEF7F9
:102C600015F920462021FEF7FBF928464FF40051C4
:102C7000FEF7F0F900287FF499AE0420FEF706F97C
:102C80004FF47A7093E600BFF1D4C853FB2109409A
:102C900050494320206573206C61206F6E64612170
:102CA00000000000202025302E3266202020202029
:102CB0002563000054657374204C434420313678FA
:102CC0003200000050494331384634353530000079
:102CD000434752414D20436172616374657265736D
:102CE00000000000486F6C61206120746F646F7396
:102CF00000000000496E743A20257500466C6F6133
:102D0000743A2025302E3266000000005FEA400C45
:102D100008BF91F0000F4FEA8C234FEAC12243EA2B
:102D200051514FEA1C5018BF00F5F0404FEA3000F7
:102D300018BF41F000415FEA6C5C00F02980BCF1F3
:102D4000FF3F08BF40F080407047130C06BF1204DD
:102D50004FF0100C4FF0000C130E04BF12020CF1D8
:102D6000080C130F04BF12010CF1040C930F04BFE5
:102D700092000CF1020CD30F04BF52000CF1010CB5
:102D800011464FF00002A0F11F00A0EB0C007047AD
:102D900011F0004F08BF704731F000413FF4D5AF4C
:102DA0000B0C06BF09044FF0100C4FF0000C0B0E7B
:102DB00004BF09020CF1080C0B0F04BF09010CF150
:102DC000040C8B0F04BF89000CF1020CCB0F04BF65
:102DD00049000CF1010CCCF1200322FA03F341EA83
:102DE000030102FA0CF2A0EB0C0000F101007047A5
:102DF00023F07F4720F07F4C80EA030000F0004082
:102E0000ACEB070303F57C5303F1FF032DE9804985
:102E100009B44FEA144324EA03484FEA154B25EA64
:102E20000B4E0FF2042606EB13273E7803FB0667D2
:102E3000C7F5000707FB06F64FEAD64606F102067D
:102E40004FEA543707FB066CCCF1005C4FEA1C4795
:102E50002CEA074C0CFB06F507FB06F404EB1546C1
:102E60004FEA961649085FEA320234BF00204FF05D
:102E700000404FEAD13706FB07FC4FEA1C4C0CFB25
:102E80000BF7D21B03FB0CF761EB07010CFB0EF7F2
:102E9000B0EB074072EB17420CFB08F734BFA2EB14
:102EA0000742B2EB074261EB17414FEA0C444FEA8D
:102EB000910706FB07FC4FEA1C4C0CFB0BF7B0EB31
:102EC000C74072EB573203FB0CF734BFA2EBC7428B
:102ED000B2EBC74261EB57310CFB0EF7B0EBC7000A
:102EE00072EB57720CFB08F734BFA2EBC702B2EBD0
:102EF000C70261EB57714FEA816141EA92114FEAD3
:102F0000826242EA90124FEA806004EBCC04039F95
:102F10004FEAD13706FB07FC4FEA1C4C0CFB0BF7C2
:102F2000D21B03FB0CF761EB07010CFB0EF7B0EBB8
:102F3000074072EB17420CFB08F734BFA2EB0742C5
:102F4000B2EB074261EB17414FEA8C5504EB9C242E
:102F50004FEA910706FB07FC4FEA1C4C0CFB0BF7F2
:102F6000B0EBC74072EB573203FB0CF734BFA2EB58
:102F7000C742B2EBC74261EB57310CFB0EF7B0EB27
:102F8000C70072EB57720CFB08F734BFA2EBC70205
:102F9000B2EBC70261EB57714FEA816141EA9211CE
:102FA0004FEA826242EA90124FEA806015EB4C25AC
:102FB00044F100044FEAD13706FB07FC4FEA1C4CF2
:102FC0000CFB0BF7D21B03FB0CF761EB07010CFBAF
:102FD0000EF7B0EB074072EB17420CFB08F734BF5B
:102FE000A2EB0742B2EB074261EB17414FEA813196
:102FF00041EA92414FEA823242EA90424FEA8030FF
:103000004FEA0C7615EB1C1544F1000448EA034323
:103010004EEA0B484FF0000EB2EB080C71EB0307C1
:1030200024BF624639464EEB0E0E4FF0000B0018DF
:10303000524149414BEB0B0BB2EB080C71EB030710
:103040007BF1000B24BF624639464EEB0E0E4FF06B
:10305000000B0018524149414BEB0B0BB2EB080C33
:1030600071EB03077BF1000B24BF624639464EEB40
:103070000E0E51EA020718BF46F0010616EB0E7657
:1030800055F1000254F1000103D5BDE88901BDE806
:103090000088BDE88901BDE80048B619524141EBFE
:1030A0000101A3F10103704780807F7E7D7C7B7AE4
:1030B0007978777676757473727171706F6E6E6DE4
:1030C0006C6C6B6A6A69686867666665646463638A
:1030D00062616160605F5F5E5E5D5D5C5C5B5B5A10
:1030E0005A5959585857575656555555545453537D
:1030F00052525251515050504F4F4F4E4E4D4D4DD8
:103100004C4C4C4B4B4B4A4A4A4949494848484722
:103110004747474646464545454444444443434360
:1031200043424242424141419C46002B30D4770009
:103130002BD04FEA37071CB503B44FF010004FF007
:103140001001BAF1000F06D0BCF1000FDCBF40F057
:10315000080040F008014FF000000FBCBDE810402F
:103160000BF1010BBBF1010F08BF5FEA170722BF8C
:1031700012F1010211F101014FF0004143F100038E
:1031800000F0004043EA00007047F9D35708D0E749
:1031900046EA06464FEA164613F1400F1FDD13F1CB
:1031A000200FDFBF16430A46002120335B42BED00A
:1031B000C3F1200746EA06464FEA164602FA07F729
:1031C00046EA070622FA03F2C3F1200701FA07F7DD
:1031D00042EA070221FA03F14FF00003A7E746EAAB
:1031E000020646EA06464FEA164646EA0106BCBF14
:1031F00046EA0646360C4FF000034FF000024FF04F
:10320000000194E72DE9804C70B49A46934691E80A
:10321000380007C831EA400C48BF34EA430C03D5F4
:10322000FFF7E6FDFFF780FFF0BCBDE8008C2DE95D
:10323000804C70B49A46934691E8380007C810F065
:10324000804F08BF13F0804F03D100F005F8FFF75F
:103250006BFFF0BCBDE8008C20F07F4723F07F4C73
:1032600080EA030000F0004007EB0C03A3F57C5359
:10327000A3F1FE0392F0000F00F0B38095F0000F71
:1032800000F077802DE901494FEA114021EA00481A
:103290004FEA144624EA064700FB06FC08FB06F644
:1032A00007FB08F818EB06484CEB164C00FB07F739
:1032B00018EB07484CEB17404FEA124B22EA0B4E33
:1032C0004FEA154625EA06470BFB06FC0EFB06F601
:1032D00007FB0EFE1EEB064E4CEB164C0BFB07F7E6
:1032E0001EEB074E4CEB174B18EB0B0840F10000A0
:1032F00018EB0E0B58EB000840F100008F1A4FF04E
:1033000000014FF000063CBFC943661B14BFB5EB7C
:10331000040C00213CBFC943F61B4FEA174427EABF
:1033200004454FEA1C472CEA074C04FB076205FBE7
:1033300007F70CFB05F616EB074642EB174204FBBA
:103340000CFC16EB0C4642EB1C421BEB060658EB42
:10335000020241414EEA8E0E46EA9E0601D5BDE8C4
:103360000189B619524141EB0101A3F10103BDE806
:1033700001894FEA144524EA05464FEA114721EA3C
:10338000074C05FB07F406FB07F70CFB06F111EBF6
:10339000074144EB174405FB0CFC11EB0C4144EBDB
:1033A0001C444FEA124722EA074C05FB07F206FBD2
:1033B00007F70CFB06F616EB074642EB174205FB38
:1033C0000CFC16EB0C4642EB1C456A1854F100014C
:1033D00048BF7047B619524141EB0101A3F1010307
:1033E000704795F0000F37D04FEA114221EA0246AC
:1033F0004FEA144724EA074C02FB07F106FB07F7E4
:103400000CFB06F414EB074441EB174102FB0CFCE8
:1034100014EB0C4441EB1C414FEA154725EA074CDD
:1034200002FB07F506FB07F70CFB06F616EB074653
:1034300045EB174502FB0CFC16EB0C4645EB1C421A
:10344000121951F1000148BF7047B619524141EBC2
:103450000101A3F1010370474FEA144524EA054630
:103460004FEA114721EA074C05FB07F106FB07F776
:103470000CFB06F212EB074241EB174105FB0CFC7B
:1034800012EB0C4251EB1C414FF0000648BF704755
:10349000921841EB0101A3F10103704703B40198B5
:1034A0004100009850EAC12018BF04204A0D18BFFF
:1034B00040F0010040F2FF72B2EB515F08BF40F0F4
:1034C0000200012808BF052002B0704730380A28E2
:1034D00001D20120704700207047000010B500297C
:1034E0000AD00878002807D005487844FDF784FC06
:1034F000002801D0002010BD0248784410BD000013
:10350000120200000A0200000808A0F500114FEAAC
:103510003101704743004FEAD30C4FEA3C0C434063
:103520001FBF40070CF1605113F0FE4F70471CF0B5
:10353000006F03D10CF00041002070470CF00043F5
:1035400043EA507040EACC0010B500F00EF800BF1E
:10355000000000924FEA0001FFF7D6BF4FF0004194
:10356000A1F500214FF0000070470EF1020E2EF081
:10357000030E5EF8044B244204D44FEA4102B2F138
:103580007F4F11D84FEA4003B3F17F4F0CD80ED1D3
:103590004FEAD07C0CEB4C0C0CF1020CB2F17F4FDB
:1035A00008BF4CEBD17C04E04FF0080C01E04FEA7F
:1035B000D17C0CEB4C0324FA03F404F00704B4F1BF
:1035C000040C06D20EEB840CBDE810404CF0010C4C
:1035D0006047DFE80CF0070802024FF00040A0F55A
:1035E000800010BD0846420018BFD2F1807288BF2B
:1035F00000F0004010BDF1EE100A4FF6FF71C0F26E
:10360000C03120EA010040F04070E1EE100A70473E
:10361000FDF759B904000008000000000000000296
:10362000000100001000000002400000000000A0A7
:103630000000000005400000000000C8000000007D
:103640000C4000000000409C0000000019400000F9
:103650000020BCBE0000000034400000BFC91B8E2B
:1036600000000004B5400000504BCFD06607E2CF09
:10367000010000006C4100003E8251AADFEEA73439
:1036800001000000D9420000DCB5A0E23A301F97EB
:10369000FFFFFFFFB4450000FD25A0C8E9A3C14F0F
:1036A000FFFFFFFFFF3F0000000000800000000060
:1036B000FF3F00000000008000000000000000004C
:1036C0000000000001020304060708090A0A0A00B4
:1036D00011110E000004021F020400001837000838
:1036E0000000002018000000280200083037000801
:1036F0001800002000070000480200081C0000001D
:1037000043000000F8FFFFFF0C0000000E00000067
:103710000F0000002E0000004D4C4344206B6579E3
:103720003A20000001000000100000000024F40016
:04000005080001C529
:00000001FF
