:020000040800F2
:10000000D8060020C5010008ED19000851120008AB
:10001000E9190008650300080D1A00080000000037
:10002000000000000000000000000000F5190008BA
:100030006903000800000000F1190008F919000820
:10004000DF010008DF010008DF010008DF01000810
:10005000DF010008DF010008DF010008DF01000800
:10006000DF010008DF010008DF010008DF010008F0
:10007000DF010008DF010008DF010008DF010008E0
:10008000DF010008DF010008DF010008DF010008D0
:10009000DF010008DF010008DF010008DF010008C0
:1000A000DF010008DF010008DF010008DF010008B0
:1000B000DF010008DF010008011A0008DF01000865
:1000C000DF010008DF010008DF010008DF01000890
:1000D000DF010008DF010008DF010008DF01000880
:1000E000DF010008DF010008DF01000800F002F86E
:1000F00000F059F814A696E8000CB244B344DA456F
:1001000001D100F050F8BAE80F000FA696E83000D1
:10011000A5EB040504EB0607AAEB0704A7F101070A
:100120004FEA15154FEA3414A4F10104AC4201D38F
:1001300000F039F813F0010F18BFFB1A43F0010368
:1001400000F001F8DBE71847E41C0000041D000084
:10015000103A24BF78C878C1FAD8520724BF30C8F3
:1001600030C144BF04680C60704700007047000055
:100170000023002400250026103A28BF78C1FBD8B0
:10018000520728BF30C148BF0B6070471FB500F051
:100190006BF804000020002101F018FE401C606094
:1001A0001FBD10B510BD00F0A7F81146FFF7EEFF18
:1001B00001F048FC00F0C5F803B4FFF7F2FF03BC00
:1001C00000F0C8F80948804709480047FEE7FEE705
:1001D000FEE7FEE7FEE7FEE7FEE7FEE7FEE7FEE7F7
:1001E00004480549054A064B70470000FD19000800
:1001F000ED000008D8000020D8060020D80200201A
:10020000D802002010B500F02FF8001D10BD00BF6F
:10021000BD1B00004FF0000200B513469446964601
:10022000203922BFA0E80C50A0E80C50B1F1200109
:10023000BFF4F7AF090728BFA0E80C5048BF0CC0B7
:100240005DF804EB890028BF40F8042B08BF704715
:1002500048BF20F8022B11F0804F18BF00F8012B87
:100260007047704770477047004870474000002053
:1002700000487047200000204FF0013C50F8042B4C
:1002800051F8043B9A4221D1A2EB0C03934313EAA9
:10029000CC1317D150F8042B51F8043B9A4215D1D6
:1002A000A2EB0C03934313EACC130BD150F8042BAD
:1002B00051F8043B9A4209D1A2EB0C03934313EA91
:1002C000CC13DBD04FF00000704700BFD01A01BA4A
:1002D000B1FA81F101F0180122FA01F0CB40DBB252
:1002E000C0B2C01AC1F120012CFA01F3D11A914316
:1002F00011EAC311E6D170477546FFF7B9FFAE4664
:1003000005006946534620F00700854618B020B521
:10031000FFF766FFBDE820404FF000064FF00007F2
:100320004FF000084FF0000BAC46ACE8C009ACE859
:10033000C009ACE8C009ACE8C00921F007018D464E
:10034000704710B50446AFF300802046BDE810406A
:10035000FFF732BF01491820ABBEFEE726000200BE
:1003600070470000FEE7000070470000B0B504468B
:1003700000F024F9054640F21000C2F200000078B7
:10038000611C18BF044400BF00F018F9401BA042D4
:10039000FAD3B0BD2DE9F04F82B00E68002E00F008
:1003A000FD8041F20042C4F20102042340F2004EFB
:1003B000904208BF03234FF6FF7CC4F2010E009366
:1003C00000240123C1F2100C4FF0000A4FF0000985
:1003D0004BE000BF41F20002C4F20102009F9042D4
:1003E00008BF022704F00C030F229A402BEA0202F6
:1003F00007FA03F34FEA9A051A4346F825204E6898
:1004000040F20C45F202DEF8082054BF22EA08024E
:1004100042EA0802C4F20105CEF808202A68B302B5
:1004200054BF22EA080242EA08022A60B303DEF857
:10043000042054BF22EA080242EA0802F303CEF87D
:100440000420DEF800204FF0010354BF22EA080226
:1004500042EA0802CEF800200E680AF1010A36FAD4
:100460000AF204F1040400F0998003FA0AFB16EA88
:100470000B08F1D04E68664512DC122E56D8DFE824
:1004800006F0350B4D49555555555555555555554E
:1004900055555545510000BFD1F80C9046E000BFBE
:1004A0004FF6FF72C1F2210296420FDC0022C1F228
:1004B000110296421AD00022C1F21202964215D0C1
:1004C0000022C1F22102964210D02FE00022C1F298
:1004D000220296420AD00022C1F23102964205D091
:1004E0000022C1F23202964220D100BF8A684AB18E
:1004F000012A14BFC0F814B0C0F810B04FF00809BA
:1005000014E000BF4FF0040910E000BFCA6802F118
:1005100004090BE04FF0000908E000BFCA6802F1CF
:10052000080903E0CA6802F10C0900BF024626462A
:10053000B8F5807F24BF0432203E17680F25B540F0
:1005400027EA050509FA06F635431560CA79D20689
:100550007FF582AF41F21803C4F202031A68AEF5C8
:100560007E7642F001021A601A6802F001020192DE
:10057000019A2AF0030256F802B040F60002C4F2D3
:100580000102904208D040F60042C4F201029042BB
:100590007FF420AF012725E7002723E702B0BDE85D
:1005A000F08F00008068084018BF012070470000ED
:1005B000002A08BF090401617047000040F2D00022
:1005C000C2F200000068704740F2100040F2D00113
:1005D000C2F20000C2F2000100780A68104408600C
:1005E0007047000080B542F20000C4F202000168CA
:1005F00041F010010160032000F08CF80F2000F0A2
:1006000005F800F027F8002080BD000070B540F22A
:100610001006C2F2000640F218013278C2F2000160
:100620004FF47A730968B3FBF2F20446B1FBF2F1BE
:10063000084600F05DFB0F2C4FF0010508D838B9D3
:100640004FF0FF3021460022002500F037F874609B
:10065000284670BD82B041F21800C4F20200016861
:10066000042241F001010160016801F001010191E2
:100670000199416841F080514160406800F080502C
:10068000009000980420C4F20100016862F31A612E
:10069000016002B070470000002848BF704700F0BA
:1006A0001F01012202FA01F11C2202EAD0004EF2DF
:1006B0000012CEF2000281507047000010B54EF6D5
:1006C0000C5CCEF2000CDCF80030C3F3022E8EF08E
:1006D0000704042C28BF0424BEF103034FF0FF3E9F
:1006E0000EFA04F438BF0023A14399400EFA03F335
:1006F0009A43114300F00F0200F160430901043AEC
:1007000003F564436244002848BF02F10C031970EA
:1007100010BD00004EF60C51CEF200010A684FF6F3
:10072000FF031A4060F30A2242F0806040F0FD703F
:1007300008607047002804BF012070472DE9F0438E
:1007400081B042F20008C4F202080446D8F8000062
:100750000D4600F0070081420CD9D8F8000020F0C7
:1007600007002843C8F80000D8F8000000F0070090
:10077000A8426CD1206841F204098107C4F2020941
:1007800017D5410705D5D9F8001041F4E061C9F843
:100790000010010705D5D9F8001041F46051C9F8DF
:1007A0000010D9F80010A26821F0F0011143C9F837
:1007B0000010C00742D1D8F8000000F007008542C1
:1007C0000CD2D8F8000020F007002843C8F8000039
:1007D000D8F8000000F00700A84238D1206841078F
:1007E00007D5D9F80010E26821F4E0611143C9F897
:1007F0000010000708D5D9F80000216920F46050E6
:1008000040EAC100C9F80000D9F8002002F00C004D
:10081000082841F20020C0F27A004DD141F60A6367
:10082000C2F38341C0F60003595CD20338D440F6CA
:100830000010C0F23D0048433EE000BF606859F838
:10084000041C022808D0012826D1890306D40120DF
:1008500001B0BDE8F08300BF8901F8D5D9F80010D8
:1008600021F003010843C9F80000FFF7A7FE064680
:1008700041F28837D9F80000616800F00C00B0EB55
:10088000810F98D0FFF79AFE801BB842F2D903205F
:1008900001B0BDE8F08300BF8907D8D5DEE700BF0F
:1008A000D9F8002041F60863C2F34042C0F60003C5
:1008B0009A5C4843B0FBF2F0D9F8001041F6F852C8
:1008C000C1F30311C0F60002515C40F2180220FA95
:1008D00001F140F21400C2F200000068C2F200020E
:1008E0001160FFF793FE002001B0BDE8F083000027
:1008F000002804BF012070472DE9F04182B0044672
:10090000007841F20006C007C4F202060CD07068FD
:1009100000F00C00042840F081803068800303D58B
:100920006068002800F04681207880071BD5706839
:1009300010F00C0F09D0706800F00C00082840F08F
:1009400087807068C00300F183803068800703D51A
:100950002069012840F02E813068616920F0F8009C
:1009600040EAC10030602078000713D420784007A7
:100970002CD4E569002D00F01881706800F00C009F
:10098000082840F0A780012D40F00481012002B02A
:10099000BDE8F081A069002800F084800020C4F246
:1009A00042200121C0F88014FFF708FE054600BF71
:1009B000706A800700F1B280FFF700FE401B02283A
:1009C000F6D9032002B0BDE8F08100BFF0695FEA0C
:1009D000C00808D4F06940F08050F061F06900F080
:1009E00080500090009847F20007C4F20007386872
:1009F000C00549D4386840F480703860FFF7DEFDE8
:100A0000054600BF3868C0053ED4FFF7D7FD401B40
:100A10006428F7D9032002B0BDE8F081706800F0C7
:100A20000C00082803D17068C0033FF576AF6168F9
:100A30003068002900F00C81B1F5A02F00F0008192
:100A4000B1F5803F40F01A8140F480301CE100BFD6
:100A50002069002840F20000C4F2422000F08880A3
:100A600001210160FFF7AAFD054600BF306880073D
:100A70003FF572AFFFF7A2FD401B0228F6D9032015
:100A800002B0BDE8F08100BFE168306A002900F0E3
:100A90009D80052900F09280012940F0AF8040F050
:100AA0000100B1E00020C4F242200021C0F880140F
:100AB000FFF784FD054600BF706A80077FF556AFDB
:100AC000FFF77CFD401B0228F6D9032002B0BDE8E9
:100AD000F08100BF0027C4F2422700203866FFF7EC
:100AE0006DFD022D05460DD13068800140F1DE809C
:100AF000FFF764FD401B02284FF00300F4D902B059
:100B0000BDE8F081306880014FD5FFF757FD401BED
:100B100002284FF00300F5D9F1E700BF40F21800BA
:100B2000C2F20000006844F6D351C1F26201A0FB9A
:100B30000101480A019000BF00BF0198411E002832
:100B400001913FF413AF00BF0198411E00280191AD
:100B50003FF40CAF00BF0198411E002801913FF403
:100B600005AF00BF0198411E00280191E4D1FDE6C8
:100B700000210160FFF722FD054600BF30688007B5
:100B80007FF5F1AEFFF71AFD401B02284FF003007E
:100B9000F4D9B4E77068216A00F480328A4209D13E
:100BA000616A00F47010884204D1002002B0BDE8F0
:100BB000F08100BF012002B0BDE8F08140F00400E8
:100BC0003062306A40F001001EE000BF20F00100FA
:100BD0003062306A20F004003062FFF7EFFC054617
:100BE00041F28837306A800720D5FFF7E7FC401BC9
:100BF000B8424FF00300F5D981E700BF20F00100B3
:100C00003062306A20F004003062FFF7D7FC0546FE
:100C100041F28837306A800708D4FFF7CFFC401BC9
:100C2000B842F7D9032002B0BDE8F081B8F1000F57
:100C30003FF59FAEF06920F08050F06199E600BF6B
:100C400040F480203060306840F480301CE000BF09
:100C500020F480303060306820F480203060FFF76E
:100C6000ADFC0546306880037FF55EAEFFF7A6FC5D
:100C7000401B64284FF00300F4D940E720F4803093
:100C80003060306820F480203060FFF797FC054624
:100C9000306880033FF548AEFFF790FC401B6428A6
:100CA000F6D9032002B0BDE8F08100BF206AB0F59C
:100CB000803F05D17168A26821F400311143716051
:100CC0007168626A21F47411114308437060012055
:100CD0003866FFF773FC0446306880013FF565AF66
:100CE000FFF76CFC001B02284FF00300F4D906E765
:100CF000411E0020B0EB116F1CBF012070474EF267
:100D00001002CEF2000251604EF62351CEF20001E5
:100D1000F0230B700721906011607047704700004E
:100D20007047000090F83C20012A4FF0020236D0B4
:100D300010B580F83D200268D2F804E0D2F808C06F
:100D40000C682EF07003234340F2FF74C4F20004D9
:100D5000A24253600ADCB2F1804F13D040F200434C
:100D6000C4F200039A420DD011E000BF42F60043E6
:100D7000C4F201039A4205D040F60003C4F2000316
:100D80009A4204D149682CF08003194391600121F3
:100D9000002280F83D1080F83C20BDE8104010464D
:100DA00070470000002804BF0120704710B590F87C
:100DB0003D1031B9002180F83C10044600F070F875
:100DC0002046022180F83D10016840F2FF740B6854
:100DD000C4F2000442F6004CA142C4F2010C15DC3E
:100DE000B1F1804F1AD040F20042C4F200029142A9
:100DF00014D0A14218DCB1F1804F1DD040F2004266
:100E0000C4F20002914217D01AE000BF614505D03C
:100E100040F60002C4F200029142EAD1826823F057
:100E200070031343A142E6DD614505D040F60002A0
:100E3000C4F20002914203D1026923F440731343C8
:100E4000846923F08002D0F804E0C368224361453E
:100E50000A60CB62C1F828E002D14269CCF83020A8
:100E600001224A610B69DB0703D00B6923F0010300
:100E70000B6180F8462080F83E2080F83F2080F803
:100E8000402080F8412080F8422080F8432080F8FC
:100E9000442080F8452080F83D20002010BD00004F
:100EA000006840F60001C4F20001884218BF704794
:100EB00080B582B041F21C00C4F202000168002239
:100EC00041F0040101600068002100F0040001907D
:100ED00001981E20FFF7F2FB1E2002B0BDE8804003
:100EE000FFF7DABB90F83D1001291CBF01207047C5
:100EF000022180F83D10006840F2FF71C4F2000149
:100F0000884209DCB0F1804F12D040F20041C4F2B7
:100F1000000188420CD012E042F60041C4F2010107
:100F2000884205D040F60001C4F20001884206D193
:100F3000816801F00701062904BF0020704701689D
:100F400041F00101016000207047000090F83C2052
:100F5000012A4FF002026CD080B580F83D20D0F815
:100F600000C04FF67772DCF8083023EA0202CCF8B2
:100F700008200B684F2B29DC1F2B45DD202B46D08A
:100F8000302B44D0402B40F0AF80D1F804E0C9684A
:100F9000DCF82030DCF8202022F00102CCF8202000
:100FA000DCF8182022F0F00242EA011123F00A02D4
:100FB00042EA0E02CCF81810CCF82020DCF8081019
:100FC00041F0470121F0300128E000BF6F2B33DDF5
:100FD000B3F5005F74D0B3F5805F21D0702B40F083
:100FE0008380D1E901E3C968DCF8082043EA0E03F5
:100FF00022F47F4243EA01211143CCF80810DCF8C7
:10100000081041F0770109E00BB1102B6CD1DCF82E
:10101000081021F07001194341F00701CCF80810C5
:101020000022012180F83D10002180F83C10BDE82D
:1010300080401046704700BF502B21D0602B53D109
:10104000D1F804E0C968DCF82030DCF8202022F078
:101050001002CCF82020DCF8182022F4704242EA7A
:10106000013123F0A00242EA0E12CCF81810CCF89D
:101070002020DCF8081041F0670121F01001CDE7D5
:10108000D1F804E0C968DCF82030DCF8202022F038
:101090000102CCF82020DCF8182022F0F00242EA0D
:1010A000011123F00A0242EA0E02CCF81810CCF823
:1010B0002020DCF8081041F0570121F02001ADE7B5
:1010C000D1E901E3C968DCF8082043EA0E0322F401
:1010D0007F4243EA01211143CCF80810DCF80810E4
:1010E00041F480419AE700BF01229AE7704700006F
:1010F00070B504460068C5680669B10716D515F0D5
:10110000020113D06FF00201016101212177806992
:10111000800703D02046FFF7E9FF05E0204600F0F6
:101120008FF8204600F08EF800202077700719D540
:1011300015F0040016D020686FF00401016102214F
:101140002177806910F4407F04D02046FFF7CEFF5E
:1011500006E000BF204600F073F8204600F072F869
:1011600000202077300717D515F0080014D020682C
:101170006FF00801016104212177C069800703D065
:101180002046FFF7B3FF05E0204600F059F820465F
:1011900000F058F800202077F00619D515F010005F
:1011A00016D020686FF01001016108212177C06915
:1011B00010F4407F04D02046FFF798FF06E000BF00
:1011C000204600F03DF8204600F03CF80020207753
:1011D000F00718BF15F0010002D1300609D412E063
:1011E00020686FF001010161204600F02DF8300603
:1011F00009D515F0800006D020686FF080010161EC
:101200002046FFF78BFD700609D515F0400006D08B
:1012100020686FF040010161204600F017F8B00629
:1012200058BF70BD15F0200008D021686FF0200273
:1012300020460A61BDE87040FFF772BD70BD000036
:1012400070470000704700007047000070470000C2
:10125000FEE700002DE9F04381B040F6000440F2C3
:10126000D40941F61A66C4F20104C2F2000900274B
:101270000FF2F008C0F6000689F8007010E000BF19
:101280000420FFF773F806EB8700C07889F80000A8
:10129000204629460122FFF78BF90137042F5BD046
:1012A00038F81750204629460022FFF781F92046DA
:1012B0000121FFF777F980B90420FFF757F800BF45
:1012C00020460121FFF76EF90028F9D00420FFF72E
:1012D0004DF816F8270089F8000020460221FFF794
:1012E00061F988B90420FFF741F800BF20460221C8
:1012F000FFF758F90028F9D00420FFF737F806EB7C
:101300008700407889F8000020460421FFF74AF959
:1013100080B90420FFF72AF820460421FFF742F99C
:101320000028F9D00420FFF721F806EB8700807829
:1013300089F8000020460821FFF734F90028A7D1DA
:101340000420FFF713F800BF20460821FFF72AF911
:101350000028F9D094E700BF99F8000001B0BDE87B
:10136000F08300BF100020004000800010B540F660
:101370000044C4F20104204680210022FFF718F93E
:10138000204608210022FFF713F9204610210022F1
:10139000FFF70EF9204620210022FFF709F9204629
:1013A00040210022FFF704F920464FF4807101220A
:1013B000FFF7FEF80420FEF7D9FF20464FF48071B6
:1013C0000022FFF7F5F8204680210022FFF7F0F811
:1013D000204608210122FFF7EBF8204610210022C9
:1013E000FFF7E6F8204620210022FFF7E1F820462B
:1013F00040210022FFF7DCF820464FF480710122E3
:10140000FFF7D6F80420FEF7B1FF20464FF48071B5
:101410000022BDE81040FFF7CBB8000010B540F641
:101420000044C4F20104204608210022FFF7C0F85E
:10143000204610210022FFF7BBF820462021002281
:10144000FFF7B6F8204640210022FFF7B1F814203C
:10145000FEF78CFF204680210022FFF7A9F82046E6
:1014600008210122FFF7A4F8204610210122FFF7EE
:101470009FF8204620210022FFF79AF820464021BD
:101480000022FFF795F820464FF480710122FFF704
:101490008FF80420FEF76AFF20464FF48071002287
:1014A000FFF786F80520FEF761FF20468021002225
:1014B000FFF77EF8204608210122FFF779F8204641
:1014C00010210122FFF774F8204620210022FFF7A7
:1014D0006FF8204640210022FFF76AF820464FF4BB
:1014E00080710122FFF764F80420FEF73FFF2046D9
:1014F0004FF480710022FFF75BF80B20FEF736FFF8
:10150000204680210022FFF753F8204608210122BF
:10151000FFF74EF8204610210122FFF749F8204638
:1015200020210022FFF744F8204640210022FFF747
:101530003FF820464FF480710122FFF739F804206C
:10154000FEF714FF20464FF480710022FFF730F8B9
:10155000204680210022FFF72BF820460821002298
:10156000FFF726F8204610210122FFF721F8204638
:1015700020210022FFF71CF8204640210022FFF71F
:1015800017F820464FF480710122FFF711F804206C
:10159000FEF7ECFE20464FF480710022FFF708F8BA
:1015A000204680210022FFF703F820460821002270
:1015B000FEF7FEFF204610210122FEF7F9FF20462C
:1015C00020210022FEF7F4FF204640210022FEF7F2
:1015D000EFFF20464FF480710122FEF7E9FF04205F
:1015E000FEF7C4FE20464FF480710022FEF7E0FFB4
:1015F000204680210022FEF7DBFF20460821002242
:10160000FEF7D6FF204610210022FEF7D1FF20462C
:1016100020210022FEF7CCFF204640210122FEF7C8
:10162000C7FF20464FF480710122FEF7C1FF04205E
:10163000FEF79CFE20464FF480710022FEF7B8FFB3
:10164000204680210022FEF7B3FF20460821002219
:10165000FEF7AEFF204610210022FEF7A9FF20462C
:1016600020210022FEF7A4FF204640210022FEF7A1
:101670009FFF20464FF480710122FEF799FF04205E
:10168000FEF774FE20464FF480710022FEF790FFB3
:10169000204680210022FEF78BFF204608210022F1
:1016A000FEF786FF204610210022FEF781FF20462C
:1016B00020210122FEF77CFF204640210122FEF777
:1016C00077FF20464FF480710122FEF771FF04205E
:1016D000FEF74CFE20464FF480710022FEF768FFB3
:1016E000204680210022FEF763FF204608210022C9
:1016F000FEF75EFF204610210022FEF759FF20462C
:1017000020210022FEF754FF204640210022FEF750
:101710004FFF20464FF480710122FEF749FF04205D
:10172000FEF724FE20464FF480710022FEF740FFB2
:10173000204680210022FEF73BFF204608210022A0
:10174000FEF736FF204610210122FEF731FF20462A
:1017500020210122FEF72CFF204640210022FEF727
:1017600027FF20464FF480710122FEF721FF04205D
:10177000FEF7FCFD20464FF480710022FEF718FFB3
:10178000BDE81040FFF7F2BD10B540F60044C4F2CA
:101790000104204680210022FEF70AFF204608218E
:1017A0000022FEF705FF204610210022FEF700FF71
:1017B000204620210022FEF7FBFE20464021002289
:1017C000FEF7F6FE20464FF480710122FEF7F0FE90
:1017D0000420FEF7CBFD20464FF480710022FEF777
:1017E000E7FE204680210022FEF7E2FE2046082187
:1017F0000022FEF7DDFE204610210022FEF7D8FE73
:10180000204620210122FEF7D3FE2046402101225E
:10181000FEF7CEFE20464FF480710122FEF7C8FE8F
:101820000420FEF7A3FD20464FF480710022BDE89E
:101830001040FEF7BDBE00000138C2B2032A88BFC7
:10184000704770B5C0004BF67F72C0B2CDF29332D4
:1018500040F6004422FA00F0C4F201040D182046BC
:1018600080210022EEB2FEF7A3FEC5F3001220464F
:101870000821FEF79DFEC5F3401220461021FEF719
:1018800097FEC5F3801220462021FEF791FEF20953
:1018900020464021FEF78CFE20464FF48071012245
:1018A000FEF786FE0420FEF761FD20464FF48071AE
:1018B0000022FEF77DFE204680210022FEF778FE02
:1018C00005F0010220460821FEF772FEC5F3400232
:1018D00020461021FEF76CFEC5F380022046202131
:1018E000FEF766FEC5F3C00220464021FEF760FE0B
:1018F00020464FF480710122FEF75AFE0420FEF7C5
:1019000035FD20464FF480710022BDE87040FEF79F
:101910004FBE0000B0B540F60044C4F201040546D5
:10192000204680210122FEF743FEC5F30012204627
:101930000821FEF73DFEC5F3401220461021FEF7B8
:1019400037FEC5F3801220462021FEF731FEEA095A
:1019500020464021FEF72CFE20464FF480710122E4
:10196000FEF726FE282000F053F820464FF4807141
:101970000022FEF71DFE05F0010220460821FEF7B9
:1019800017FEC5F3400220461021FEF711FEC5F3F5
:10199000800220462021FEF70BFEC5F3C002204640
:1019A0004021FEF705FE20464FF480710122FEF72C
:1019B000FFFD282000F02CF820464FF48071002213
:1019C000BDE8B040FEF7F4BD0178002908BF7047BC
:1019D00010B5441EC8B2FFF79DFFA178013400295D
:1019E000F8D1BDE810407047FEE70000FEE70000B8
:1019F0007047000070470000FEF7E6BD704700002A
:101A000040F28800C2F20000FFF772BBFEE7000060
:101A100040F28001C2F2000189684A6A92B208E08D
:101A20004B6A9B1A834228BF70474B6A9B1A8342BA
:101A300007D24B6A9B1A834203D24B6A9B1A83429A
:101A4000EED3704792B0FEF7CDFD08AC201D2421E7
:101A5000FEF7E0FB0220089001200C9010200D9072
:101A6000002520460F95FEF743FF28B1EFF31080C5
:101A700072B600BFFEE700BF0F2702A80021CDE924
:101A80000275CDE904550695FEF754FE20B1EFF33B
:101A9000108072B6FEE700BF002641F21800CDE9C3
:101AA0000A66CDE90866C4F20200016840F6004407
:101AB00041F0100101600168C4F2010401F010015D
:101AC000029102990168A4F5806541F0040101606A
:101AD0000168002201F004010291029901684FF0AF
:101AE000F00841F0080101600068F02100F00800F2
:101AF000029002982846FEF75BFD204640F2FB115B
:101B0000002240F2FB19FEF753FDCDE9087608AF3D
:101B10004FF0010A28463946CDF828A0FEF73AFCD6
:101B2000CDE9088A4FF00208284639460A96CDF8D2
:101B30002C80FEF72FFC20463946CDE9089ACDE9E6
:101B40000A68FEF727FC4FF48060CDE908062846B6
:101B500039460A96FEF71EFC40F28007C2F20007E3
:101B6000A4F58231384640F8081F07214FF6FE726F
:101B70000B96CDE90966CDE90266C0E90116C0E918
:101B800003268661FFF70EF920B1EFF3108072B6DD
:101B9000FEE700BF4FF4805007F10805089008A940
:101BA0002846FFF7D3F928B1EFF3108072B600BFD3
:101BB000FEE700BF02A92846FFF7B4F820B1EFF313
:101BC000108072B6FEE700BF2846FFF78BF9B868B1
:101BD0004FF0000AC0F824A0FFF720FC0F20FEF70A
:101BE000C5FBFFF7C3FBFFF7CFFD01200121FFF786
:101BF00023FE40F2000BC2F2000B0BF10400FFF7D2
:101C0000E3FE02200121FFF717FE69A0FFF7DCFECB
:101C10004FF03009381D4FF03008019005E000BF4B
:101C200038704FF4C870FEF7A1FBFFF713FB787014
:101C3000FEF7E8FA064600685FFA88F1405C454620
:101C400020284FF001004FF00F0118BF4D46FFF75D
:101C5000F3FD7878FFF75EFE01201021FFF7ECFD21
:101C6000E8B205F10108FFF755FE204601210122E7
:101C7000FEF79EFCDBF80000FEF778FB2046012112
:101C80000022FEF795FCDBF80000FEF76FFB78788A
:101C90000028CAD0204602210122FEF789FC4FF419
:101CA000FA70FEF763FB204602210022FEF780FC5B
:101CB0004FF4FA70FEF75AFB7878FB783D28B8703D
:101CC00026D12BB30199002202EB82020D7803EB9F
:101CD0004202A2F13002CDB102EB82024B7805EB59
:101CE0004202A2F130028BB102EB82028D7803EB4B
:101CF0004202A2F130024DB102EB8202CB7805EB39
:101D00004202303A002B01F10401DDD1CBF8002072
:101D10003168095C202921D1397804293FF685AF43
:101D2000DFE801F0103A042E1E0000BF7871012098
:101D30000D2187F806A0FFF77FFDB878FFF7EAFDD1
:101D400003206DE7F87001200B2187F804A0FFF74E
:101D500073FDB878FFF7DEFD012061E704203870DD
:101D600001200B21FFF768FD16A0FFF72DFE4FF4B1
:101D7000167087F803A0FEF7F9FA87F800A054E779
:101D8000B87101200E2187F807A0FFF755FDB8783C
:101D9000FFF7C0FD042043E7387101200C2187F8CC
:101DA00005A0FFF749FDB878FFF7B4FD022037E73B
:101DB00050494320206573206C61206F6E6461215F
:101DC00000000000202020200000000010B50029A5
:101DD0000AD00878002807D005487844FEF74CFA66
:101DE000002801D0002010BD0248784410BD00003A
:101DF000720000006A000000000000000000000007
:101E0000010203040607080901020203040506078C
:101E100008090A0B0C0D0E0F101037383925343510
:101E2000362A3132332D43303D2B0000601F00082D
:101E3000000000202000000050010008801F000862
:101E400020000020B806000070010008100100000A
:101E500043000000F8FFFFFF00404040404040408A
:101E6000404041414141414040404040404040406D
:101E70004040404040404040400502020202020211
:101E80000202020202020202022020202020202060
:101E90002020200202020202020290909090909074
:101EA0001010101010101010101010101010101032
:101EB00010101010020202020202888888888888A6
:101EC0000808080808080808080808080808080892
:101ED000080808080202020240000000000000009A
:101EE00000000000000000000000000000000000F2
:101EF00000000000000000000000000000000000E2
:101F000000000000000000000000000000000000D1
:101F100000000000000000000000000000000000C1
:101F200000000000000000000000000000000000B1
:101F300000000000000000000000000000000000A1
:101F40000000000000000000000000000000000091
:101F50000000000000000000000000000000000081
:101F6000F40100004C6364346269743A00000000BC
:101F7000010000001000000000127A0000000000C4
:04000005080000ED02
:00000001FF
